:1000000000000320D101000041300000F92F000062
:10001000F92F0000F92F0000F92F0000F92F000040
:10002000F92F0000F92F0000F92F000041300000E7
:1000300041300000F92F0000FD4A0000014C000093
:1000400041300000413000004130000041300000EC
:1000500041300000413000004130000041300000DC
:1000600041300000413000004130000041300000CC
:1000700041300000413000004130000041300000BC
:1000800041300000413000004130000041300000AC
:10009000413000004130000041300000413000009C
:1000A000A12E0000AD2E00004130000041300000C4
:1000B000413000004130000041300000B9370000FD
:1000C00041300000FD4E000041300000295000008A
:1000D00041300000E53800004130000041300000B0
:1000E000413000004130000041300000413000004C
:1000F000413000004130000041300000413000003C
:10010000413000004130000041300000413000002B
:10011000413000002140000041300000413000002B
:10012000413000004130000041300000413000000B
:1001300041300000413000004130000041300000FB
:100140004130000041300000413E000041300000DD
:1001500041300000413000004130000041300000DB
:100160004130000041300000B92E00004130000055
:1001700041300000413000004130000041300000BB
:1001800041300000413000004130000041300000AB
:10019000413000004130000021510000413000009A
:1001A000413000004130000041300000413000008B
:1001B000413000004130000041300000413000007B
:1001C000413000004130000041300000413000006B
:1001D0005C4B4CF2205210B51A804DF628121A8052
:1001E00000BF00BF00F004FB574B4FF030621A60B5
:1001F000564A9A60564ADA60564B4FF470021A60BB
:10020000554B564A1A60564A136813F4807304D14A
:1002100054490B604FF4A8531360534B1A781107DD
:1002200003D51A7842F008021A70504B5049AA229E
:100230001A70504A504B8B4204D252F8040F43F8C4
:10024000040BF8E74D4B4E4900228B4202D243F893
:10025000042BFAE74B494C4A002352F8230041F89B
:1002600023000133742BF8D1484B494A802103F80D
:10027000011B9342FBD1474B424A1A60464B8A22EC
:100280001A70A3F5805324225A70A0221A709A790A
:100290009207FCD59A79D406FCD4404A937903F0AE
:1002A0000C03082BFAD13E4B60221A7002331A78E5
:1002B000802AFCD1394B01221A715D225A719A7938
:1002C0009006FCD59979354A4906FBD5354B364918
:1002D00019600021596020231370937903F00C03F7
:1002E0000C2BFAD1314B324A1A60324B324A1A6027
:1002F00000225A60072243F8042C304AC3F80C2D20
:1003000062B603F093F9174B1B68DA0705D52C4842
:1003100002F06EFF2B4B2C4A1A602C4B1B785B06AD
:1003200009D5284C284B22689A4204D1244802F06F
:100330005FFF0023236004F0E7FF02F085FE04F076
:100340006BFCFEE70E20054030800440823F040035
:100350000100002B88ED00E0002008E0030000858C
:1003600010D0034014D0034002D0074000E0074003
:10037000F413FF1F386300003009FF1FF813FF1F3D
:10038000A01FFF1F0004FF1F0000000000E400E0AA
:1003900064E400E008ED00E0005006400040064044
:1003A00001E007404480044000000602048004404D
:1003B000C010070014E000E01FBF02000000202072
:1003C000B0400C5B1CE00340A5C3945A00F007400A
:1003D000FFFFFFFFFFFFFFFFFFFFFFFFFFFFFFFF2D
:1003E000FFFFFFFFFFFFFFFFFFFFFFFFFFFFFFFF1D
:1003F000FFFFFFFFFFFFFFFFFFFFFFFFFFFFFFFF0D
:10040000FFFFFFFFFFFFFFFFFFFFFFFFDEF9FFFF23
:1004100010B5054C237833B9044B13B10448AFF33E
:1004200000800123237010BDF813FF1F000000009F
:100430003C630000084B10B51BB108490848AFF3F6
:1004400000800848036803B910BD074B002BFBD0A0
:10045000BDE81040184700BF00000000FC13FF1F5C
:100460003C630000F413FF1F00000000F8B55B4977
:100470005B4D5C4C2A7894F800C00B785A48DFF842
:1004800084E15A4F5A4E1B0443EA0C23134302786B
:10049000DFF864C143EA0263FF222A7022700A7007
:1004A00080218EF800200270397031709CF806208F
:1004B000504912F00C0F0B6103D19CF80630DC069A
:1004C0003DD44D4A9379C3F38103032B41D04A4B6A
:1004D0009A79C2F38102022A43D0474A9379C3F33F
:1004E0008103022B54D0444A9379C3F38103022B36
:1004F00062D0414A9379C3F38103012B52D03E4A23
:100500009379C3F38103012B5DD03B4B9A7912F0B1
:100510000C0F03D19A79D20600D49B79374D384B12
:100520002A7853F82240DCB1236820469B6898471C
:100530002B7804EB83046468002CF5D1F8BD9CF89B
:1005400006309806EAD52C4A9379C3F38103032B2E
:10055000BDD19379D906BAD493799B06DED4B6E798
:10056000F8BD9A79D706B8D49A799606B5D5597850
:1005700001F0020101F0FF020029AED120211A7022
:100580001A461970937903F00C030C2BFAD1C5E7C6
:100590009379DD06A7D493799C06A4D45378980761
:1005A000BCD5A0E79379DF06A9D593799E06A6D49A
:1005B00053789D07B2D4A2E79379D90699D453789A
:1005C0009B07ABD495E79379DC069ED59379980683
:1005D0009BD453789907A1D597E700BF0BC007407C
:1005E00009C007400AC007400DC007400EC00740C1
:1005F0000FC00740741FFF1F004006400C1BFF1F69
:10060000CC1AFF1F0CC0074090F92410104B036058
:100610004B1C06D0F0B40F4E56F82130984201D052
:10062000F0BC70470C4F57F8213033B18D000024D7
:100630005A1953685460002BFAD1084C23780022D1
:10064000013B237047F8212046F82120E8E700BF4E
:100650007C5D0000EC1AFF1FCC1AFF1F0D1BFF1F53
:1006600038B590F924506B1C1BD00E4B0E4953F833
:1006700025400E4BEDB24FF0FF320D701A6084B181
:10068000AD0002E02C4464685CB194F82530002B86
:10069000F8D0236820462C441B6898476468002CD7
:1006A000F3D138BDCC1AFF1F0C1BFF1F0002FF1F28
:1006B000704700BF90F92410104B03604B1C06D00C
:1006C000F0B40F4E56F82130984201D0F0BC70477C
:1006D0000C4F57F8213033B18D0000245A1953685C
:1006E0005460002BFAD1084C23780022013B237080
:1006F00047F8212046F82120E8E700BF7C5D000094
:10070000EC1AFF1FCC1AFF1F0D1BFF1F90F92410BE
:10071000104B03604B1C06D0F0B40F4E56F821303E
:10072000984201D0F0BC70470C4F57F8213033B1DC
:100730008D0000245A1953685460002BFAD1084CDC
:1007400023780022013B237047F8212046F821201E
:10075000E8E700BF7C5D0000EC1AFF1FCC1AFF1F0A
:100760000D1BFF1F90F92410104B03604B1C06D08B
:10077000F0B40F4E56F82130984201D0F0BC7047CB
:100780000C4F57F8213033B18D0000245A195368AB
:100790005460002BFAD1084C23780022013B2370CF
:1007A00047F8212046F82120E8E700BF7C5D0000E3
:1007B000EC1AFF1FCC1AFF1F0D1BFF1F38B50025B9
:1007C000044645600560058145818581C5810582B6
:1007D00045820575153000F073FD2577657704F1C6
:1007E0001E03263403F8015BA342FBD138BD00BFD2
:1007F000544A554B102111801B781B074AD5F0B580
:100800005248534D534E544C32782F78037894F815
:1008100000C0DFF868E18B4043EA072313434F4FE2
:10082000FF22327043EA0C632A70027080208EF837
:100830000020227038706871D807494A23D51A23DE
:10084000D36048494848DFF838C1DFF838E1474FFE
:10085000474E484D484C00238CF80030537093703D
:10086000D370137153719371D37113618EF800308B
:100870000B700370107A3B70137233702B702370FF
:1008800013708871F0BD1F0705D4DE0606D504235A
:10089000D360D6E770472123D360D2E79D0604D406
:1008A0005C0604D51623D360CBE7D160C9E71806F0
:1008B00004D4990705D53C23D360C2E70923D3604C
:1008C000BFE75F0702D53E23D360BAE7DE0502D556
:1008D0000A23D360B5E79D0502D50D23D360B0E7A9
:1008E0005C0502D50B23D360ABE7180502D51E23A8
:1008F000D360A6E7D90402D50223D360A1E79F0401
:1009000002D50723D3609CE75E0402D50623D3609B
:1009100097E71D0402D51523D36092E7DC0102D5C9
:100920002423D3608DE7980102D52223D36088E782
:10093000D90002D52523D36083E79B0044BF23233E
:10094000D3607EE70020054002D007400BC007407F
:100950000AC0074009C007400DC007400EC007404D
:10096000741FFF1F02C0074003C0074004C00740B8
:1009700005C0074006C0074007C007400CC007403D
:1009800000C0074001C00740002976D02DE9F04F94
:100990000C469100631883B05D68002D57D06B182A
:1009A0005E68002E50D073185F68002F49D07B1806
:1009B000D3F80480B8F1000F3CD008EB0103D3F862
:1009C0000490B9F1000F32D009EB0103D3F804A071
:1009D000BAF1000F27D00AEB0103D3F804B0BBF142
:1009E000000F18D00BEB01035B6863B1194401934E
:1009F0004968FFF7C9FF019B93F825201AB11A68CF
:100A00001846536898479BF8253023B1DBF800302F
:100A100058465B6898479AF8253023B1DAF80030D9
:100A200050465B68984799F82530002B35D198F8E7
:100A3000253063BB97F825301BB13B6838465B68AF
:100A4000984796F82530CBB995F8253063B994F8D6
:100A5000253013B903B0BDE8F08F23685B682046EA
:100A600003B0BDE8F04F18472B6828465B689847ED
:100A700094F82530002BEDD0EFE77047336830460F
:100A80005B68984795F82530002BE0D0ECE7D8F864
:100A9000003040465B689847CCE7D9F800304846BC
:100AA0005B689847C3E700BF90F92420531C26D009
:100AB0001B4B2DE9F04153F82240D2B2ECB1930028
:100AC000E1184D68B5B1E9184E6866B1F1184F6884
:100AD00037B13B445968FFF757FF97F82530A3B962
:100AE00096F8253063B995F825301BB12B68284658
:100AF0005B68984794F8253063B9BDE8F08170478A
:100B0000336830465B689847EDE73B6838465B687A
:100B10009847E5E7236820465B68BDE8F041184741
:100B2000CC1AFF1F4FF4FA6002F02EBD70B51446C8
:100B3000C5B2284602F00EFD236842F20E76B3429B
:100B40000FDC284602F00CFDB0FA80F14909284676
:100B500002F000FD206802F017FD54F8043FB34294
:100B6000EFDD70BDF0B543F2D4008BB002F078FF3A
:100B7000234E244F244D642002F006FD102123480B
:100B800003F0BCF8304604F063F800F035FA38782A
:100B9000022102F03FFB4FF4FA6002F0F5FC0FCDAA
:100BA0006C460FC40FCD0FC495E80300DFF870E06A
:100BB00084E803006A46DEF800000121FFF7B6FF73
:100BC000134B6A4618680121FFF7B0FF6A46386880
:100BD0000121FFF7ABFF0F4B6A4618680021FFF7B2
:100BE000A5FF0D4B6A4618680021FFF79FFF0B21F8
:100BF0000A4803F083F8304604F02AF80BB0F0BD41
:100C0000FC0AFF1F4C09FF1F885D0000485E0000C2
:100C10004809FF1F5009FF1F5409FF1F5C5E0000B9
:100C20004409FF1F2DE9F04F05469D4E9D4FDFF80B
:100C30008C8296F800E02F60FF2085F82400DFF812
:100C4000809298F80000BEF1060F59F820E04FF0AE
:100C500000038DB00C4685F8253085F8263098BF06
:100C60003370BEF1000F00F0AD808E455ED073464C
:100C7000810001E09C4259D00B445B68002BF9D104
:100C8000734600E053460B44D3F804A0BAF1000FBA
:100C9000F8D15C603478029705EB010B4FFA80FCC9
:100CA000FF23062CCBF804A08DF82DA08DF82EA0E4
:100CB00085F824C08DF82C30744604D80023337096
:100CC000002C00F0B480A24229D0234601E09342D8
:100CD00025D00B445B68002BF9D104EB010EDEF844
:100CE0000440002CF9D1CEF804200CAB1944BCF11F
:100CF000FF3F00F101034FF0000041F8240C88F899
:100D000000308DF82CC0029705D0674951F82C208F
:100D100002AB9A4276D028460DB0BDE8F08F013084
:100D200088F8000028460DB0BDE8F08F31780297B2
:100D3000FF24002306298DF82C408DF82D308DF8E6
:100D40002E30574C00D823709645E8D0734681006A
:100D500001E09A42E3D00B445B68002BF9D18E444A
:100D6000DEF804402CB1A6468E44DEF80440002C88
:100D7000F9D10CAB46B219440130731CCEF80420F3
:100D800088F8000041F8244C02978DF82C60C2D0FE
:100D9000454951F8262002AB9A42BCD159F8263079
:100DA000B00023B11A1853685460002BFAD198F898
:100DB00000300022013B88F8003049F8262041F835
:100DC0002620A8E700283AD0374B96F800E043F8F1
:100DD0002050810005EB010C002349F820408DF8DC
:100DE0002D30CCF804308DF82E304FFA80FCFF23E4
:100DF000BEF1060F029785F824C08DF82C307FF6DF
:100E00005DAF5DE759F82C304FEA8C0423B11A1915
:100E100053685060002BFAD198F800300022013B53
:100E200088F8003049F82C2041F82C2073E7E8B10D
:100E30001D4B49F8202002AA43F8202055E71B4902
:100E40001B480B68019243F080630B6003681949EB
:100E500023F080430360152002F0C2F9164B019A7B
:100E60004FF40011196098F80000ADE70F4C1048DE
:100E70002368019243F08063236003680D4923F0E7
:100E800080430360152002F0ABF90B4B019A4FF43D
:100E90000011196098F800004FFA80FC8100C7E744
:100EA0000402FF1F7C5D0000EC1AFF1F0470044069
:100EB000007004406D04000000E100E00D1BFF1F06
:100EC000CC1AFF1F2DE9F0472F48304EDFF8F8808D
:100ED0002F4CDFF8F8A000F0FFF92E48FFF76EFC6A
:100EE0002D480025FFF76AFC01274FF0FF092B4B27
:100EF0002B4933604246304686F8249086F82550C8
:100F000086F8267004F0EEF9264A274B84F825501F
:100F1000264915802046424684F824902360E562E5
:100F20002563656384F8385084F8395084F8267056
:100F3000658504F0D7F91E4B1E4A83F8255083F8C7
:100F400024901A60184642461B4983F8267083F89D
:100F50002570DFF87C9004F0C5F9224631465046F2
:100F6000FFF760FE42465046144904F0BBF939468B
:100F70004A46134800F07CF94A4629461148BDE824
:100F8000F04700F075B900BFFC15FF1F1814FF1FD4
:100F90006C16FF1FA816FF1FD016FF1F685F00000A
:100FA000B5060000181BFF1F905F00000D07000032
:100FB000F816FF1F7C5F00006507000009060000AF
:100FC0004C17FF1FB815FF1F3009FF1F2417FF1F05
:100FD000FC0AFF1F08B5054800F07EF90448FFF73A
:100FE000EDFB0448FFF7EAFB08BD00BF9017FF1FA9
:100FF0002818FF1F0018FF1F2DE9F04F3B4BDFF8AB
:1010000010B11878DFF80C91DFF80CA1DFF80C8133
:10101000374F384E384D394C83B00121019302F0DF
:10102000ADFA9BF80000012102F0A8FA99F800003F
:10103000012102F0A3FA324A0021107802F09EFA50
:101040009AF80000012102F099FA2E4A0021107846
:1010500002F094FA2C4A0021107802F08FFA2B4A01
:101060000021107802F08AFA98F80000012102F0BD
:1010700085FA3878012102F081FA3078012102F0F6
:101080007DFA2878012102F079FA2078012102F016
:1010900075FA019B0021187802F05CFA9BF80000B9
:1010A000002102F057FA9AF80000002102F052FAEB
:1010B00099F80000012102F04DFA98F80000012192
:1010C00002F048FA3878012102F044FA3078012120
:1010D00002F040FA2878012102F03CFA2078002141
:1010E00003B0BDE8F04F02F035BA00BF6009FF1F42
:1010F0004C09FF1F5009FF1F5409FF1F4409FF1F20
:101100006409FF1F5809FF1F5C09FF1F3809FF1FF3
:101110003C09FF1F4009FF1F3409FF1F4809FF1F3B
:1011200000207047704700BF08B5084602F0DCFD9C
:10113000012008BD08B5084602F0D6FD012008BD13
:1011400038B508460D4604F0FBFB04460146284628
:1011500002F0D4FD204638BD10B5084614461146AD
:1011600002F0CCFD204610BD02F058BE08B508467E
:1011700002F09AFD003018BF012008BD08B50846EE
:1011800002F070FD003018BF012008BD084611466E
:1011900002F03CBD084602F063BD00BF084602F005
:1011A00019BD00BF02F0E0BC034B03EB5100B0FBE4
:1011B000F1F002F055BC00BF000E270710B5064B3A
:1011C000144603EB5100B0FBF1F002F049FC20465D
:1011D000BDE8104002F092BC000E270702F006BEE8
:1011E00002F0D0BD02F0BEBD02F09EBD02F0A8BD6F
:1011F0000368064A1B68934205D110B5C8B202F0D5
:1012000073FD012010BDC9B2184700BF35110000A1
:101210000368064A1B68934205D110B5C8B202F0B4
:1012200063FD012010BDC9B2184700BF3511000091
:101230000368064A1B68934205D110B5C8B202F094
:1012400053FD012010BDC9B2184700BF3511000081
:101250000368064A1B68934205D110B5C8B202F074
:1012600043FD012010BDC9B2184700BF3511000071
:1012700010B44FF47A73C363104C4463002380F8B6
:10128000383080F84030147980F838409468C4636E
:10129000127B80F840200A22C3708371C3710372ED
:1012A000827029B17723437041725DF8044B704717
:1012B0007623437041725DF8044B7047F05E000086
:1012C000002301220721C170437083700370837172
:1012D00002714271704700BF2DE9F04104460025BC
:1012E00000F1250738466561256125836583A5835F
:1012F000E5832584658484F8245004F12E06FFF7E5
:10130000DFFF04F1360884F82C5084F82D502A466B
:10131000334603F8012B43454FF00005F9D1A5648E
:101320006564A4F84C50A4F84E50A4F85050A4F8AA
:101330005250A4F85450A4F8565084F8585004F170
:101340005900FFF7BDFF84F8605084F861502B46C8
:1013500004F1620204F16A0102F8013B91424FF08C
:101360000005F9D16560A560E560656125612583AB
:101370006583A583E5832584658484F824503846F5
:10138000FFF79EFF84F82C5084F82D5006F8015B7F
:1013900046454FF00003F9D184F841302046BDE8BE
:1013A000F08100BF90F8383090F839209A4205D982
:1013B0005A1C034480F83820187E70474FF0FF30E5
:1013C000704700BF064B074ADA62022100225960CB
:1013D0009A7083F8242083F8302083F832207047F5
:1013E0005018FF1F505F00002149224A0B6843F04C
:1013F00080030B6011461368DB07FCD40B689B0766
:10140000F9D41D4B30B44FF08072194D186000E0D4
:10141000A2B12968194B164C0B40013A002BF7D0AA
:1014200062B1012B0AD1236813F0800F23680FD01B
:1014300043F001132360032030BC70470C4A13684B
:1014400043F4702343F001031360012030BC704764
:1014500013F4803305D0236843F001132360052083
:10146000F4E7226842F0010218462260EEE700BF6E
:1014700030100B4024100B400C100B4001000E00EC
:1014800070B50D4D0D480E4E00232B60FFF7ACFFDD
:101490006324034606E04BB92B60FFF7A5FF013C30
:1014A000034605D0326805485207F4D4184670BD8B
:1014B000002808BF052070BD08100B400000DB0CA1
:1014C00024100B40F8B5384B1A780AB10320F8BD48
:1014D0005B78064603B94902344D354C354B3648E6
:1014E0004FF6FF774FF481322F6021601A60FFF7CB
:1014F0007BFF0028EBD1314B31491B681C3406F1CE
:10150000400206F510702B68284F43F0200613F4B4
:10151000E00F2E603ED123681E05FCD50B6842F813
:10152000403C0B6842F83C3C0B6842F8383C0B6886
:1015300042F8343C0B6842F8303C0B6842F82C3CD3
:101540000B6842F8283C0B6842F8243C0B6842F8D0
:10155000203C0B6842F81C3C0B6842F8183C0B68B6
:1015600042F8143C0B6842F8103C0B6842F80C3C03
:101570000B6842F8083C0B6842F8043C4032824257
:10158000C1D1002009490B68084A9B07FBD50D4BC8
:101590001360F8BD43F4E00343F020033B60FFF722
:1015A0006FFF0120EEE700BFA418FF1F30100B40B3
:1015B00008100B4004100B4010003A1110100B40A3
:1015C00020100B4022000001F8B52B4B1A780AB10D
:1015D0000320F8BD5B78044603B94902274D284E25
:1015E000284B29484FF6FF774FF481322F60316046
:1015F0001A60FFF7F9FE0028EBD1244B24491B6841
:101600002E4604F500772B681C4AD806FBD53368B4
:1016100013F4E00F1AD104F1400254F8043B0B60BC
:10162000A242FAD12B68DFF854E043F010032B609C
:101630002B6813F4E00013D19742E4D10F490B68F3
:101640000E4A9B07FBD5134B1360F8BD136843F498
:10165000E00343F010031360FFF712FF0120EDE7F2
:10166000DEF8003043F4E00343F01003CEF800301E
:10167000FFF706FF0120E1E7A418FF1F30100B4021
:1016800008100B4004100B4000003A1810100B40DB
:1016900020100B401200000110B50121007801F06C
:1016A00059FF114A1378C3B11049CB7A0024184668
:1016B000147093B1DA0703D50D4AC8691060184653
:1016C0009C0703D50B4B0A6AC87A1A60420705D4F7
:1016D000030702D5084B8A6A1A6010BD074B4A6A95
:1016E000C87A1A60F4E700BFB818FF1F6C09FF1F23
:1016F00000E100E004E100E00CE100E008E100E0CE
:10170000234B1A781AB10078002101F023BF70B47E
:10171000204A2149D47A096801251D70002C26D061
:1017200072B6D47AE607234606D51C4DD3682E68D8
:101730003340D3612B602346A50706D5184D1469A5
:101740002E68D37A344014622C605C0706D5154DA0
:1017500054692E68D37A344054622C601B0705D537
:10176000114C936925682B409362236062B613681D
:10177000DA688A4207D00D4C1C600D4AD96041F0EE
:1017800080441C611A600078002170BC01F0E2BE48
:10179000B818FF1F6C09FF1FB418FF1F80E100E09D
:1017A00084E100E088E100E08CE100E001403F00DE
:1017B00000003F80F0B41248124A036882B0164617
:1017C0000093009F4FF00045FF24136843F48063AB
:1017D0001360D5625463D36A002BFCDAB36BDBB2BF
:1017E000FF2B09D003680193019BDB1B8B42ECD3D9
:1017F000002002B0F0BC7047012002B0F0BC70477E
:10180000241BFF1F00C00240F8B50D464FF496712F
:1018100016460446FFF7CEFF284B1A684FF00040EB
:1018200042F4806245F040011A60D8621A4659635A
:10183000D36A002BFCDA214918204FF000470A68D0
:1018400026FA00F342F48062DBB20A60CF624B6397
:10185000CB6A002BFCDA083810F1080FEFD155B332
:10186000082D0CBF8721FF21144B1A684FF0004050
:1018700042F480621A60D8621A465963D36A002B18
:10188000FCDA0E4A002716464FF00045FF21136888
:1018900043F480631360D5625163D36A002BFCDA92
:1018A000B36BD8B21B06607000D4F8BD0137B7F532
:1018B000807FECD1F8BD9521D6E700BF00C0024083
:1018C000F0B41549154A0B6882B016460093009F84
:1018D0004FF00045FF24136843F480631360D56222
:1018E0005463D36A002BFCDAB36BDBB2FF2B43707B
:1018F0000AD10B680193019BDB1BB3F5967FEAD9F4
:10190000002002B0F0BC7047A3F1FE00B0FA80F0F6
:10191000400902B0F0BC7047241BFF1F00C002400A
:10192000F8B58378032B0E46044618BF4E021546C1
:10193000FFF7E6FE324611212046FFF765FF18B992
:101940002046FFF7BDFF20B92046FFF7A5FE002087
:10195000F8BD204B2049214A1A608E4659631A4629
:1019600059631E46596305F5FD70A91C05F5FE7700
:10197000D36A13F0F00FFBD0C6F834E0B36B01F874
:10198000013C1B1201F8023C02318F42F0D105F5F7
:101990000075A8420DD20F4A1646D36A13F0F00F15
:1019A000FBD0B36B191200F8021BA84200F8013CEF
:1019B000F3D3084B0949084A196019465A63CB6AA0
:1019C000044A13F0F00FFAD02046936BFFF764FE41
:1019D0000120F8BD00C00240FFFF009000041F80FE
:1019E000F0B4314E33684FF0004743F48063336006
:1019F0003D46F762344671633346511C02F20127BB
:101A0000E26A002AFCDA1A6811F8016C42F480627A
:101A10001A60DD625E63E26A002AFCDA1A6811F875
:101A2000026B42F480628F421A60DD625E63E7D12E
:101A30001D49CA6A1C4B002AFBDA1A684FF00045A0
:101A400042F48062FF241A601946DD625C63CB6A4F
:101A5000154A002BFBDA13684FF0004543F480630E
:101A6000FF2413601146D5625463CB6A0E4A002BE3
:101A7000FBDA13684FF0004543F48063FF241360E2
:101A80001146D5625463CB6A074A002BFBDA936B8D
:101A9000DBB203F01F024370A2F10500B0FA80F040
:101AA0004009F0BC704700BF00C0024070B504465A
:101AB00071B18378032B0D4618BF4D021646FFF710
:101AC0001FFE2A4618212046FFF79EFE054620B13C
:101AD0002046FFF7E1FD002070BD3246FE21204682
:101AE000FFF77EFF0028F3D04FF416712046FFF772
:101AF00061FE0028ECD02A460D212046FFF784FE27
:101B00000028E5D10B4B1A684FF0004542F4806283
:101B1000FF201A601946DD625863CB6A054A002B24
:101B2000FBDA936B13F0FF0FD2D12046FFF7B4FD21
:101B3000012070BD00C00240014B024A1A6070478C
:101B4000B418FF1F0320003838B590F90530002B7A
:101B500003DBBDE8384000F079B904460121006993
:101B600000F0B4F9F8B1257D104B13EB45151AD0F0
:101B7000A3790F4A012B9CBFA369EB61E36912684B
:101B80006B831B0CAB8232B105F1160105F1180015
:101B900090472B8B6B82637903F07F036371BDE801
:101BA000384000F053B9002038BD00BFC818FF1FEF
:101BB000BC18FF1F10B500F1080204460121006A9D
:101BC00000F02CFA50B1E3693BB96379A268E26195
:101BD00063F07F036371012010BD012010BD00BFC1
:101BE000F8B5837913B182698A4201D20020F8BD29
:101BF000022B0F4605461AD007B32B6AE9681C7CF6
:101C00004A1E04F109037C1EDA40DC40A24211D9CD
:101C1000EB69AB6005F1080606E0A968286A00F0E8
:101C2000C5F9013C0028E1D03246002CF5D1EF6027
:101C30000120F8BD0029EBD0A41AEBE7AF60EF60FC
:101C40000120F8BD2DE9F04F8B46817985B001293F
:101C50000746019205D001233B71002005B0BDE885
:101C6000F08F42799107F6D5530708D5FC68B9691A
:101C70008C4200F0B480FFF7B3FF0028EBD0019B4B
:101C8000FC68002B4AD0DFF8A491DFF8A4A1DDF8AE
:101C90000480386A0679013E06EA542616F0FF06EB
:101CA000C4F3080443D1002C41D1B968002973D191
:101CB000FA69002A00F08380BA60C4F50075ADB2FD
:101CC00045453AD9057C4169023AAA400E4416447A
:101CD0001FFA88F51CB9F868BA6990424FD23046AD
:101CE000012100F0F3F80028B5D04C4404EB050EB8
:101CF00074450DD00BF1FF31621E0EF1FF3611F865
:101D0000010F02F8010F9642F9D1C4EB0E04A3446F
:101D1000FC68B8EB05082C44FC60BAD1BB69A3424F
:101D200062D27A79BC6142F080027A7165E0C4F5D2
:101D30000075ADB24545BA68C4D8017C4069023A25
:101D40008A400644B5F5007F1644C3D1DAF8002076
:101D5000964204BF4FF0FF32CAF800202F4A1068A5
:101D60000278FE2A314633D05A46FFF79FFE0028FC
:101D70003FF471AF0BF5007B4FF40075C8E700F03E
:101D800065F800283FF467AF2549CAF800600A7873
:101D900042F001020A70A8E703AA00F007F9002840
:101DA0003FF45CAF386A1F4B90F82050039A4FF60F
:101DB000F871102D18BF19468A42FFF47DAF3846DE
:101DC000FFF7F8FE00283FF446AF386ABA6874E7B8
:101DD0005846FFF7F9FBB0FA80F04009C7E7019BCE
:101DE000002B7FF450AF08E00F4B7A791B6823B1CA
:101DF000019B13B142F080027A71120709D5BB79B9
:101E0000002B3FF428AF3846FFF79EFE00283FF432
:101E100022AF019805B0BDE8F08F00BFC418FF1FC6
:101E2000C81AFF1FF8FFFF0FBC18FF1FC818FF1FBD
:101E30006809FF1F00B583B002AB012203F8011D42
:101E40001946FFF7FFFE03B05DF804FB70B51A4CAE
:101E500023780BB9012070BD184D194B28681968FB
:101E60000378FE2B17D0174AFFF720FE88B1164ED5
:101E7000316819B900232370012070BD28680378E8
:101E8000FE2B0FD00F4AFFF711FE10B10023336075
:101E9000F0E7002070BD0B48FFF796FBB0FA80F02A
:101EA0004009E3E70748FFF78FFBB0FA80F04009ED
:101EB0000028EBD1EDE700BFC81AFF1FC418FF1FB1
:101EC0006809FF1FC818FF1FC018FF1F70B5124D0B
:101ED0002B6883420E4611D00446FFF7B7FF08B9BE
:101EE000002070BD0D4B18680378FE2B0CD00C4AF7
:101EF0002146FFF715FD0028F2D02C60094B197818
:101F000031431970012070BD21460548FFF7DAFA08
:101F1000B0FA80F04009EEE76809FF1FC418FF1F00
:101F2000C818FF1FC81AFF1FF8B590F82030C46901
:101F3000102B1A4B05460E4617461B6816D004EBAD
:101F4000D1149C4216D106F07F06154A42F826703D
:101F50001449287E0A78012842F001020A7018D933
:101F6000A968114A0B4413600120F8BD04EB112449
:101F70009C4208D000212046FFF7A8FF50B195F8F9
:101F80002030102B07D1F6B2054A234622F81670EE
:101F9000DEE70120F8BD2346D5E700BF6809FF1F33
:101FA000C818FF1FC81AFF1FC018FF1FC3680133DE
:101FB0008B4218D370B590F82030102B154B044687
:101FC00016460D46C0691B680FD000EBD110984231
:101FD0000FD105F07F01104B53F8213023F07043EF
:101FE0003360012070BD0020704700EB1120984243
:101FF00007D00021FFF76AFF50B194F82030102B72
:10200000E7D1E9B2044B33F811303360012070BDE1
:10201000002070BD6809FF1FC818FF1F2DE9F04F91
:10202000176883B06FB301374FF0000AC36803F13C
:10203000010813B38B46064691463C46002505E051
:102040001C461F46F3680135AB4216D9A04538BF80
:102050000224214601AA304638BF2746FFF7A6FFD3
:10206000631CD91B48B1019A002AE9D18B4510D0D5
:102070001C46F3680135AB42E8D8002003B0BDE848
:10208000F08FA1F1010ABAFA8AFA07684FEA5A1AE0
:10209000CCE7012CF1D9F36801339C42EDD86FF005
:1020A000704221463046FFF73FFF0028E5D0A742A7
:1020B00014D2013C012CE0D9F36801339C42DCD8F6
:1020C000621C21463046FFF72FFF0028D5D0A742DB
:1020D00004F1FF3402D0012CEED1CEE7D9F8001084
:1020E00059B10129C9D9F36801339942C5D83A4693
:1020F0003046FFF719FF0028BFD0C9F80070BAF1C9
:10210000000F01D0013737600120B7E710B4042970
:1021100014D8DFE801F01C1F160319004FF4102437
:1021200072B60E4B03EBC0004268136823F47023B1
:1021300043F0807121431360116062B65DF8044B77
:1021400070474FF42024EBE74FF43024E8E74FF4D6
:102150000024E5E74FF44024E2E700BFB46000004C
:102160002DE9F84FDFF834A39AF80030012B47D05F
:102170000546BF4A806AE96A032B82E8030041D022
:10218000052B3FD080468946DFF814B329E0B9FA21
:1021900089F4C4F13F04402C32D80BEBC4022B1954
:1021A000506893F83010026804F1280345F82320A2
:1021B0000B1100F0BF80022B00F00981032B00F00F
:1021C0001C810123A4F12001C4F1200203FA01F7CC
:1021D00023FA02F2174303FA04F628EA060829EA6A
:1021E00007094046494603F057F848B1B9F1000FD6
:1021F000CDD1B8FA88F42034C4F13F04402CCCD9B6
:10220000BDE8F88F9B499C4A08689C4B00F0006031
:10221000C5F88400086800F08050C5F88800086898
:1022200000F00050C5F88C00086800F08040C5F848
:102230009000096801F00041C5F894104FF0006C5F
:102240004FF0805E4FF000414FF000544FF080405F
:10225000C2F800C0C2F800E0146010601160C3F85A
:1022600000C0C3F800E01C601860196000F004FFB3
:10227000DFF830E2824C9EF8002085F89820A0F12B
:102280001103EE2B227885F8992098BFA0F1100356
:102290007C487D49027885F89A2091F800C07B4AF5
:1022A00085F89BC092F800C085F89CC094BFDBB253
:1022B00080238EF80030237003700B70137072B699
:1022C000734B7449D3F82C212A67D3F830216A67FD
:1022D000D3F83421AA67D3F83821EA67D3F83C3120
:1022E000C5F880303B2000F07BFF6A493C2000F0BD
:1022F00077FF68493D2000F073FF66493E2000F0FB
:102300006FFF64493F2000F06BFF62B6594B4FF0FE
:10231000006E4FF080544FF000504FF080414FF06E
:102320000042D5E90A89C3F800E01C601860196012
:102330001A6029E75BF8342082F880324FF480720B
:1023400002609AF80020032A01F00F013BD0052A11
:1023500039D0032B4FD0022B14BF03220222022CB0
:1023600043D0042CE3B25AD0062B5ED0072B63D0A7
:10237000092B68D00A2B74D00B2B00F095800D2B05
:1023800000F09980102B65D0152B00F0A280162B41
:1023900000F0A6801A2B00F0AA801E2B00F092807D
:1023A000212B00F0AA803B2B00F0A1803C2B00F0F9
:1023B000AB803E2B7FF405AF374B1B7843EA02120C
:1023C000354B1A70FDE6E0B2FFF7A0FEF9E65BF8C8
:1023D00034204FF0000E82F880E24FF480720260E9
:1023E000026842F003020260ABE72B4BDB781A4332
:1023F000294BDA70E5E60122B1E75BF834204FF0B3
:10240000000E82F880E24FF480720260026842F0AF
:1024100002020260026822F00102026091E71E4B94
:102420005B781A431C4B5A70CBE61B4BDB7843EAB4
:102430000212194BDA70C4E6174BDB7843EA8202CA
:10244000154BDA70BDE6144B5B7843EA8212124BEF
:102450005A70B6E6104B5B7843EA82020E4B5A7014
:10246000AFE60D4B9B781A430B4B9A70A9E600BF61
:10247000101BFF1F04E100E084E100E084E200E0C3
:102480003CE400E03DE400E03EE400E03FE400E046
:102490000004FF1F6D040000741FFF1F0402FF1FD4
:1024A000B46000003BE400E01B4B9B7843EA02125F
:1024B000194B9A7085E6184B9B7843EA8202164BBB
:1024C0009A707EE6144B9B7843EA8212124B9A7004
:1024D00077E6114BDB7843EA82120F4BDA7070E635
:1024E0000D4B5B7843EA02120B4B5A7069E60A4BBC
:1024F0001B781A43084B1A7063E6074B1B7843EAB4
:102500008212054B1A705CE6034B1B7843EA820289
:10251000014B1A7055E600BF741FFF1F2DE9F04FE5
:102520004A4B1B7883B0012B019300F08B808146CE
:10253000D0E90A67DFF820814FF0000A4FF0010B65
:1025400022E0B7FA87F3C3F13F03A3F12000C3F100
:1025500020010BFA00F52BFA01F1212B08EBC30C3B
:1025600003F1280E45EA01050BFA03F417D858F8D1
:10257000333083F880A2DCF8043059F82E1019604B
:1025800026EA040627EA05073046394602F084FEAB
:1025900028B1002FD5D1B6FA86F32033D3E7019BBB
:1025A000032B01D0052B4DD1294B99F898201A7097
:1025B00099F899205A7099F89A209A7099F89B2066
:1025C000DA7099F89C201A7172B63B20D9F8701015
:1025D00000F006FED9F874103C2000F001FED9F896
:1025E00078103D2000F0FCFDD9F87C103E2000F072
:1025F000F7FDD9F880103F2000F0F2FD62B6D9F85F
:1026000084301BB9134B4FF000621A60D9F8883040
:102610001BB9104B4FF080521A60D9F88C301BB99F
:102620000C4B4FF000521A60D9F890301BB9094B8F
:102630004FF080421A60D9F894301BB9054B4FF027
:1026400000421A6003B0BDE8F08F00BF0402FF1F14
:102650003BE400E084E100E0B46000002DE9F04FCD
:10266000AD4BAE48D3F80090C3F800900368AC4976
:10267000AC4A85B01E4601930B6803931F46AA4BD4
:1026800006600F60D2F800A0196802910846A749B9
:10269000C2F800A018600B78063B032B37D9A44B77
:1026A000DFF89482D3E900674FF0010B21E0B7FA1D
:1026B00087F3C3F13F03212B29D872B608EBC3027D
:1026C00051680A6822F0877222F4803242F08072E8
:1026D0000A6062B6A3F12001C3F120020BFA01F5F2
:1026E0002BFA02F215430BFA03F426EA040627EA52
:1026F00005073046394602F0CFFD58B1002FD6D13C
:10270000B6FA86F32033C3F13F03212BD5D905B0A8
:10271000BDE8F08F19F4805F40F09C8019F4005FF1
:1027200040F09E8019F0200F40F0A28019F4804FF5
:1027300040F09A8019F4004F40F09E8019F4803FD9
:1027400040F09E8019F4003340F09E80019AD4033B
:1027500000F19E80019B980300F19D80019BD907A9
:1027600000F19D80019B9A0700F1A180019B1B074E
:1027700000F19980019B5F0700F1C580019B5E031A
:1027800000F1BD80019B1D0300F1B580019B5C053C
:1027900000F1AD80019B180500F1A5801AF0080F2B
:1027A00040F09D801AF0100F40F095801AF0400F15
:1027B00040F08D801AF0800F40F0F8801AF0200F62
:1027C00040F0F0801AF0010F40F0E8801AF0020F9C
:1027D00040F0E0801AF0040F40F0D8801AF4807FB7
:1027E00040F0D0801AF4007F40F0C8801AF4806F67
:1027F00040F0C0801AF4006F40F0B880029BD90707
:1028000000F1B080029B1A0600F1A880029BDB0653
:1028100000F1A080029B5F0700F19880029B1E07D9
:1028200000F19080029B9D0700F18880029B9C062E
:102830006DD4029B580646D4039B59013FD4039B99
:10284000DA0138D4039B9B017FF561AF394B22221B
:102850001A605CE7374B03221A6005B0BDE8F08FC1
:10286000344B04221A6052E7324B1A221A604EE7A8
:10287000304B19221A604AE72E4B1B221A6046E79A
:102880002C4B1C221A6042E72A4B27221A603EE793
:10289000284A13603BE7274B01221A6037E7254B94
:1028A00010221A6033E7234B12221A602FE7214BC4
:1028B00011221A602BE71F4B21221A6027E71D4BBC
:1028C00018221A6023E71B4B15221A601FE7194BC9
:1028D0000B221A601BE7174B0A221A6017E7154BE9
:1028E00009221A6013E7134B20221A600FE7114BDD
:1028F0001F221A600BE70F4B1E221A6007E70D4BD1
:102900001D221A6003E70B4B13221A60FFE6094BE6
:1029100014221A60FBE600BFA0900440A0A004406F
:10292000A0D00440A0B00440A0C004400402FF1F97
:10293000101BFF1F0002FF1FB46000001D4B0E2282
:102940001A60E4E61B4B08221A60E0E6194B0722E6
:102950001A60DCE6174B06221A60D8E6154B0522F2
:102960001A60D4E6134B02221A60D0E6114B2622DD
:102970001A60CCE60F4B25221A60C8E60D4B2422C4
:102980001A60C4E60B4B23221A60C0E6094B1722DB
:102990001A60BCE6074B16221A60B8E6054B0F22F8
:1029A0001A60B4E6034B0D221A60B0E6014B0C220C
:1029B0001A60ACE60002FF1FFFF750BE704700BF71
:1029C000F8B52C4D2B78012B29D0032B04462BD0A6
:1029D000052B29D02848618D284A01801068C0073E
:1029E0001ED4106840F0010010602548254A056893
:1029F000E5621668244D26632E6866630027052667
:102A0000032B2F60066011602BD0B34229D01F4AE0
:102A1000137A43F0010313721B4BC1221A60F8BDF5
:102A2000012284F83820E0E7194B1B7884F827301E
:102A300000F022FBA0F11103EE2B98BF1038144BCD
:102A400094BFC0B28020187072B6124A124BD2F8EE
:102A5000282112491A603A2000F0C2FB62B62B7896
:102A6000B8E70F4B00214FF08062186884F82810F7
:102A70001A60D1E70402FF1F181BFF1F38800440B3
:102A8000040004400800044000000440741FFF1FBD
:102A90003AE400E00004FF1F1C1BFF1F6D04000050
:102AA00004E100E01D4B1E4A1B780021012B116040
:102AB00032D0032B10B504461BD0052B19D0194B6F
:102AC000E26A1A60226B5A60154A94F83930616BD9
:102AD00011602BB902F51432137803F07F031370E1
:102AE00094F8383023B9104A136823F001031360B7
:102AF00010BD94F828301BB90C4B4FF080621A605F
:102B00000B4B94F827201A7072B60A4B3A201968BA
:102B100000F066FB62B6D2E7704700BF0402FF1FF9
:102B200000000440040004403880044084E100E0D8
:102B30003AE400E01C1BFF1F0C4A0D4B0D491B889B
:102B40000D4810B4146814FA83F313600B788024D2
:102B5000032B046004D0052B02D05DF8044B7047B2
:102B6000064B5DF8044B24221A607047241BFF1F9C
:102B7000181BFF1F0402FF1F000004400002FF1F7C
:102B8000034B1B68DB0700D47047FFF7D5BF00BFBE
:102B90003880044010B4047F4160022CC26003D02E
:102BA0005DF8044B01F048BF83685DF8044B18479B
:102BB000F0B4464B464A986B5C6B017911704549FD
:102BC00022790A701A6B00790870002A46D0596879
:102BD000C9688A423ED82168CC8B240402F1FF30B8
:102BE00065D4C0F30E00C883C88B80B2C882996BCD
:102BF0000968C88B000452D4C2F30E00C883C88B86
:102C0000002480B212F1FF32C88218BF01221C6377
:102C1000596B2E4809680D6800F12C04A54236D086
:102C20000068C46814F0804F0C680D6815BF2488D4
:102C300024780235013544F000440D604463996BFB
:102C4000254B09791970214912B14A6B12791A7012
:102C5000F0BC7047521A1A630122D9E7D86B196881
:102C600005681E4C0A63CC62CC682D681C4E24F0AB
:102C700080440327B542CC6083F82D701FD1037FB9
:102C80004260022BC2601ED0F0BC01F0D5BE0168CC
:102C900090F82C00CC6840F000404863CFE7CC8B24
:102CA000C2F3080004F47E442043C883A7E7CC8B1A
:102CB000C0F3080004F47E442043C88394E72B4605
:102CC0001146F0BC18478368F0BC18476C09FF1F19
:102CD0001F8000401C8000401B80004000000FFF50
:102CE000952B000090F8392090F83800101A7047A2
:102CF00090F8383090F839209A4286BF1B18187E19
:102D00004FF0FF30704700BF704700BF38B5054631
:102D1000B0F85E0090B195F85D301446C3F1210221
:102D200094420CD805F13B001844224600F0CAF842
:102D300095F85D30234485F85D30204638BD01208C
:102D400014462871EEE700BFB0F85E306BB190F822
:102D50005D30202B07D8C218013380F85D30012088
:102D600082F83B107047012303710020704700BFB9
:102D700038B50269D478E4B2E106054624D51023BB
:102D8000D37063061FD504F0040404F0FF03002C85
:102D90005AD042496A6E00230B7085F85D30002AD4
:102DA00066D0904795F85D30002B61D02B69D0221A
:102DB0009A702B6995F83B201A712B69012285F8CE
:102DC0005C200222DA7038BD04F0400303F0FF00FB
:102DD000002BD8D19379DBB203F0600160294ED08B
:102DE000937803F0100303F0FF01B3B114F0010472
:102DF00037D195F85C3095F85D1099424BD9591C44
:102E00002B4485F85C1093F83B3013712B69D0226A
:102E10009A702B690222DA70D5E785F860109379F1
:102E200043F0200393712B6995F839101A791F2903
:102E3000D2B2C6D8194800780028C2D0681801312B
:102E400085F839100276BCE72A6985F83930C02345
:102E500093702B69114A1979012111700222DA70DD
:102E6000B1E7C02393702B691A790222DA70AAE7BE
:102E70000122002385F85D2085F83B3096E703F0BA
:102E8000DF039371AB6E23B185F8380095F83900F4
:102E900098472A69A4E71471B8E700BF201BFF1FF9
:102EA0000148FFF765BF00BF180AFF1F0148FFF781
:102EB0005FBF00BF840AFF1F0148FFF759BF00BF73
:102EC000AC09FF1F844641EA000313F003036DD1F0
:102ED000403A41D351F8043B40F8043B51F8043BDD
:102EE00040F8043B51F8043B40F8043B51F8043BE4
:102EF00040F8043B51F8043B40F8043B51F8043BD4
:102F000040F8043B51F8043B40F8043B51F8043BC3
:102F100040F8043B51F8043B40F8043B51F8043BB3
:102F200040F8043B51F8043B40F8043B51F8043BA3
:102F300040F8043B51F8043B40F8043B51F8043B93
:102F400040F8043B51F8043B40F8043B51F8043B83
:102F500040F8043B403ABDD2303211D351F8043B23
:102F600040F8043B51F8043B40F8043B51F8043B63
:102F700040F8043B51F8043B40F8043B103AEDD2D2
:102F80000C3205D351F8043B40F8043B043AF9D223
:102F9000043208D0D2071CBF11F8013B00F8013BF6
:102FA00001D30B8803806046704700BF082A13D303
:102FB0008B078DD010F003038AD0C3F10403D21A1B
:102FC000DB071CBF11F8013B00F8013B80D331F84F
:102FD000023B20F8023B7BE7043AD9D3013A11F8CF
:102FE000013B00F8013BF9D20B7803704B7843703A
:102FF0008B7883706046704708B5104C08E02368F2
:1030000059050DD423681A050FD42368DB0411D4A5
:1030100023685803F3D501F003F823685905F1D567
:1030200000F0CAFB23681A05EFD501F067FF23689B
:10303000DB04EDD501F0F8FFEAE700BF348004407F
:1030400008B5FFF7D9FF00BF704700BF094908B5B1
:103050000B6830B16A461844A2F50052904202D281
:103060000860184608BD02F049F90C2303604FF0D0
:10307000FF3008BDF00AFF1FEFF3138070B9EFF3C4
:1030800010836BB9EFF305825AB94FF48070EFF3F8
:1030900011832BB1984228BF184670474FF0FF307C
:1030A00070470F2A01D81846F1E7014BD05CEEE7D4
:1030B000F0E300E0084A1378802B01D0002070472D
:1030C0000649074B07480860002119701378802BC8
:1030D000FCD00120704700BF03E00740448004405B
:1030E00001E0074000002822094A1378012B01D093
:1030F0000020704703F1804303F5FC236021197021
:103100001378802BFCD1034B034A1A6001207047CF
:1031100003E00740448004400000060210B4114B55
:1031200053F8302092F8804234B1012379B182F80B
:1031300080305DF8044B704703EBC0035B681A688E
:1031400051B922F002021A605DF8044B704782F810
:1031500000315DF8044B704742F003021A605DF8DD
:10316000044B7047B46000001C4A02EBC003012905
:103170005B6811D004291BD052F83000002280F87F
:10318000802229B1022920D0032922D01A60704759
:103190004FF480721A60704752F830004FF4A272F8
:1031A00080F880121A601A6822F020021A607047B4
:1031B00052F830104FF4A272012081F880021A6098
:1031C0001A6842F020021A60704740F203121A6037
:1031D00070474FF481721A60704700BFB4600000FE
:1031E0001030024B43F82010704700BF0004FF1F4F
:1031F00030B4054B054D064C002210211A602A60A0
:103200002060196030BC704714D0034004D00340E4
:1032100000D0034038B5A0F14203012B044624D965
:1032200000297ADD994B1B78012505FA03F28A42C1
:1032300002D83F282CD938BDC21E012A30D9A0F1AE
:103240001D02012A78D90E285BD9A4F12302032A92
:103250005CD9A4F11002012A94BF8D4A8D4A1268EC
:1032600002FB011222FA03F320E0884B1B780B2BA0
:103270000AD90C2B1CBF0C3B1941422C084657D0D5
:10328000BDE8384001F0E6BDC3F10C039940F4E716
:103290002946FFF743FF2946BDE83840FFF764BFE2
:1032A0007D4A126802FB011222FA03F3A21E242AAD
:1032B00000F2E380DFE812F0DA00D300CC00C500B2
:1032C000BE00B700B000A900A200E100E100E100EB
:1032D0009B00E10094008D00E100E10086007F008A
:1032E00078007100E100E100E100E100E1006A0026
:1032F0006300E100E100E100E1005C0055004E00E8
:10330000470044F28412C240D2079ED5634A126835
:1033100002FB011222FA03F3C8E73F288BD80021F1
:10332000FFF7FCFE20460121BDE83840FFF71CBF37
:10333000BDE8384001F070BD594A126802FB011225
:1033400022FA03F3B2E75749574A0B604FF451731F
:10335000136038BD5549564A0B604FF451731360E2
:1033600038BD5449544A0B604FF45173136038BD53
:103370005249534A0B604FF45173136038BD5149A1
:10338000514A0B604FF45173136038BD4F49504A96
:103390000B604FF45173136038BD4E494E4A0B60B9
:1033A00040F24443136038BD4C494D4A0B6040F233
:1033B0004443136038BD4B494B4A0B6040F24443D1
:1033C000136038BD49494A4A0B6040F244431360D8
:1033D00038BD4849484A0B6040F24463136038BD29
:1033E0004649474A0B6040F24463136038BD454983
:1033F000454A0B6040F24443136038BD4349444A98
:103400000B6040F24443136038BD4249424A0B60AE
:1034100040F24443136038BD4049414A0B6040F2DA
:103420004443136038BD3F493F4A0B6040F2444378
:10343000136038BD3D493E4A0B6040F2444313607F
:1034400038BD3C493C4A0B6040F24443136038BDF0
:103450003A493B4A0B604FF45173136038BD394908
:10346000394A0B604FF45173136038BD3749384AFD
:103470000B6040F24443136038BD3F2C3FF6DBAE97
:103480007F29D4BF00210121204649E7F40AFF1F0C
:1034900008900C40088003400890034008900B40BF
:1034A00008800B4048900B402CB0044040900B40EB
:1034B00028B0044038900B4024B0044030900B40BA
:1034C00020B0044018800B404CA0044010800B40FA
:1034D00048A004401880034008B004401080034016
:1034E00004B004404080034018C0044038800340CA
:1034F00014C0044018900C4004A0044010900C40EC
:1035000000A0044018900B4004C0044028800340F1
:1035100010B00440208003400CB0044028900B40C1
:103520000CC0044020900B4008C004403080034091
:1035300010C00440488003401CC004401890034061
:1035400034900440109003403090044010900B40A1
:1035500000C004403F2801D8FFF7E0BD704700BF1E
:103560003F2806D8044B53F8303093F80002C0B21D
:1035700070470020704700BFB46000003F2801D8AA
:10358000FFF7F2BD704700BF2DE9F843054672B65C
:10359000224F234B234A1B683C68126862B65201D3
:1035A00002D5322B88BF0134B5B3C3F52F3303F2F4
:1035B0001F331D4EDFF86890DFF868809B084FF4DA
:1035C0007A72A6FB031302FB04F404EB930472B6B5
:1035D000D9F800103A68D8F800E062B6C1F52F3388
:1035E00003F21F339B08A6FB03031EF0806FC4EB9E
:1035F00093034FF47A7002D0322988BF013200FB66
:103600000233B3F57A7F04D3013D05D004F57A7413
:10361000DDE701F02FFBDAE7BDE8F883241BFF1F8D
:1036200018E000E004ED00E0176CC116F8B54E4B51
:103630004E48DFF85CC14E4C4E49DFF858E14E4E23
:103640004E4D4F4F4FF000621A604FF080521A609B
:103650004FF000521A604FF080421A604FF0004263
:103660001A600022026028234EF6FF70CCF800009A
:10367000CEF8003023600EF5012E0B6033602B6016
:1036800006F500263B6005F50025A36207F5002737
:103690008B6204F5012401F5012106F6E87605F6B2
:1036A000E87507F57F6710310EF1100E2034336096
:1036B0002B60CEF800303B600B602360314CBB6167
:1036C0008B6109212160A7F5002704F58054203F74
:1036D00008343A602060BB60E36047F8041C04F5DE
:1036E000FD2407F5FE27043704F2FC7422603860DD
:1036F000A360FB6044F8041C083404F6FC74C7F8AB
:10370000FC2F2060A4F5E124A4F2DC7433602B606C
:10371000C7F8F81F21681C4841F400712160016856
:103720001A4C0EF57F4E0EF1E80E07F5883706F5B8
:10373000803605F5803541F000710160CEF800203B
:1037400047F6FF710822396033602B60226001F078
:10375000F3FA3220FFF718FF01F08EF84FF4AF7044
:10376000BDE8F840FFF710BF04E100E0048003402B
:10377000148003401C800340248003402C800340BD
:1037800034800340008003400480044000900C40DB
:10379000088003400C800340054A064B10781B78D4
:1037A000C0B2DBB2984238BF4030C01A704700BF89
:1037B0002C1BFF1F2D1BFF1FF0B4384B1A7912F082
:1037C000300F2CD072B6997D01F0FF0200293DD058
:1037D00062B6334F334938780D78334E1C46C0B249
:1037E000EDB2431C402BE17928BF0023AB4202F12C
:1037F000FF32C9B21CBFF154184612F0FF02F0D1DB
:103800002A4B1B68C2B23A704BB1A84236BFC5F111
:103810004005401B40192728C4BF01221A701F49C8
:10382000CA78D2B2150616D452060DD51B4B1B7999
:103830005B0609D51E4B1F491B6800220A7003B1A5
:103840001A70164B3C22DA70F0BC70474022D979CE
:103850005A7462B6E3E70B791C06E5D5164B174E92
:103860001C783378E4B2DBB29C420ED0144D01E0F8
:10387000A3420AD00133402B28BF00230879E85C1B
:10388000C0B2C871087D0728F2D9DBB20349337092
:103890000B79180644BF7C23CB70C5E700A0064017
:1038A0002C1BFF1F2D1BFF1F701BFF1F281BFF1F43
:1038B000B41BFF1FB01BFF1FB81BFF1FB11BFF1F57
:1038C000301BFF1F054A064B10781B78C0B2DBB2D5
:1038D000984238BF4030C01A704700BFC01BFF1F5E
:1038E000C11BFF1F30B42B4B1A7994061FD52A48F1
:1038F000DA790378294901333F2B0978C8BF0023BF
:103900008B42D2B203D0264CD9B2E2540170254A80
:10391000116861B1244A1278D2B2934236BFC2F123
:1039200040029B1A9B18272BC4BF01230B70194A16
:10393000D378DBB2180611D45A060DD5154B1B7976
:103940005B0609D5194B1A491B6800220A7003B19E
:103950001A70104B2C22DA7030BC704711790906AE
:10396000EAD5144910480C780178C9B28C420DD0C0
:103970004A1C272A84BF00210A460F4D054C98BFD8
:10398000D1B2AA5CD2B2E2710170D5E76C21D170DC
:10399000D2E700BF00D00640C01BFF1FC11BFF1FA6
:1039A000EC1BFF1FBC1BFF1F2D1CFF1F301CFF1F2C
:1039B0002C1CFF1F341CFF1FC41BFF1F2DE9F84FD9
:1039C000214B1B6807460BB101221A70DFF8889063
:1039D0001E4D99F80040DFF884801D4E0134272CDD
:1039E0008ABF4FF0000A5FFA84FA5446AB462B7840
:1039F000A34216D1FFF740FB40281FDC33791B069A
:103A0000F5D59BF800300133272B86BF00221346E3
:103A1000DAB218F80330DBB2F3712A702B78A342C4
:103A2000E8D00C490A4BFFB208F804700120AC2220
:103A3000087089F800A0DA70BDE8F88FFF28D6DD9D
:103A400001F018F9D3E700BFAC1CFF1FA91CFF1F32
:103A500000A00E40A81CFF1FB01CFF1F401CFF1F32
:103A60001B4BDFF890C01A681A49F0B542F4806227
:103A7000194D1A60DFF880E0184F194E194C0023D9
:103A80008CF800304FF451722B701F2840F2133520
:103A90008EF800303B70337025600A6011D81946EB
:103AA0000124114A114D11701148547000212C2726
:103AB00040269372042491701174D7702E700460A4
:103AC000F0BDC0F34431C0F3471400F01F03E8E732
:103AD0002880044060D004403D1CFF1FA91CFF1F2C
:103AE000A81CFF1F64D0044000A00E4042E400E088
:103AF00008E100E03C1CFF1FB01CFF1F194B1949D7
:103B00009B7803F0EC0200F003031343420700F03C
:103B10000F0248BF43F01003042A8B701CD0114BD6
:103B2000104A5B79C10603F0EF0348BF43F010036E
:103B300053719379820603F0EF030A4A48BF43F0BA
:103B400010039371C30506D553781178DBB241F0A9
:103B500020011170537070478B7943F040038B71D3
:103B6000DDE700BF00A00E40F8B5114B1B685B05F8
:103B70001CD5104C237823B101F07CF82378002B5E
:103B8000FAD10D4B0D4F0E4E0E4D0F4C0F481049F4
:103B900004221A600023FB7040F2031232602A6094
:103BA000226803700B7012B101231370F8BDF8BDC9
:103BB00028800440A81CFF1F88E100E000A00E4000
:103BC00064D0044060D00440381CFF1F3C1CFF1F21
:103BD0003D1CFF1F0A4A38B50546137803F0FF0461
:103BE000002BFAD101212846FFF7C8FC21462846C0
:103BF000FFF7B0FC034A044B52F835201A6038BD79
:103C0000A81CFF1FB4600000AC1CFF1F09B140F0EE
:103C10008000104A137898421AD010B40E4C2468D1
:103C2000640512D503F07F03212B02D10B4B002436
:103C30001C60002900F07F0314BF60214421212B68
:103C400003D1064B41F44071196010705DF8044BCC
:103C5000704700BFF50AFF1F2880044060D0044071
:103C6000704700BF0D4B1B6813F4806305D03F28DD
:103C700005D90B4B00201860704718467047094B58
:103C800010B5074C53F8303023600121FFF776FC64
:103C9000236800221A70012010BD00BF2880044054
:103CA000381CFF1FB46000000C4B1B6813F48063CA
:103CB00006D0182806D00A4A537B03F0FE0353733C
:103CC00000207047074B064A40F202311960537BCF
:103CD00043F0010353730120704700BF2880044064
:103CE00000A00E4068D00440034B1B685B0501D563
:103CF000FFF764BE704700BF2880044070B5094ECE
:103D000004464518AC4204F101040AD033685B054F
:103D1000F8D514F8010CFFF751FEAC4204F1010490
:103D2000F4D170BD2880044010B5044C237823B131
:103D300000F0A0FF2378002BFAD110BDA81CFF1FB4
:103D4000064A074B1B781078DBB2C0B283422CBF07
:103D5000273000F1FF30C01A704700BFA91CFF1FB9
:103D6000B01CFF1F054A064B10781B78C0B2DBB2AF
:103D7000984238BF4030C01A704700BF3C1CFF1F3C
:103D80003D1CFF1F30B4154B154C1A782378D2B266
:103D9000DBB29A421ED001333F2B0ED91149124B90
:103DA000087819680023C0B2237021B1D31A1A2BE6
:103DB00001DC00230B7030BC70470A480A49C05C24
:103DC0000968DDB2C0B225700029F4D09A4238BF2C
:103DD0004032EBE74FF0FF30EDE700BF3C1CFF1F28
:103DE0003D1CFF1F681CFF1F381CFF1F084A094BA2
:103DF00012781B78DBB29A4207D00133402B28BFE0
:103E00000023054AD05CC0B270474FF0FF307047C6
:103E10003C1CFF1F3D1CFF1F681CFF1F054B064A73
:103E20001B7806491268DBB20B700AB100231370CD
:103E3000704700BF3D1CFF1F381CFF1F3C1CFF1FAD
:103E400030B42B4B1A7994061FD52A48DA790378B7
:103E5000294901333F2B0978C8BF00238B42D2B2D6
:103E600003D0264CD9B2E2540170254A116861B1E1
:103E7000244A1278D2B2934236BFC2F140029B1A52
:103E80009B18272BC4BF01230B70194AD378DBB2D0
:103E9000180611D45A060DD5154B1B795B0609D5AA
:103EA000194B1A491B6800220A7003B11A70104B93
:103EB0002C22DA7030BC704711790906EAD5144912
:103EC00010480C780178C9B28C420DD04A1C272AC0
:103ED00084BF00210A460F4D054C98BFD1B2AA5CA1
:103EE000D2B2E2710170D5E76C21D170D2E700BF88
:103EF00000A00E403C1CFF1F3D1CFF1F681CFF1F45
:103F0000381CFF1FA91CFF1FAC1CFF1FA81CFF1F94
:103F1000B01CFF1F401CFF1FF0B472B61A491B4EA5
:103F2000012311F8014B194F9A00240742F00105B3
:103F300005D556F8324064B156F83520BAB1013390
:103F4000052BEED162B6124B00221A70F0BC00F0C5
:103F50001BBD0F4C0F4D217847F8325007EB431330
:103F600008304A1E5860227062B6F0BC704708499B
:103F7000094B0A7847F8353007EBC5030830013A9A
:103F800058600A7062B6F0E7B86200000000FF1FD8
:103F9000891DFF1F88004000C8004000431E032BFE
:103FA0001DD81B4A400140F0100030B4104472B6D6
:103FB000184CE25C032A1BD8DFE802F00212151746
:103FC00003220D88E25410F0080F14BFC823882381
:103FD00043EA054308310360416062B630BC704774
:103FE00008300222EDE70522EBE708300422E8E77B
:103FF000094A52F8230038B1084A52F823004160B8
:1040000042F8231062B6E9E742F82310034AF7E7C3
:104010000000FF1F981DFF1F601DFF1F701DFF1F69
:104020002DE9F04FDFF804A3DFF804B387B044E0D4
:10403000A94F4FEA930807EBC809013ED9F80420BD
:1040400003F00803F6B2A2F1080003F0FF04002B0E
:1040500040F0FE8057F838301B0C99B222F8081C4B
:10406000002B00F0EC809D4B22F8064C42F8044CEB
:1040700053F82620002A00F02B82994D55F826305F
:104080005860984C45F8260034F81630194424F846
:10409000161000F059FC002800F01382924A934B4E
:1040A00019F0080F00F1080018BF1346C9F8040002
:1040B00047F8383008238AF800309AF80040E4B214
:1040C00060071AD58A4B1B78A3B18A490A7802F097
:1040D000FF0322B1013BDBB20B7003B900BE86497E
:1040E0000A7802F0FF032AB1013BDBB20B70002B10
:1040F00000F0BD8104238AF8003004F0080303F0C7
:10410000FF02002B00F0C8809BF80030DBB21E09D4
:104110008ED19C08704F57F8342007EBC401C2F3CE
:104120008302013A49680C2A00F28580DFE802F038
:104130007979838383838383428383830700086839
:104140006E4B6F4D0193684B4A686E4E47F83430A2
:1041500081B240F28164694B6A60286000220120CC
:10416000A1421A603A61BA61307000F2E380B1F5A1
:10417000D06F80F02782B1F5817F00F0E08100F2FE
:10418000C381802900F03682822940F0DE81A9882F
:104190005D4B01F07F01042900F2D8815B4C89005E
:1041A0000B44227062701A78930740F122832070CA
:1041B000022023E2514B01931A683AB3544B514EFB
:1041C0005449188834780D784028864645F002080E
:1041D00028BF4FF0400E002C84F001043470CEEB69
:1041E00000000CBF8824C82407EBC80680B285F005
:1041F000010544EA0E447260188047F83840724462
:104200000D70002800F0B780019B1A603C4B1A88A3
:10421000B2F5A06F0FD100219A7859703E4B1A70F9
:1042200009E0374A108842F22102904200F0A8804B
:104230002D4A47F83420394A012313703AE72A4AB5
:104240002A4B19F0080F18BF134647F8383031E7EA
:1042500000F09AFB324A334952F82630002B00F026
:104260003B8158688C5D42F8260003F10802C9F8CA
:104270000420032C05D8DFE804F02C0229260222B2
:104280008A551A8819F0080F0CBF8823C82343EAFF
:10429000024347F838300DE7E00700F1EB802106D4
:1042A00000F12881A20706D51F4A20491378022071
:1042B000DBB213700870E30602D51C4B10221A7093
:1042C00007B0BDE8F08F04228A55DAE705228A5547
:1042D000D7E703228A55D4E70000FF1F0C1DFF1FFC
:1042E000B81CFF1F881FFF1FC80040008800400047
:1042F000941DFF1F1D1DFF1F9C1DFF1FB41CFF1FD2
:10430000801DFF1F1C1DFF1FC02007408C1DFF1FAD
:10431000C81CFF1F881DFF1F9820074094200740DE
:10432000601DFF1F981DFF1F882007408020074049
:104330009020074042F22104A14200F0948043D82B
:10434000B1F5086F00F0A881B1F5106F40F0FD8065
:10435000B84AB94CA978117004F1800503E008341B
:10436000AC4200F09E81236A1906F8D5606A0838CD
:1043700000F00AFBF3E7BEF1400F18BF002243E74D
:10438000AE4ACD1D11F8013B02F8013FA942F9D117
:10439000AB4A1268862A00F01181AA49AA4E0A780F
:1043A000307882F00105002842F002020D700CBF47
:1043B0008821C82147F8321007EBC20280F00100C3
:1043C00000213070516033E742F22124A14240F0D5
:1043D000FE81DFF8BCC29D4B9D49AC78DCF80050F3
:1043E0001D6081460C700020029080468446044681
:1043F00094490D7845F0020E07EBCE03B9F1000F9A
:104400005C600CBF8824C82444EA080385F00104DA
:1044100047F83E3032700C70DFF81CE28A4BDFF850
:104420002482002840F09880BCF1400F1BD144F05A
:10443000020407EBC403029FDFF8FCE15F60002A7F
:1044400040F09F80020442F0880207444EF8342076
:1044500086F800900D703B46402804D100207D4A2C
:10446000019910800B607C4A01231370E3E600F091
:10447000BFFA3FE6704B784872491A614FF0020E5E
:1044800080F800E0754F0A70754919609960754EA3
:10449000754D764C9A610D213970FF213170DFF82E
:1044A000F4E129702270724D724A8EF800109F2735
:1044B000012406F8047C5D600470DA6007B0BDE892
:1044C000F08F6D4A47F83800137801331370F1E527
:1044D00043F82600694DD4E58B5D032B67D801A214
:1044E00052F823F0B5400000B54000003945000007
:1044F0003345000059495C4B80220D2008701A702A
:10450000A2077FF5D8AECFE640F20232914240F0EA
:104510005681A98801F07F01042916D86A88A2B9BA
:104520004E4C89000C448146217841F002012170F3
:1045300059E701238B55BDE500238B55BAE5A988C2
:1045400001F07F01042940F24781444B0F221A7089
:10455000414A012313706EE640287FF668AF44F0AD
:1045600002040EEBC401029E4E60AAB1444A83F8D5
:1045700000903346403888F8005040334EF83420DD
:104580006DE70204029B86F8009042F0C8020D70AD
:1045900003444EF834205FE783F80090029B304AD2
:1045A00088F80050403840334EF8342057E719F06F
:1045B000080F0CBF022303238B557BE5314A0F21E3
:1045C0001170EAE6304A5468002CBED06888B5F80D
:1045D00004E003E00C325468002CB6D01388834208
:1045E000F8D153887345F5D1000A03280CBF207811
:1045F000108903E0254C022022706270EA88824212
:1046000080F00C810F490D78402A45F0020E944647
:1046100007EBCE0028BF4FF0400C04EB0C034460C6
:104620000293CCEB02004FEA0C484FF00109002244
:10463000C824E9E6941DFF1F0000FF1F8F1FFF1F06
:10464000901FFF1F881DFF1F1C1DFF1F981FFF1FAE
:10465000A81DFF1FC81CFF1F94200740C020074053
:1046600088004000882007408020074098200740AD
:10467000CC1CFF1F201DFF1F891DFF1FB81CFF1F23
:10468000C80040001D1DFF1FBC6200008C1DFF1FE5
:10469000241BFF1F8C200740684A694C1278227047
:1046A000ACE76849684B694A02916949694C6A4DAF
:1046B000039405964FF0000988461C46164604955B
:1046C000206828B1456800F05FF92846002DF9D12F
:1046D00000232360049B30681A46002342F82930E7
:1046E00028B1456800F050F92846002DF9D1002284
:1046F0003260029A98F800301146002241F8042BEB
:10470000039A0291023B4FF0000122F81910032B8B
:1047100007D8DFE803F0340234024FF0010388F8D1
:10472000003009F10109B9F1040F04F1040406F1A4
:10473000040608F10108C3D1484B059EDFF830910B
:10474000DFF8308100211970012518F8013B09F8C4
:10475000043B1A0718D4AC0044F0020244F00304EE
:10476000002347F8323047F834303D4B994505F186
:104770000105EAD196F8009089F0010233E64FF086
:10478000000388F80030CCE700F0DEF8AC0007EB5F
:10479000451300F10802002837D05A60314B47F822
:1047A000343000F0D1F844F0010307EBC30200F10C
:1047B000080100B351602C4A47F83320CCE7B1F52B
:1047C000A06F7FF4C2AE00224FF001090BE642F267
:1047D00021329142F7D0B8E66A88002A7FF4B5AE5C
:1047E000224C89000C448146217821F0020121707D
:1047F000F9E5022002E7194B44F001021B7847F863
:104800003200164A01331370A6E7144B134A1B7883
:10481000AC00013347F834001370C2E740288446E7
:1048200028BF4FF0400C04EB0C03CCEB00004FEA28
:104830000C48029300224FF00109D9E5941DFF1F97
:104840008C1DFF1F701DFF1F0C1DFF1F601DFF1F14
:10485000981DFF1F881FFF1FB81CFF1F891DFF1F0A
:10486000D420074088004000C8004000C020074016
:10487000C4200740B86200002DE9F041274C00F049
:10488000C1FC002204F1880023461A605A600833F4
:1048900083424FF00001F8D12148224A0368DFF833
:1048A0009CE0214E214D224FDFF894C0DFF8948028
:1048B00043F480230360136843F0407313600323C1
:1048C0008EF80030A023337002F5C922C4F3072309
:1048D00000F528302B708030C4F3074310323B7052
:1048E000240EFF230470134D8CF80030124888F812
:1048F00000301370012306F8AC3C4FF400140EF89E
:10490000441C7026102107F82C3C2E70046082F89D
:10491000F810AEF1440EBDE8F08100BF0000FF1FAB
:104920003480044000D80040402107409C200740CC
:10493000B020074035E400E004E100E044210740F6
:10494000802007408820074072B60D480268B2FAFE
:1049500082F30B2B10DC4FF00041D94022EA010218
:10496000026062B6074803EBC303DB00C2180021F4
:10497000C15010465160704762B60020704700BFBA
:10498000F80AFF1FD005FF1F0D4B0E4AC31AA2FBEA
:1049900003231B090B2B0CD80B4A127852B972B6A1
:1049A0000A484FF00041026821FA03F31A430260FB
:1049B00062B67047064A1278002AF0D0FFF7ACBA08
:1049C000D005FF1F398EE338891DFF1FF80AFF1F2E
:1049D000941DFF1F044B054A1B6890881BB11A8861
:1049E0005B88D31A18447047A41DFF1F881FFF1F40
:1049F00038B50E4B1B7873B90D4C216861B103F0CB
:104A0000FF054B880B800420FFF7C8FA256038BDEE
:104A1000084B01221A7038BDFFF796FF0028F7D027
:104A20000146BDE838400420FFF7B8BA9D1DFF1FBE
:104A3000A01DFF1F9C1DFF1F10B4EFF3108272B664
:104A4000437F33B9017F012908D0032910D0012306
:104A5000437702B962B65DF8044B7047114C216888
:104A6000A1B1114943610B68836108605861EEE7A9
:104A70000E4C216881B10E4943610B688361086067
:104A800058610C4B4FF080511960E0E7064B4161D3
:104A9000816120601860DAE7054B41618161206027
:104AA0001860EEE7BC1DFF1FB81DFF1FAC1DFF1FE8
:104AB000B01DFF1F04ED00E070B5EFF3108272B679
:104AC0000C4C206880B10C4E00254369236073B103
:104AD0009D6102B962B6457783689847EFF310820B
:104AE00072B620680028F0D102B962B670BD33609A
:104AF000EFE700BFAC1DFF1FB01DFF1FFFF7DCBFBE
:104B0000184A30B41468002C27D0036821688B42FF
:104B10000ED2CB1A00218460C1602360E060106077
:104B20000223037530BC704711688B42144608D3CA
:104B3000A2685B1A0360002AF6D18260C460A0609C
:104B4000EEE7D268C2608460E060C568CB1A0222DA
:104B5000A8602360027530BC70478460C460106038
:104B6000DEE700BFB41DFF1FF8B5224E34682CB33A
:104B70002368002B3AD1204F1D4604E03468ECB185
:104B80002368002B32D1A36803B1DD602069336054
:104B9000036825751B68BB4221D1037F4560022B4A
:104BA000C46020D0FFF748FF6368002BE6D0236085
:104BB0002046FFF7A5FF3468002CE1D1EFF3108306
:104BC00072B60E4A00211068116003B962B628B1AE
:104BD0008468FFF795FF20460028F9D1F8BD2246EA
:104BE00000219847E0E783689847DDE7013B2360B1
:104BF000E4E700BFB41DFF1F952B0000C41DFF1F7D
:104C0000024A136801331360FFF7AEBF241BFF1F76
:104C1000704700BF704700BF08B5FBF7A3FFFBF765
:104C200081FF00F027F8FAE7F8B572B106460F46A3
:104C300014460025336817F8011B1B683046984757
:104C4000013C0544F6D12846F8BD1546FBE700BFF8
:104C500000B5064A036812885B6883B001A9ADF805
:104C600004200222984703B05DF804FBB462000000
:104C7000704700BF38B52C4C237803B138BD0123F1
:104C80002370FFF7A7FE002842D1FEF785FD00281C
:104C90003BD100F023F9002834D100F0B5F970BB06
:104CA000FEF710FE40BBFFF75DF810BB00F028FADE
:104CB000E0B900232370EFF30583002BDED1EFF37F
:104CC000108172B6194B186828B3194C227812BBA0
:104CD00045691D60012323700DB3AA6101B962B655
:104CE00000254577836898472570C7E700F0D2FA1A
:104CF000DFE7FFF78FFFD9E7FFF78AFFD3E700F081
:104D0000C7FACDE700F0C2FAC7E700F0BDFAC0E786
:104D1000FFF7AEFFB9E70029B0D162B638BD054B49
:104D20001D600029DCD1DAE7C81DFF1FBC1DFF1F75
:104D3000C01DFF1FB81DFF1F30B42948294A2A4B48
:104D40002A4D6024E121047011701B78284C082B37
:104D500030D00A2B2748284937D00C2B0CBF3522DE
:104D60005D2212232A60236002600B60234B2449DA
:104D70001B78244ABBB101230B601360224B2349EB
:104D80001B78234A012B26D9042B0FD9082B1ED9B7
:104D9000102B94BF862387230B6013601D4B0122C9
:104DA0001A7030BC70470B601360E7E784230B6018
:104DB0001360F3E700F58E200F49083021221323FA
:104DC0002A60236002600B60D0E73922F7E7852371
:104DD0000B601360E2E780230B601360DEE700BF27
:104DE00000400740014007400C0BFF1F08B0034084
:104DF0000CB0034008B00B400CB00B40CA1DFF1FA5
:104E000020B0034020B00B400D0BFF1F24B0034027
:104E100024B00B40C91DFF1F0A4A0B49136843F415
:104E2000805313600B7843B1084B80221A7080F3D3
:104E30000C00074B00B218807047044BC0221A7058
:104E4000F5E700BF2C800440CA1DFF1F21C00C40A5
:104E500000C00C400A4A0B49136843F40053136026
:104E60000B7843B1084B80221A7080F30C00074B7B
:104E700000B218807047044BC0221A70F5E700BFDB
:104E80002C800440CA1DFF1F21D00C4000D00C40D4
:104E9000F0B44D1E2E46002400E00134B0FBF2F3C6
:104EA00002FB1300092800F130078ABF3730F8B23F
:104EB000C0B206F8010F1846002BEED10A19537044
:104EC0004CB1107815F8016F28700133E01A834255
:104ED00002F80169F5DB0846F0BC7047054A064B4D
:104EE00010781B78C0B2DBB2984238BF4030C01A8D
:104EF000704700BF3C1EFF1FD11DFF1FF0B4384B91
:104F00001A7912F0300F2CD072B6997D01F0FF02A1
:104F100000293DD062B6334F334938780D78334E8F
:104F20001C46C0B2EDB2431C402BE17928BF0023E0
:104F3000AB4202F1FF32C9B21CBFF154184612F065
:104F4000FF02F0D12A4B1B68C2B23A704BB1A842A3
:104F500036BFC5F14005401B40192728C4BF0122B8
:104F60001A701F49CA78D2B2150616D452060DD54A
:104F70001B4B1B795B0609D51E4B1F491B68002282
:104F80000A7003B11A70164B3C22DA70F0BC7047FD
:104F90004022D9795A7462B6E3E70B791C06E5D54D
:104FA000164B174E1C783378E4B2DBB29C420ED01D
:104FB000144D01E0A3420AD00133282B28BF00235F
:104FC0000879E85CC0B2C871087D0728F2D9DBB265
:104FD000034933700B79180644BF7C23CB70C5E7B7
:104FE00000B006403C1EFF1FD11DFF1FFC1DFF1F10
:104FF000CC1DFF1F401EFF1FD01DFF1F441EFF1FA3
:105000003D1EFF1FD41DFF1F054A064B10781B785D
:10501000C0B2DBB2984238BF4030C01A704700BF00
:105020004C1EFF1F4D1EFF1F30B42B4B1A799406E8
:105030001FD52A48DA790378294901333F2B0978AB
:10504000C8BF00238B42D2B203D0264CD9B2E2545F
:105050000170254A116861B1244A1278D2B2934294
:1050600036BFC2F140029B1A9B18272BC4BF0123F5
:105070000B70194AD378DBB2180611D45A060DD535
:10508000154B1B795B0609D5194B1A491B68002281
:105090000A7003B11A70104B2C22DA7030BC7047C2
:1050A00011790906EAD5144910480C780178C9B27B
:1050B0008C420DD04A1C272A84BF00210A460F4D7E
:1050C000054C98BFD1B2AA5CD2B2E2710170D5E7AB
:1050D0006C21D170D2E700BF00C006404C1EFF1FFC
:1050E0004D1EFF1F781EFF1F481EFF1FB91EFF1F0A
:1050F000BC1EFF1FB81EFF1FC01EFF1F501EFF1F3C
:10510000054A064B10781B78C0B2DBB2984238BF14
:105110004030C01A704700BFC81EFF1FC91EFF1FC6
:1051200030B42C4B5A6894021FD52B48DA680378A8
:105130002A4901333F2B0978C8BF00238B4204D092
:10514000274CD2B2D9B2E2540170264A116861B13B
:10515000254A1278D2B2934236BFC2F140029B1A5E
:105160009B18272BC4BF01230B701A4A936818029F
:1051700002D55268110211D45A020DD5154B5B6845
:105180005B0209D5194B1A491B6800220A7003B14A
:105190001A70184B00221A6030BC7047164A124928
:1051A00010780A78D2B290420DD00132272A84BFFB
:1051B00000200246114D074C98BFD0B2AA5CD2B273
:1051C000E2600870D8E70E480A4A00240121046012
:1051D0001160D1E700400C40C81EFF1FC91EFF1F11
:1051E000F41EFF1FC41EFF1F351FFF1F381FFF1FA8
:1051F000341FFF1F580188433C1FFF1FCC1EFF1F99
:105200005C01884310B584B072B6FDF753FF184AAD
:10521000184B19491160702280211A701A461970B2
:1052200013781B06FCD5154B1C68FDF75DFF62B6B5
:10523000134B9C429CBF04EB840464002046114C39
:1052400001A90A22FFF724FE01A92046002311F834
:10525000012B01333AB10A2B20F8022FF7D1162384
:10526000237004B010BD5B00DBB2237004B010BD2E
:105270000400024000000240000007410C00024010
:105280007F9698009C0BFF1F704700BF704700BFC0
:10529000704700BF704700BF43084A0803F055330A
:1052A00002F05532C01A891A10B482088C0800F036
:1052B000333004F0333402F0333201F033318318E9
:1052C000081903EB131300EB101003F00F3300F079
:1052D0000F30184400EB002000EB0040000E5DF89A
:1052E000044B70470B460146184600F001B800BF5A
:1052F00013460A460146022000F090BB014B186895
:10530000704700BFE00FFF1F70B50F4E0F4D761BAB
:10531000B61018BF002405D0013455F8043B984757
:10532000A642F9D10A4E0B4D761B00F0F3FFB610E2
:1053300018BF002406D0013455F8043B9847A64214
:10534000F9D170BD70BD00BF206300002063000074
:105350003863000020630000024B0146186800F02B
:1053600003B800BFE00FFF1F2DE9F04F01F10B055F
:10537000162D83B0064640F29F8035F0070500F1F8
:10538000BF80A94200F2BC8000F0A6FAB5F5FC7F10
:10539000C0F09C826B0A00F0BA80042B00F283817B
:1053A000A80900F1390E4FEA4E033830C44F07EB1D
:1053B0008303A3F108015C68A14207D1ACE0002A95
:1053C00080F2AC80E468A14200F0A680636823F01C
:1053D00003035A1B0F2AF2DDB9493C6901F1080E9B
:1053E000744500F0B381636823F003035A1B0F2A4E
:1053F00000F39981002AC1F814E0C1F810E080F2AE
:105400009E80B3F5007F80F06781DB0803F1010C1B
:1054100001229B1002FA03F34A6851F83C80C4F859
:10542000088001EBCC091A43A9F10803E3604A6044
:1054300041F83C40C8F80C40831001249C40944241
:1054400000F28A80144206D120F003006400144266
:1054500000F10400FAD007EBC009CC468046DCF826
:105460000C108C4507D173E1002A80F28181C96854
:105470008C4500F06D814B6823F003035A1B0F2A03
:10548000F2DD0C46D1F80CC054F8088F4B1945F0EA
:1054900001054D6042F00101C8F80CC03046CCF85F
:1054A00008807B613B61C3F80CE0C3F808E05960F9
:1054B0009A5000F013FA1FE0102921D800F00CFADE
:1054C0001025062302207E4F07EB8303A3F1080279
:1054D0005C68944200F045816368E168A56823F048
:1054E0000303234430465A68E96042F001028D60AC
:1054F0005A6000F0F3F90834204603B0BDE8F08F9D
:1055000000240C232046336003B0BDE8F08F8023D5
:105510004FF0400E3F2049E770465DE72344E168C5
:105520005A68A56842F00102E96030468D605A6011
:1055300000F0D4F90834204603B0BDE8F08F2344CE
:1055400030465A6842F001025A6000F0C7F9083448
:10555000204603B0BDE8F08FBC68636823F0030801
:10556000A84504D3C5EB08030F2B00F38C80554BE3
:10557000DFF860911A68D9F8003001332A4404EB4F
:10558000080A00F0608102F580520F3222F47F6237
:1055900022F00F0211463046019200F0A1F9B0F15D
:1055A000FF3F8346019A00F05881824500F2FC805B
:1055B000454B1968DA451144196000F05381D9F858
:1055C0000000DFF810E101301BBFCAEB0B0A5144A9
:1055D000CEF800B019601BF0070100F01781C1F18F
:1055E0000800C1F58051834408315A44C2F30B02CC
:1055F000C2EB010949463046019300F071F9431CA2
:10560000019B00F03F81CBEB00024A4442F00102D3
:105610001968C7F808B04944BC42CBF804201960A7
:10562000DFF8A49016D0B8F10F0F40F2FD80626849
:10563000A8F10C0323F00703E01802F001024FF079
:10564000050E1A430F2B6260C0F804E0C0F808E0B2
:1056500000F21C811D4BBC681A68914288BF19601A
:105660001B4B1A689142626888BF196022F00302DE
:105670009542A2EB050301D80F2B04DC304600F065
:105680002DF9002438E7621943F0010345F00105C4
:1056900065603046BA60536000F020F90834204657
:1056A00003B0BDE8F08F142B71D9542B00F2A48005
:1056B000280B00F16F0E4FEA4E036E3076E600BF06
:1056C000E40FFF1F481FFF1F4C1FFF1F441FFF1F3A
:1056D000401FFF1FF013FF1F5A0A042A5ED9142A25
:1056E00000F2B38002F15C0149005B3207EB810CF0
:1056F00057F82110DFF8DC81ACF1080C8C4500F084
:1057000088804A6822F00302934202D289688C455D
:10571000F7D1D1F80CC07A68C4F80CC0A160CCF8FD
:105720000840CC6088E6631942F0010745F00105A6
:10573000656030464B610B61C3F80CE0C3F808E0CC
:105740005F609A50083400F0C9F8D5E64A6873E6FD
:1057500008F1010818F0030F0CF1080C7FF47FAE7C
:1057600030E0DC68A34208BF02303FF435AEB3E658
:105770000B440C465A68C96854F8085F42F00102AD
:105780005A603046E9608D6000F0A8F8B4E603F195
:105790005C0E03F15B004FEA4E0307E69A0902F143
:1057A000390149003832A1E7BC424A4B3FF400AF0F
:1057B0009C68626822F003025AE759F80839994553
:1057C00040F0828010F0030F00F1FF30F5D17B68CC
:1057D00023EA04037B6064009C423FF6BDAE002CCC
:1057E0003FF4BAAE1C4240467FF435AE64001C4222
:1057F00000F10400FAD02EE6B3F5AA7F18D8E80B22
:1058000000F1780E4FEA4E037730CFE54FF4805128
:10581000EBE60121D8F80430921001FA02F21A43A3
:10582000C8F80420614677E70123CBF8043025E768
:1058300040F25452934220D8A80C00F17D0E4FEA5A
:105840004E037C30B2E51032A4E6542A26D81A0B57
:1058500002F16F0149006E3248E7BC68626822F0CD
:10586000030205E7CAF30B0000287FF4A8AE424408
:10587000BB6842F001025A60ECE6FE234FF07F0E57
:105880007E2093E501224FF00009C1E604F10801F2
:10589000304600F087F9D9F80010DBE6B2F5AA7FB0
:1058A00005D8DA0B02F17801490077321EE740F2A1
:1058B00054518A4205D89A0C02F17D0149007C328C
:1058C00014E7FE217E2211E77B6884E7E808431C89
:1058D0005B00F8E5E40FFF1F704700BF704700BF93
:1058E00038B5074C0023054608462360FDF7AEFB9C
:1058F000431C00D038BD2368002BFBD02B6038BD83
:105900009C1FFF1FFFFFFFFFFFFFFFFFFFFFFFFFCA
:10591000FFFFFFFFFFFFFFFFFFFFFFFFFFFFFFFF97
:10592000FFFFFFFFFFFFFFFFFFFFFFFFFFFFFFFF87
:10593000FFFFFFFFFFFFFFFFFFFFFFFFFFFFFFFF77
:1059400090F800F06DE9024520F007016FF0000CBF
:1059500010F0070491F820F040F049804FF0000467
:105960006FF00700D1E9002391F840F000F1080042
:1059700082FA4CF2A4FA8CF283FA4CF3A2FA8CF37A
:105980004BBBD1E9022382FA4CF200F10800A4FAE1
:105990008CF283FA4CF3A2FA8CF3E3B9D1E9042335
:1059A00082FA4CF200F10800A4FA8CF283FA4CF36C
:1059B000A2FA8CF37BB9D1E9062301F1200182FA26
:1059C0004CF200F10800A4FA8CF283FA4CF3A2FA2C
:1059D0008CF3002BC6D0002A04BF04301A4612BA3A
:1059E000B2FA82F2FDE8024500EBD2007047D1E93D
:1059F000002304F00305C4F100004FEAC50514F0CC
:105A0000040F91F840F00CFA05F562EA05021CBF9C
:105A100063EA050362464FF00004A9E72DE9F04769
:105A2000254C2568D5F84841064688469246994651
:105A3000C4B360681F2817DC431C76B104EB8005F3
:105A40000122C5F888A0D4F8881182401143022EA3
:105A5000C4F88811C5F808911ED00230636044F87C
:105A600020800020BDE8F087144B03B34FF4C870CA
:105A7000FFF772FC0446D0B1D5F84831002780E822
:105A80008800C5F8484138460123C4F88871C4F835
:105A90008C71002EE1D0D1E7D4F88C110A43C4F800
:105AA0008C21DAE705F5A674C5F84841C1E74FF047
:105AB000FF30BDE8F08700BF1063000059530000BD
:105AC000024B13B1024800F005B870470000000017
:105AD000E15A0000002301461A461846FFF79EBF10
