:1000000000000320D1010000854100003D410000B7
:100010003D4100003D4100003D4100003D410000E8
:100020003D4100003D4100003D4100008541000090
:10003000854100003D410000895900008D5A0000B3
:100040008541000085410000854100008541000098
:100050008541000085410000854100008541000088
:100060008541000085410000854100008541000078
:100070008541000085410000854100008541000068
:100080008541000085410000854100008541000058
:100090008541000085410000854100008541000048
:1000A000E53F0000F13F0000854100008541000070
:1000B000854100008541000085410000F55F00009A
:1000C0008541000021610000854100004D62000073
:1000D00085410000FD480000854100008541000089
:1000E00085410000854100008541000085410000F8
:1000F00085410000854100008541000085410000E8
:1001000085410000854100008541000085410000D7
:10011000854100003D4C0000854100008541000004
:1001200085410000854100008541000085410000B7
:1001300085410000854100008541000085410000A7
:100140008541000085410000F5490000854100001F
:100150008541000085410000854100008541000087
:100160008541000085410000FD3F00008541000001
:100170008541000085410000854100008541000067
:100180008541000085410000854100008541000057
:100190008541000085410000456300008541000065
:1001A0008541000085410000854100008541000037
:1001B0008541000085410000854100008541000027
:1001C0008541000085410000854100008541000017
:1001D0005C4B4CF2205210B51A804DF628121A8052
:1001E00000BF00BF00F004FB574B4FF030621A60B5
:1001F000564A9A60564ADA60564B4FF470021A60BB
:10020000554B564A1A60564A136813F4807304D14A
:1002100054490B604FF4A8531360534B1A781107DD
:1002200003D51A7842F008021A70504B5049AA229E
:100230001A70504A504B8B4204D252F8040F43F8C4
:10024000040BF8E74D4B4E4900228B4202D243F893
:10025000042BFAE74B494C4A002352F8230041F89B
:1002600023000133742BF8D1484B494A802103F80D
:10027000011B9342FBD1474B424A1A60464B8A22EC
:100280001A70A3F5805324225A70A0221A709A790A
:100290009207FCD59A79D406FCD4404A937903F0AE
:1002A0000C03082BFAD13E4B60221A7002331A78E5
:1002B000802AFCD1394B01221A715D225A719A7938
:1002C0009006FCD59979354A4906FBD5354B364918
:1002D00019600021596020231370937903F00C03F7
:1002E0000C2BFAD1314B324A1A60324B324A1A6027
:1002F00000225A60072243F8042C304AC3F80C2D20
:1003000062B604F035FA174B1B68DA0705D52C489E
:1003100004F010F82B4B2C4A1A602C4B1B785B0610
:1003200009D5284C284B22689A4204D1244804F06D
:1003300001F80023236008F0E1F903F027FF05F03E
:10034000ADFBFEE70E20054030800440823F0400F4
:100350000100002B88ED00E0002008E0030000858C
:1003600010D0034014D0034002D0074000E0074003
:10037000F413FF1F5C9900003009FF1FF813FF1FE3
:100380005C1FFF1F0004FF1F0000000000E400E0EE
:1003900064E400E008ED00E0005006400040064044
:1003A00001E007404480044000000602048004404D
:1003B000C010070014E000E01FBF02000000202072
:1003C0007534E35A1CE00340A5C3945A00F007407B
:1003D000FFFFFFFFFFFFFFFFFFFFFFFFFFFFFFFF2D
:1003E000FFFFFFFFFFFFFFFFFFFFFFFFFFFFFFFF1D
:1003F000FFFFFFFFFFFFFFFFFFFFFFFFFFFFFFFF0D
:10040000FFFFFFFFFFFFFFFFFFFFFFFFDEF9FFFF23
:1004100010B5054C237833B9044B13B10448AFF33E
:1004200000800123237010BDF813FF1F000000009F
:1004300058990000084B10B51BB108490848AFF3A4
:1004400000800848036803B910BD074B002BFBD0A0
:10045000BDE81040184700BF00000000FC13FF1F5C
:1004600058990000F413FF1F00000000F8B55B4925
:100470005B4D5C4C2A7894F800C00B785A48DFF842
:1004800084E15A4F5A4E1B0443EA0C23134302786B
:10049000DFF864C143EA0263FF222A7022700A7007
:1004A00080218EF800200270397031709CF806208F
:1004B000504912F00C0F0B6103D19CF80630DC069A
:1004C0003DD44D4A9379C3F38103032B41D04A4B6A
:1004D0009A79C2F38102022A43D0474A9379C3F33F
:1004E0008103022B54D0444A9379C3F38103022B36
:1004F00062D0414A9379C3F38103012B52D03E4A23
:100500009379C3F38103012B5DD03B4B9A7912F0B1
:100510000C0F03D19A79D20600D49B79374D384B12
:100520002A7853F82240DCB1236820469B6898471C
:100530002B7804EB83046468002CF5D1F8BD9CF89B
:1005400006309806EAD52C4A9379C3F38103032B2E
:10055000BDD19379D906BAD493799B06DED4B6E798
:10056000F8BD9A79D706B8D49A799606B5D5597850
:1005700001F0020101F0FF020029AED120211A7022
:100580001A461970937903F00C030C2BFAD1C5E7C6
:100590009379DD06A7D493799C06A4D45378980761
:1005A000BCD5A0E79379DF06A9D593799E06A6D49A
:1005B00053789D07B2D4A2E79379D90699D453789A
:1005C0009B07ABD495E79379DC069ED59379980683
:1005D0009BD453789907A1D597E700BF0BC007407C
:1005E00009C007400AC007400DC007400EC00740C1
:1005F0000FC00740301FFF1F00400640C01AFF1FFA
:10060000801AFF1F0CC0074090F92410104B0360A4
:100610004B1C06D0F0B40F4E56F82130984201D052
:10062000F0BC70470C4F57F8213033B18D000024D7
:100630005A1953685460002BFAD1084C23780022D1
:10064000013B237047F8212046F82120E8E700BF4E
:1006500058900000A01AFF1F801AFF1FC11AFF1F29
:1006600038B590F924506B1C1BD00E4B0E4953F833
:1006700025400E4BEDB24FF0FF320D701A6084B181
:10068000AD0002E02C4464685CB194F82530002B86
:10069000F8D0236820462C441B6898476468002CD7
:1006A000F3D138BD801AFF1FC01AFF1F0002FF1FC1
:1006B000704700BF90F92410104B03604B1C06D00C
:1006C000F0B40F4E56F82130984201D0F0BC70477C
:1006D0000C4F57F8213033B18D0000245A1953685C
:1006E0005460002BFAD1084C23780022013B237080
:1006F00047F8212046F82120E8E700BF5890000085
:10070000A01AFF1F801AFF1FC11AFF1F90F92410A3
:10071000104B03604B1C06D0F0B40F4E56F821303E
:10072000984201D0F0BC70470C4F57F8213033B1DC
:100730008D0000245A1953685460002BFAD1084CDC
:1007400023780022013B237047F8212046F821201E
:10075000E8E700BF58900000A01AFF1F801AFF1F93
:10076000C11AFF1F90F92410104B03604B1C06D0D8
:10077000F0B40F4E56F82130984201D0F0BC7047CB
:100780000C4F57F8213033B18D0000245A195368AB
:100790005460002BFAD1084C23780022013B2370CF
:1007A00047F8212046F82120E8E700BF58900000D4
:1007B000A01AFF1F801AFF1FC11AFF1F38B500259E
:1007C000044645600560058145818581C5810582B6
:1007D00045820575153001F01DFB2577657704F11D
:1007E0001E03263403F8015BA342FBD138BD00BFD2
:1007F000544A554B102111801B781B074AD5F0B580
:100800005248534D534E544C32782F78037894F815
:1008100000C0DFF868E18B4043EA072313434F4FE2
:10082000FF22327043EA0C632A70027080208EF837
:100830000020227038706871D807494A23D51A23DE
:10084000D36048494848DFF838C1DFF838E1474FFE
:10085000474E484D484C00238CF80030537093703D
:10086000D370137153719371D37113618EF800308B
:100870000B700370107A3B70137233702B702370FF
:1008800013708871F0BD1F0705D4DE0606D504235A
:10089000D360D6E770472123D360D2E79D0604D406
:1008A0005C0604D51623D360CBE7D160C9E71806F0
:1008B00004D4990705D53C23D360C2E70923D3604C
:1008C000BFE75F0702D53E23D360BAE7DE0502D556
:1008D0000A23D360B5E79D0502D50D23D360B0E7A9
:1008E0005C0502D50B23D360ABE7180502D51E23A8
:1008F000D360A6E7D90402D50223D360A1E79F0401
:1009000002D50723D3609CE75E0402D50623D3609B
:1009100097E71D0402D51523D36092E7DC0102D5C9
:100920002423D3608DE7980102D52223D36088E782
:10093000D90002D52523D36083E79B0044BF23233E
:10094000D3607EE70020054002D007400BC007407F
:100950000AC0074009C007400DC007400EC007404D
:10096000301FFF1F02C0074003C0074004C00740FC
:1009700005C0074006C0074007C007400CC007403D
:1009800000C0074001C00740002976D02DE9F04F94
:100990000C469100631883B05D68002D57D06B182A
:1009A0005E68002E50D073185F68002F49D07B1806
:1009B000D3F80480B8F1000F3CD008EB0103D3F862
:1009C0000490B9F1000F32D009EB0103D3F804A071
:1009D000BAF1000F27D00AEB0103D3F804B0BBF142
:1009E000000F18D00BEB01035B6863B1194401934E
:1009F0004968FFF7C9FF019B93F825201AB11A68CF
:100A00001846536898479BF8253023B1DBF800302F
:100A100058465B6898479AF8253023B1DAF80030D9
:100A200050465B68984799F82530002B35D198F8E7
:100A3000253063BB97F825301BB13B6838465B68AF
:100A4000984796F82530CBB995F8253063B994F8D6
:100A5000253013B903B0BDE8F08F23685B682046EA
:100A600003B0BDE8F04F18472B6828465B689847ED
:100A700094F82530002BEDD0EFE77047336830460F
:100A80005B68984795F82530002BE0D0ECE7D8F864
:100A9000003040465B689847CCE7D9F800304846BC
:100AA0005B689847C3E700BF90F92420531C26D009
:100AB0001B4B2DE9F04153F82240D2B2ECB1930028
:100AC000E1184D68B5B1E9184E6866B1F1184F6884
:100AD00037B13B445968FFF757FF97F82530A3B962
:100AE00096F8253063B995F825301BB12B68284658
:100AF0005B68984794F8253063B9BDE8F08170478A
:100B0000336830465B689847EDE73B6838465B687A
:100B10009847E5E7236820465B68BDE8F041184741
:100B2000801AFF1F01282DE9F843804600F0F88164
:100B3000CB4DCC4E0FCD34460FC40FCD0FC40FCDCF
:100B40000FC42B6823607721032200240123022590
:100B50000A20F270737171703471B571F57135726C
:100B600003F0B4FD1021C04804F0A8FDBF4804F014
:100B7000B1FFBC4801F02CF8234610220146BB48C7
:100B800004F0B8FFB94804F0A5FF2321B84804F0E9
:100B900095FD0C21B74804F091FDD021B14800F03B
:100BA000AFFD234610220146B04804F0A3FFAF4832
:100BB00004F090FF1821B04804F080FDE021A9481E
:100BC00000F09EFD234610220146A84804F092FF43
:100BD000A64804F07FFF1321A84804F06FFDF4211C
:100BE000A04800F08DFD2346102201469F4804F0E6
:100BF00081FF9E4804F06EFF1221A14804F05EFDC3
:100C0000F221984800F07CFD2346014610229748C7
:100C100004F070FF954804F05DFF2946994804F000
:100C20004DFD1421984804F049FD90260827022123
:100C3000964804F043FD3946002310228B4804F007
:100C400059FF3C0102219248E4B204F037FDDFF87D
:100C500014922146484600F053FD0023C0F30711CB
:100C600005461022814804F045FF013405F00F01CC
:100C7000002310227D4804F03DFFE4B201218548A5
:100C800004F01CFDA642E2D1103601218248F6B2E2
:100C900004F014FD102E07F10107C8D10221794894
:100CA00004F00CFD2A217D4804F008FD31467C4803
:100CB00004F004FDB9F80A106C4804F05BFF6B48BF
:100CC00004F008FF0F21774804F0F8FCB9F90C1084
:100CD000664804F04FFF654804F0FCFE0F2172489F
:100CE00004F0ECFCB9F90E10604804F043FF5F48D3
:100CF00004F0F0FE31466D4804F0E0FCB9F8101045
:100D00005A4804F037FF594804F0E4FE0F216848C0
:100D100004F0D4FCB9F91210544804F02BFF5348E6
:100D200004F0D8FE0F21634804F0C8FCB9F9141090
:100D30004E4804F01FFF4D4804F0CCFE0F215E48E2
:100D400004F0BCFCB9F91610484804F013FF4748FA
:100D500004F0C0FE0F21594804F0B0FCB9F9181096
:100D6000424804F007FF414804F0B4FE0F21544804
:100D700004F0A4FCB9F91A103C4804F0FBFE3B480F
:100D800004F0A8FE0F214F4804F098FCB9F91C109C
:100D9000364804F0EFFE354804F09CFE0F214A4827
:100DA00004F08CFCB9F91E10304804F0E3FE2F4823
:100DB00004F090FE0F21454804F080FCB9F92010A2
:100DC0002A4804F0D7FE294804F084FE0F21404849
:100DD00004F074FC00230A2299F82210234804F03E
:100DE00089FE224804F076FE0F213A4804F066FCA2
:100DF000B9F924101D4804F0BDFE1C4804F06AFE39
:100E00000F21354804F05AFC00230A2299F82610D5
:100E1000164804F06FFE154804F05CFE0F212F48C1
:100E200004F04CFCB9F92810104804F0A3FE0F4858
:100E300004F050FE0F212A4804F040FCB9F92A10B2
:100E40000A4804F097FE094804F044FE0F212548A3
:100E500004F034FC00230A2299F82C1044E000BF6F
:100E60000815FF1FAC14FF1F24910000000BFF1F8B
:100E7000389100005C9100006C91000088910000A6
:100E80009C910000B0910000B4910000AC91000072
:100E9000CC91000070930000D0910000D49100002C
:100EA000009200001492000024920000349200008E
:100EB000489200005892000068920000789200006A
:100EC0008892000098920000A8920000B89200005A
:100ED000C8920000D8920000E8920000F89200004A
:100EE0000893000018930000144804F003FE134810
:100EF00004F0F0FDB9E80F00B8F1010F0CBF104C81
:100F0000104C0FC4B9E80F000FC4B9E80F000FC4AC
:100F1000D9F8003023600948BDE8F84304F0DABD91
:100F2000074D094E0FCD34460FC40FCD0FC40FCD62
:100F30000FC42B682360762106E600BF000BFF1F5D
:100F4000D017FF1F0815FF1FAC14FF1F012810B595
:100F50004FF0080165D04448444C04F0AFFB4448CE
:100F600004F0B8FD0021434804F0A8FB404804F019
:100F7000B1FD414800F052FD3F4884ED030A00F006
:100F80001DFC3D4884ED040A00F03EFD3A4884ED26
:100F9000050A00F0C9FD84ED060A642003F096FB03
:100FA0000D21364804F08AFBA06906F029FD41ECCA
:100FB000100B02212E4804F0E7FD0A21304804F00E
:100FC0007DFB2B4804F086FD0A212E4804F076FBB9
:100FD000606906F015FD41EC100B0221244804F075
:100FE000D3FD0221284804F069FB214804F072FD7A
:100FF0000521264804F062FBE06806F001FD41ECA3
:10100000100B02211A4804F0BFFD0221204804F011
:1010100055FB174804F05EFD1548BDE8104004F08C
:1010200059BD1C48114C04F049FB114804F052FD15
:101030000021104804F042FB0D4804F04BFD164817
:1010400000F0ECFC144884ED030A00F0B7FB1248F2
:1010500084ED040A00F0D8FC0F4884ED050A00F086
:1010600063FD84ED060A98E734930000A415FF1F82
:10107000000BFF1F609400000815FF1F4093000045
:10108000509300005C930000689300006C93000094
:101090007493000028930000D017FF1F70B514460A
:1010A000C5B2284603F0F8FA236842F20E76B3423E
:1010B0000FDC284603F0F6FAB0FA80F14909284619
:1010C00003F0EAFA206803F001FB54F8043FB3424E
:1010D000EFDD70BD2DE9F04F64208BB06B4CDFF875
:1010E000E8B1DFF8E8A1DFF8E881694D694F6A4EA1
:1010F000DFF8E09103F0EAFA1021684804F0DEFA24
:10110000204604F0E7FC9BF80000012103F0D8FA28
:101110009AF80000012103F0D3FA614B01211878FD
:1011200003F0CEFA5F4B0121187803F0C9FA5E4B49
:101130000021187803F0C4FA5C4B0121187803F001
:10114000BFFA5B4B0021187803F0BAFA594B002123
:10115000187803F0B5FA584B0021187803F0B0FA6C
:1011600098F80000012103F0ABFA2878012103F080
:10117000A7FA3878012103F0A3FA3078012103F0AF
:101180009FFA99F80000012103F09AFA9BF80000F9
:10119000002103F081FA9AF80000012103F07CFAA3
:1011A000424B0021187803F077FA3D4B0121187863
:1011B00003F072FA3B4B0121187803F06DFA98F8AE
:1011C0000000002103F068FA2878002103F064FA97
:1011D0003878012103F060FA3078012103F05CFADD
:1011E00099F80000002103F057FA2878022103F053
:1011F000B3F84FF4FA6003F069FADFF8DCC0BCE83A
:101200000F00EE46AEE80F00BCE80F00AEE80F009E
:101210009CE803006A468EE80300D9F8000001212B
:10122000FFF73CFF6A46D8F800000121FFF736FFC0
:101230006A4628680121FFF731FF6A4638680021B5
:10124000FFF72CFF6A4630680021FFF727FF0421D3
:101250001A4804F033FA204604F03CFC0020FFF763
:1012600061FC0120FFF75EFC0521154804F026FA19
:10127000204604F02FFC0B21124804F01FFA2046F0
:1012800004F028FC0BB0BDE8F08F00BF000BFF1F7F
:101290004C09FF1F5009FF1F5409FF1F5094000005
:1012A0004009FF1F3809FF1F6809FF1F6409FF1F5E
:1012B0005C09FF1F6009FF1F4409FF1F64940000C1
:1012C0006C940000749400005809FF1F3C09FF1F34
:1012D0004809FF1F3409FF1F6490000070B500200B
:1012E0008CB0114D114EFFF731FE0120FFF72EFE9D
:1012F0000FCD6C460FC40FCD0FC495E80F0084E8E6
:101300000F006A4630680021FFF7C8FE4FF47A707C
:1013100003F0DCF92121064804F0D0F9054804F077
:10132000D9FB0CB070BD00BF8C9000003409FF1FCA
:1013300080940000000BFF1F2DE9F04F05469D4EE5
:101340009D4FDFF88C8296F800E02F60FF2085F833
:101350002400DFF8809298F80000BEF1060F59F8DB
:1013600020E04FF000038DB00C4685F8253085F85D
:10137000263098BF3370BEF1000F00F0AD808E456F
:101380005ED07346810001E09C4259D00B445B68FB
:10139000002BF9D1734600E053460B44D3F804A068
:1013A000BAF1000FF8D15C603478029705EB010BBD
:1013B0004FFA80FCFF23062CCBF804A08DF82DA05B
:1013C0008DF82EA085F824C08DF82C30744604D8F2
:1013D00000233370002C00F0B480A24229D02346B1
:1013E00001E0934225D00B445B68002BF9D104EB5C
:1013F000010EDEF80440002CF9D1CEF804200CAB2D
:101400001944BCF1FF3F00F101034FF0000041F827
:10141000240C88F800308DF82CC0029705D067495D
:1014200051F82C2002AB9A4276D028460DB0BDE888
:10143000F08F013088F8000028460DB0BDE8F08F2D
:1014400031780297FF24002306298DF82C408DF86F
:101450002D308DF82E30574C00D823709645E8D0AB
:101460007346810001E09A42E3D00B445B68002B95
:10147000F9D18E44DEF804402CB1A6468E44DEF845
:101480000440002CF9D10CAB46B219440130731C56
:10149000CEF8042088F8000041F8244C02978DF81B
:1014A0002C60C2D0454951F8262002AB9A42BCD1EB
:1014B00059F82630B00023B11A1853685460002B35
:1014C000FAD198F800300022013B88F8003049F842
:1014D000262041F82620A8E700283AD0374B96F876
:1014E00000E043F82050810005EB010C002349F88F
:1014F00020408DF82D30CCF804308DF82E304FFA86
:1015000080FCFF23BEF1060F029785F824C08DF8FA
:101510002C307FF65DAF5DE759F82C304FEA8C0434
:1015200023B11A1953685060002BFAD198F8003093
:101530000022013B88F8003049F82C2041F82C208B
:1015400073E7E8B11D4B49F8202002AA43F8202098
:1015500055E71B491B480B68019243F080630B6001
:101560000368194923F080430360152002F0DAFE76
:10157000164B019A4FF40011196098F80000ADE77E
:101580000F4C10482368019243F080632360036886
:101590000D4923F080430360152002F0C3FE0B4B7E
:1015A000019A4FF40011196098F800004FFA80FC7E
:1015B0008100C7E70402FF1F58900000A01AFF1F18
:1015C00004700440007004406D04000000E100E07D
:1015D000C11AFF1F801AFF1F2DE9F0472E4E2F4F13
:1015E0002F4B3049304C336000254FF0FF094FF04E
:1015F00001083A46304686F8249086F8255086F849
:10160000268007F069F82948294B84F825503A4686
:101610000580284984F8249020462360E5622563EC
:10162000656384F8385084F8395084F826806585DD
:1016300007F052F8204BDFF8A4A0DFF8A4E083F80D
:101640002550184683F824903A461C4983F8268092
:1016500083F82580C3F800E007F03EF822463146C3
:101660005046FFF769FE3A461549504607F034F8F0
:10167000144800F037F8144800F034F8134800F02C
:1016800031F8134800F0D2FB1248FFF797F81248E0
:10169000FFF794F8BDE8F0873016FF1F3009FF1FF1
:1016A00040950000B50600006815FF1FD01AFF1F07
:1016B000689500000D0700003C15FF1F650700003E
:1016C00009060000D017FF1F0815FF1FAC14FF1FED
:1016D0001414FF1F8414FF1FE014FF1F0816FF1FC0
:1016E00054950000002210B477240A2144708170C0
:1016F0000270C2708271C27102725DF8044B704751
:101700002DE9F041067807461EB3012E1ED10C4686
:101710008078002102F0C0FF264B1B6844F0800453
:101720004FF00042DA625C63DA6A002AFCDA4FF0BA
:1017300000410022986BD9625A63DA6A002AFCDA07
:101740009D6BB8780121EDB202F0A6FF2846BDE8F6
:10175000F081194C43784FF001085B00204684F873
:101760003B3084F85E8084F85D8002F033F94146B6
:10177000204602F09BFA434642467978204602F022
:101780001FFB94F8383094F8391099421A46DDD08E
:101790009942224403F1010083BFC3B2157E0126A2
:1017A000FF258B421A46F3D1002ECFD084F8383073
:1017B000CCE700BF7009FF1F1C0AFF1F2DE9F04F87
:1017C000F72185B08246FFF79BFFF8210190504634
:1017D000FFF796FFF92102905046FFF791FFDAF8E4
:1017E0003040BAF91220BAF914600390E517B4F545
:1017F000FA3445F1FF35A4FB04BC04FB05F30CEB04
:10180000430C02FB05F1F717D31706FB0CFEA2FBF6
:10181000048904FB03130BFB07EEA6FB0B6777445D
:10182000300A994440EA07604FEA08324FEA093328
:1018300043EA185339121218BAF810804B4100329B
:1018400043F50043A2FB086708FB03777A10FB17F8
:1018500052EA030700F09E800399BAF91860C1F3B9
:1018600007100299F71740EA011006FB05F104FB87
:101870000711A6FB0445019E40EA063EBAF91A008C
:101880000D446F04C11700FB0CFCCEF5801E0BFB52
:1018900001CC47EAD4376604A0FB0B45BAF9160021
:1018A000A41965444FF000084FEAEE7C4FEACC7172
:1018B0004FEAC0097D414FEACE7014EB080445EBB6
:1018C000090541EA5E01001B61EB0501061841EBC9
:1018D000010736184F41BD01B40145EA9665361936
:1018E0006F41BC00B50044EA96742E1844EB010722
:1018F000B500BC00401944EA9674614106F002FD4F
:10190000BAF920204C13470B47EAC14702FB04F504
:10191000D31707FB0355A2FB072302FB04F6BAF912
:101920001E402B4407FB036604FB01FEA2FB0723BA
:10193000E51700FB05EE3344A4FB0045560E754445
:1019400046EAC3164FEAD4488019BAF91C404FEA58
:10195000636748EA453879414FEAE54918EB0008E2
:1019600049EB0109E5174FEA182242EA0962290109
:1019700020014FEA2923801841EA1471594106F0E9
:1019800083FC9FED070A07EE900A27EE800A05B058
:10199000BDE8F08F9FED030A05B0BDE8F08F00BFF2
:1019A0000000803B0000000008B5FFF707FFDFEDF7
:1019B000147A80EE277A17EE100A06F021F89FEDD0
:1019C0000C1B41EC100B04F07FFD002251EC100BBE
:1019D0000C4B05F0B5FE08A3D3E9002306F064F82C
:1019E00006F032FB00EE100A08BD00BFAFF3008026
:1019F000000000C0895AC83F00000060C662E6C00F
:101A000080E6C5470000F03F08B5FFF7CDFFDFEDEA
:101A1000027A20EE270A08BD48F95140F8B5FD21A9
:101A20000446FFF76DFEFE2107462046FFF768FEDD
:101A3000236B94F8261094F82C20B4F928E0B4F91C
:101A40002A50A3F5963606FB01F106FB02F2C912F5
:101A500001F50041921202FB01F240EA0720B4F9BD
:101A6000241094F822404FEA0E5E9212CEEB80339F
:101A700002F5001206FB153301FB02F203F5804369
:101A800002F500529213DB1302FB03F3DA1302FB9D
:101A900002F2D21104FB02F2A3EB221323EAE37356
:101AA000B3F1C85FA8BF4FF0C8531B1300EE103A44
:101AB000BAEECB0AF8BD00BF38B5FA210446FFF7ED
:101AC0001FFEFB2105462046FFF71AFEFC210301FD
:101AD000204643EA0535FFF713FE6189B4F90E206D
:101AE000B4F90C30DFED0F7AC0F307102843C1EBD7
:101AF000201505FB05F52D134900C1EBE00102FBA4
:101B000005F2921303FB01F302EBE32303EB8302E1
:101B10008032121200EE102AB8EEC00A236380EE63
:101B2000270A38BD0000C84208B5FFF7C5FFF2EE2E
:101B3000027A60EE277AB1EE047A87EE870ADFED4B
:101B4000027A30EE270A08BD0000004270B5037823
:101B5000044616460BB3012B1ED10D46807800219A
:101B600002F09AFD184B1B6805F07F054FF000420C
:101B7000DA625D63D96A0029FCDA4FF00042996BA2
:101B8000DA625E63DA6A002AFCDAA0789B6B0121D4
:101B9000BDE8704002F080BD70BD0C4C437801255B
:101BA0005B00204684F83B3084F85E5084F85D503A
:101BB00001F010FF3146204601F00CFF2946204677
:101BC000BDE8704002F072B87009FF1F1C0AFF1FC9
:101BD00038B505780446002D00F01281012D16D18C
:101BE000894801F01DFE8949874801F085FE294694
:101BF000854801F053FE0C21834801F077FE294609
:101C0000A07802F05DFD2946A07802F045FD89210B
:101C10002046FFF775FD882105462046FFF770FD39
:101C200000EB052060818B212046FFF769FD8A21AA
:101C300005462046FFF764FD00EB0520A0818D21BD
:101C40002046FFF75DFD8C2105462046FFF758FD35
:101C500000EB0520E0818F212046FFF751FD8E210A
:101C600005462046FFF74CFD00EB05202082912120
:101C70002046FFF745FD902105462046FFF740FD31
:101C800000EB0520608293212046FFF739FD922169
:101C900005462046FFF734FD00EB0520A082952184
:101CA0002046FFF72DFD942105462046FFF728FD2D
:101CB00000EB0520E08297212046FFF721FD9621C9
:101CC00005462046FFF71CFD00EB052020839921E7
:101CD0002046FFF715FD982105462046FFF710FD29
:101CE00000EB052060839B212046FFF709FD9A2128
:101CF00005462046FFF704FD00EB0520A0839D214B
:101D00002046FFF7FDFC9C2105462046FFF7F8FC26
:101D100000EB0520E0839F212046FFF7F1FC9E2188
:101D200005462046FFF7ECFC00EB05202084A121AE
:101D30002046FFF7E5FCE22184F822002046FFF769
:101D4000DFFCE12105462046FFF7DAFC00EB052029
:101D5000A084E3212046FFF7D3FCE42184F8260089
:101D60002046FFF7CDFCE52105462046FFF7C8FCDD
:101D700000F00F0000EB05102085E6212046FFF75C
:101D8000BFFCE52105462046FFF7BAFCC0F307106B
:101D900000EB05106085E7212046FFF7B1FC00222B
:101DA00084F82C00F4212046FFF7D0FE63792279D5
:101DB0009B0003F01C0343EA4212204602F0FC029F
:101DC000F521FFF7C3FE227A2046F22102F0070236
:101DD000FFF7BCFEE278E379A17902F003029B00F1
:101DE00003F01C0342EA41121A432046F421D2B206
:101DF000FFF7ACFE2046D021BDE83840FFF780BC9D
:101E0000034801F0FBFD02E77009FF1F0650003890
:101E10001C0AFF1F002301220721C1704370837039
:101E20000370837102714271704700BF2DE9F04168
:101E30000446002500F125073846656125612583A4
:101E40006583A583E5832584658484F8245004F1A3
:101E50002E06FFF7DFFF04F1360884F82C5084F8D3
:101E60002D502A46334603F8012B43454FF0000519
:101E7000F9D1A5646564A4F84C50A4F84E50A4F8B8
:101E80005050A4F85250A4F85450A4F8565084F876
:101E9000585004F15900FFF7BDFF84F8605084F8F2
:101EA00061502B4604F1620204F16A0102F8013B21
:101EB00091424FF00005F9D16560A560E56065616C
:101EC000256125836583A583E5832584658484F85E
:101ED00024503846FFF79EFF84F82C5084F82D508C
:101EE00006F8015B46454FF00003F9D184F8413014
:101EF0002046BDE8F08100BF00207047704700BF5A
:101F0000064B074ADA620221002259609A7083F870
:101F1000242083F8302083F8322070470418FF1FF4
:101F2000289500002149224A0B6843F080030B608A
:101F300011461368DB07FCD40B689B07F9D41D4BD3
:101F400030B44FF08072194D186000E0A2B12968DA
:101F5000194B164C0B40013A002BF7D062B1012B04
:101F60000AD1236813F0800F23680FD043F00113C8
:101F70002360032030BC70470C4A136843F470237D
:101F800043F001031360012030BC704713F4803329
:101F900005D0236843F0011323600520F4E722688D
:101FA00042F0010218462260EEE700BF30100B40FD
:101FB00024100B400C100B4001000E0070B50D4DAD
:101FC0000D480E4E00232B60FFF7ACFF6324034641
:101FD00006E04BB92B60FFF7A5FF013C034605D097
:101FE000326805485207F4D4184670BD002808BF6F
:101FF000052070BD08100B400000DB0C24100B40C6
:10200000F8B5384B1A780AB10320F8BD5B7806465C
:1020100003B94902344D354C354B36484FF6FF77FE
:102020004FF481322F6021601A60FFF77BFF002898
:10203000EBD1314B31491B681C3406F1400206F5E7
:1020400010702B68284F43F0200613F4E00F2E6029
:102050003ED123681E05FCD50B6842F8403C0B6856
:1020600042F83C3C0B6842F8383C0B6842F8343C80
:102070000B6842F8303C0B6842F82C3C0B6842F885
:10208000283C0B6842F8243C0B6842F8203C0B6863
:1020900042F81C3C0B6842F8183C0B6842F8143CB0
:1020A0000B6842F8103C0B6842F80C3C0B6842F895
:1020B000083C0B6842F8043C40328242C1D1002007
:1020C00009490B68084A9B07FBD50D4B1360F8BD07
:1020D00043F4E00343F020033B60FFF76FFF012070
:1020E000EEE700BF5818FF1F30100B4008100B40E0
:1020F00004100B4010003A1110100B4020100B4040
:1021000022000001F8B52B4B1A780AB10320F8BD64
:102110005B78044603B94902274D284E284B2948CD
:102120004FF6FF774FF481322F6031601A60FFF76E
:10213000F9FE0028EBD1244B24491B682E4604F5F8
:1021400000772B681C4AD806FBD5336813F4E00FE0
:102150001AD104F1400254F8043B0B60A242FAD1B8
:102160002B68DFF854E043F010032B602B6813F466
:10217000E00013D19742E4D10F490B680E4A9B0748
:10218000FBD5134B1360F8BD136843F4E00343F031
:1021900010031360FFF712FF0120EDE7DEF80030B7
:1021A00043F4E00343F01003CEF80030FFF706FFDE
:1021B0000120E1E75818FF1F30100B4008100B40BA
:1021C00004100B4000003A1810100B4020100B4078
:1021D0001200000110B50121007802F05DFA114AE9
:1021E0001378C3B11049CB7A00241846147093B108
:1021F000DA0703D50D4AC869106018469C0703D555
:102200000B4B0A6AC87A1A60420705D4030702D545
:10221000084B8A6A1A6010BD074B4A6AC87A1A606E
:10222000F4E700BF6C18FF1F7009FF1F00E100E01A
:1022300004E100E00CE100E008E100E0234B1A7843
:102240001AB10078002102F027BA70B4204A21495F
:10225000D47A096801251D70002C26D072B6D47A74
:10226000E607234606D51C4DD3682E683340D3615C
:102270002B602346A50706D5184D14692E68D37A1E
:10228000344014622C605C0706D5154D54692E68E5
:10229000D37A344054622C601B0705D5114C9369E6
:1022A00025682B409362236062B61368DA688A421D
:1022B00007D00D4C1C600D4AD96041F080441C6170
:1022C0001A600078002170BC02F0E6B96C18FF1F9C
:1022D0007009FF1F6818FF1F80E100E084E100E043
:1022E00088E100E08CE100E001403F0000003F8019
:1022F000F0B41248124A036882B016460093009F59
:102300004FF00045FF24136843F480631360D562E7
:102310005463D36A002BFCDAB36BDBB2FF2B09D01A
:1023200003680193019BDB1B8B42ECD3002002B0BE
:10233000F0BC7047012002B0F0BC7047DC1AFF1FF0
:1023400000C00240F8B50D464FF49671164604469B
:10235000FFF7CEFF284B1A684FF0004042F480622E
:1023600045F040011A60D8621A465963D36A002BBF
:10237000FCDA214918204FF000470A6826FA00F3DA
:1023800042F48062DBB20A60CF624B63CB6A002BFF
:10239000FCDA083810F1080FEFD155B3082D0CBF47
:1023A0008721FF21144B1A684FF0004042F48062ED
:1023B0001A60D8621A465963D36A002BFCDA0E4AB7
:1023C000002716464FF00045FF21136843F4806351
:1023D0001360D5625163D36A002BFCDAB36BD8B2B9
:1023E0001B06607000D4F8BD0137B7F5807FECD1D3
:1023F000F8BD9521D6E700BF00C00240F0B41549F2
:10240000154A0B6882B016460093009F4FF00045B6
:10241000FF24136843F480631360D5625463D36A66
:10242000002BFCDAB36BDBB2FF2B43700AD10B68D5
:102430000193019BDB1BB3F5967FEAD9002002B024
:10244000F0BC7047A3F1FE00B0FA80F0400902B082
:10245000F0BC7047DC1AFF1F00C00240F8B583785B
:10246000032B0E46044618BF4E021546FFF7E6FE44
:10247000324611212046FFF765FF18B92046FFF7C5
:10248000BDFF20B92046FFF7A5FE0020F8BD204B78
:102490002049214A1A608E4659631A4659631E46DE
:1024A000596305F5FD70A91C05F5FE77D36A13F095
:1024B000F00FFBD0C6F834E0B36B01F8013C1B12FF
:1024C00001F8023C02318F42F0D105F50075A842B7
:1024D0000DD20F4A1646D36A13F0F00FFBD0B36B40
:1024E000191200F8021BA84200F8013CF3D3084B74
:1024F0000949084A196019465A63CB6A044A13F01D
:10250000F00FFAD02046936BFFF764FE0120F8BD70
:1025100000C00240FFFF009000041F80F0B4314E65
:1025200033684FF0004743F4806333603D46F76201
:10253000344671633346511C02F20127E26A002AD5
:10254000FCDA1A6811F8016C42F480621A60DD62EC
:102550005E63E26A002AFCDA1A6811F8026B42F440
:1025600080628F421A60DD625E63E7D11D49CA6AEC
:102570001C4B002AFBDA1A684FF0004542F48062D7
:10258000FF241A601946DD625C63CB6A154A002B92
:10259000FBDA13684FF0004543F48063FF241360B7
:1025A0001146D5625463CB6A0E4A002BFBDA1368DE
:1025B0004FF0004543F48063FF2413601146D56259
:1025C0005463CB6A074A002BFBDA936BDBB203F050
:1025D0001F024370A2F10500B0FA80F04009F0BC80
:1025E000704700BF00C0024070B5044671B18378E7
:1025F000032B0D4618BF4D021646FFF71FFE2A4655
:1026000018212046FFF79EFE054620B12046FFF721
:10261000E1FD002070BD3246FE212046FFF77EFF1F
:102620000028F3D04FF416712046FFF761FE002812
:10263000ECD02A460D212046FFF784FE0028E5D184
:102640000B4B1A684FF0004542F48062FF201A607D
:102650001946DD625863CB6A054A002BFBDA936B9F
:1026600013F0FF0FD2D12046FFF7B4FD012070BD5B
:1026700000C00240014B024A1A6070476818FF1FF1
:102680000320003838B590F90530002B03DBBDE896
:10269000384000F079B904460121006900F0B4F92E
:1026A000F8B1257D104B13EB45151AD0A3790F4ACD
:1026B000012B9CBFA369EB61E36912686B831B0C60
:1026C000AB8232B105F1160105F1180090472B8B52
:1026D0006B82637903F07F036371BDE8384000F0DB
:1026E00053B9002038BD00BF7C18FF1F7018FF1FB2
:1026F00010B500F1080204460121006A00F02CFA2E
:1027000050B1E3693BB96379A268E26163F07F038A
:102710006371012010BD012010BD00BFF8B58379A1
:1027200013B182698A4201D20020F8BD022B0F4604
:1027300005461AD007B32B6AE9681C7C4A1E04F1CF
:1027400009037C1EDA40DC40A24211D9EB69AB6080
:1027500005F1080606E0A968286A00F0C5F9013C01
:102760000028E1D03246002CF5D1EF600120F8BD01
:102770000029EBD0A41AEBE7AF60EF600120F8BDB1
:102780002DE9F04F8B46817985B0012907460192EA
:1027900005D001233B71002005B0BDE8F08F4279E0
:1027A0009107F6D5530708D5FC68B9698C4200F04B
:1027B000B480FFF7B3FF0028EBD0019BFC68002B2F
:1027C0004AD0DFF8A491DFF8A4A1DDF80480386ACC
:1027D0000679013E06EA542616F0FF06C4F3080403
:1027E00043D1002C41D1B968002973D1FA69002A7C
:1027F00000F08380BA60C4F50075ADB245453AD9A2
:10280000057C4169023AAA400E4416441FFA88F535
:102810001CB9F868BA6990424FD23046012100F0E5
:10282000F3F80028B5D04C4404EB050E74450DD0E8
:102830000BF1FF31621E0EF1FF3611F8010F02F8A5
:10284000010F9642F9D1C4EB0E04A344FC68B8EB27
:1028500005082C44FC60BAD1BB69A34262D27A79E4
:10286000BC6142F080027A7165E0C4F50075ADB2DA
:102870004545BA68C4D8017C4069023A8A4006449A
:10288000B5F5007F1644C3D1DAF80020964204BFA4
:102890004FF0FF32CAF800202F4A10680278FE2A53
:1028A000314633D05A46FFF79FFE00283FF471AF00
:1028B0000BF5007B4FF40075C8E700F065F80028C1
:1028C0003FF467AF2549CAF800600A7842F0010278
:1028D0000A70A8E703AA00F007F900283FF45CAFEC
:1028E000386A1F4B90F82050039A4FF6F871102D5C
:1028F00018BF19468A42FFF47DAF3846FFF7F8FE4D
:1029000000283FF446AF386ABA6874E75846FFF7C4
:10291000F9FBB0FA80F04009C7E7019B002B7FF478
:1029200050AF08E00F4B7A791B6823B1019B13B1BC
:1029300042F080027A71120709D5BB79002B3FF46F
:1029400028AF3846FFF79EFE00283FF422AF0198DB
:1029500005B0BDE8F08F00BF7818FF1F7C1AFF1F7D
:10296000F8FFFF0F7018FF1F7C18FF1F6C09FF1F77
:1029700000B583B002AB012203F8011D1946FFF731
:10298000FFFE03B05DF804FB70B51A4C23780BB959
:10299000012070BD184D194B286819680378FE2B6B
:1029A00017D0174AFFF720FE88B1164E316819B9C3
:1029B00000232370012070BD28680378FE2B0FD000
:1029C0000F4AFFF711FE10B100233360F0E700203B
:1029D00070BD0B48FFF796FBB0FA80F04009E3E7C3
:1029E0000748FFF78FFBB0FA80F040090028EBD1D1
:1029F000EDE700BF7C1AFF1F7818FF1F6C09FF1F4F
:102A00007C18FF1F7418FF1F70B5124D2B6883428E
:102A10000E4611D00446FFF7B7FF08B9002070BD7D
:102A20000D4B18680378FE2B0CD00C4A2146FFF79B
:102A300015FD0028F2D02C60094B1978314319702C
:102A4000012070BD21460548FFF7DAFAB0FA80F0A0
:102A50004009EEE76C09FF1F7818FF1F7C18FF1F65
:102A60007C1AFF1FF8B590F82030C469102B1A4B60
:102A700005460E4617461B6816D004EBD1149C423F
:102A800016D106F07F06154A42F826701449287EB2
:102A90000A78012842F001020A7018D9A968114A7F
:102AA0000B4413600120F8BD04EB11249C4208D0B4
:102AB00000212046FFF7A8FF50B195F82030102BD9
:102AC00007D1F6B2054A234622F81670DEE7012048
:102AD000F8BD2346D5E700BF6C09FF1F7C18FF1F18
:102AE0007C1AFF1F7418FF1FC36801338B4218D371
:102AF00070B590F82030102B154B044616460D4645
:102B0000C0691B680FD000EBD11098420FD105F0BF
:102B10007F01104B53F8213023F0704333600120C4
:102B200070BD0020704700EB1120984207D00021B3
:102B3000FFF76AFF50B194F82030102BE7D1E9B2CB
:102B4000044B33F811303360012070BD002070BD9C
:102B50006C09FF1F7C18FF1F2DE9F04F176883B029
:102B60006FB301374FF0000AC36803F1010813B3D4
:102B70008B46064691463C46002505E01C461F460E
:102B8000F3680135AB4216D9A04538BF022421466F
:102B900001AA304638BF2746FFF7A6FF631CD91BA2
:102BA00048B1019A002AE9D18B4510D01C46F36840
:102BB0000135AB42E8D8002003B0BDE8F08FA1F1A9
:102BC000010ABAFA8AFA07684FEA5A1ACCE7012CC6
:102BD000F1D9F36801339C42EDD86FF07042214681
:102BE0003046FFF73FFF0028E5D0A74214D2013C52
:102BF000012CE0D9F36801339C42DCD8621C2146E9
:102C00003046FFF72FFF0028D5D0A74204F1FF344C
:102C100002D0012CEED1CEE7D9F8001059B101292C
:102C2000C9D9F36801339942C5D83A463046FFF70F
:102C300019FF0028BFD0C9F80070BAF1000F01D009
:102C4000013737600120B7E710B4042914D8DFE852
:102C500001F01C1F160319004FF4102472B60E4B1E
:102C600003EBC0004268136823F4702343F08071C3
:102C700021431360116062B65DF8044B70474FF456
:102C80002024EBE74FF43024E8E74FF40024E5E795
:102C90004FF44024E2E700BF8C9600002DE9F84F86
:102CA000DFF834A39AF80030012B47D00546BF4A1D
:102CB000806AE96A032B82E8030041D0052B3FD0EC
:102CC00080468946DFF814B329E0B9FA89F4C4F1E3
:102CD0003F04402C32D80BEBC4022B19506893F8F8
:102CE0003010026804F1280345F823200B1100F08E
:102CF000BF80022B00F00981032B00F01C8101230F
:102D0000A4F12001C4F1200203FA01F723FA02F230
:102D1000174303FA04F628EA060829EA0709404699
:102D2000494605F03FFB48B1B9F1000FCDD1B8FAE3
:102D300088F42034C4F13F04402CCCD9BDE8F88F8E
:102D40009B499C4A08689C4B00F00060C5F88400D1
:102D5000086800F08050C5F88800086800F000504E
:102D6000C5F88C00086800F08040C5F8900009683C
:102D700001F00041C5F894104FF0006C4FF0805EF8
:102D80004FF000414FF000544FF08040C2F800C0B7
:102D9000C2F800E0146010601160C3F800C0C3F80E
:102DA00000E01C601860196001F008FADFF830E2FA
:102DB000824C9EF8002085F89820A0F11103EE2B9C
:102DC000227885F8992098BFA0F110037C487D49AE
:102DD000027885F89A2091F800C07B4A85F89BC05C
:102DE00092F800C085F89CC094BFDBB280238EF8B7
:102DF0000030237003700B70137072B6734B7449FC
:102E0000D3F82C212A67D3F830216A67D3F834210C
:102E1000AA67D3F83821EA67D3F83C31C5F8803087
:102E20003B2001F07FFA6A493C2001F07BFA6849B7
:102E30003D2001F077FA66493E2001F073FA6449BB
:102E40003F2001F06FFA62B6594B4FF0006E4FF021
:102E500080544FF000504FF080414FF00042D5E9D0
:102E60000A89C3F800E01C60186019601A6029E73D
:102E70005BF8342082F880324FF4807202609AF856
:102E80000020032A01F00F013BD0052A39D0032B83
:102E90004FD0022B14BF03220222022C43D0042C59
:102EA000E3B25AD0062B5ED0072B63D0092B68D033
:102EB0000A2B74D00B2B00F095800D2B00F099801D
:102EC000102B65D0152B00F0A280162B00F0A680E9
:102ED0001A2B00F0AA801E2B00F09280212B00F00C
:102EE000AA803B2B00F0A1803C2B00F0AB803E2B56
:102EF0007FF405AF374B1B7843EA0212354B1A704B
:102F0000FDE6E0B2FFF7A0FEF9E65BF834204FF0F3
:102F1000000E82F880E24FF480720260026842F094
:102F200003020260ABE72B4BDB781A43294BDA70C4
:102F3000E5E60122B1E75BF834204FF0000E82F89D
:102F400080E24FF480720260026842F00202026086
:102F5000026822F00102026091E71E4B5B781A437F
:102F60001C4B5A70CBE61B4BDB7843EA0212194B21
:102F7000DA70C4E6174BDB7843EA8202154BDA704D
:102F8000BDE6144B5B7843EA8212124B5A70B6E6E8
:102F9000104B5B7843EA82020E4B5A70AFE60D4B42
:102FA0009B781A430B4B9A70A9E600BFC81AFF1F03
:102FB00004E100E084E100E084E200E03CE400E0C1
:102FC0003DE400E03EE400E03FE400E00004FF1FD9
:102FD0006D040000301FFF1F0402FF1F8C960000CD
:102FE0003BE400E01B4B9B7843EA0212194B9A70BA
:102FF00085E6184B9B7843EA8202164B9A707EE670
:10300000144B9B7843EA8212124B9A7077E6114B6D
:10301000DB7843EA82120F4BDA7070E60D4B5B7877
:1030200043EA02120B4B5A7069E60A4B1B781A43AB
:10303000084B1A7063E6074B1B7843EA8212054B74
:103040001A705CE6034B1B7843EA8202014B1A704C
:1030500055E600BF301FFF1F2DE9F04F4A4B1B788C
:1030600083B0012B019300F08B808146D0E90A6781
:10307000DFF820814FF0000A4FF0010B22E0B7FA91
:1030800087F3C3F13F03A3F12000C3F120010BFA42
:1030900000F52BFA01F1212B08EBC30C03F1280EEC
:1030A00045EA01050BFA03F417D858F8333083F8D2
:1030B00080A2DCF8043059F82E10196026EA0406C4
:1030C00027EA05073046394605F06CF928B1002F8C
:1030D000D5D1B6FA86F32033D3E7019B032B01D079
:1030E000052B4DD1294B99F898201A7099F8992001
:1030F0005A7099F89A209A7099F89B20DA7099F88A
:103100009C201A7172B63B20D9F8701001F00AF9B0
:10311000D9F874103C2001F005F9D9F878103D2059
:1031200001F000F9D9F87C103E2001F0FBF8D9F845
:1031300080103F2001F0F6F862B6D9F884301BB950
:10314000134B4FF000621A60D9F888301BB9104B4E
:103150004FF080521A60D9F88C301BB90C4B4FF0ED
:1031600000521A60D9F890301BB9094B4FF08042D9
:103170001A60D9F894301BB9054B4FF000421A6021
:1031800003B0BDE8F08F00BF0402FF1F3BE400E086
:1031900084E100E08C9600002DE9F04FAD4BAE4885
:1031A000D3F80090C3F800900368AC49AC4A85B0EE
:1031B0001E4601930B6803931F46AA4B06600F60DF
:1031C000D2F800A0196802910846A749C2F800A0E9
:1031D00018600B78063B032B37D9A44BDFF8948299
:1031E000D3E900674FF0010B21E0B7FA87F3C3F191
:1031F0003F03212B29D872B608EBC30251680A6835
:1032000022F0877222F4803242F080720A6062B645
:10321000A3F12001C3F120020BFA01F52BFA02F20F
:1032200015430BFA03F426EA040627EA050730469D
:10323000394605F0B7F858B1002FD6D1B6FA86F363
:103240002033C3F13F03212BD5D905B0BDE8F08F62
:1032500019F4805F40F09C8019F4005F40F09E807C
:1032600019F0200F40F0A28019F4804F40F09A80AE
:1032700019F4004F40F09E8019F4803F40F09E808A
:1032800019F4003340F09E80019AD40300F19E802F
:10329000019B980300F19D80019BD90700F19D805F
:1032A000019B9A0700F1A180019B1B0700F1998007
:1032B000019B5F0700F1C580019B5E0300F1BD80AB
:1032C000019B1D0300F1B580019B5C0500F1AD8001
:1032D000019B180500F1A5801AF0080F40F09D80B1
:1032E0001AF0100F40F095801AF0400F40F08D80DA
:1032F0001AF0800F40F0F8801AF0200F40F0F080B4
:103300001AF0010F40F0E8801AF0020F40F0E08060
:103310001AF0040F40F0D8801AF4807F40F0D0807B
:103320001AF4007F40F0C8801AF4806F40F0C0802B
:103330001AF4006F40F0B880029BD90700F1B0800A
:10334000029B1A0600F1A880029BDB0600F1A08018
:10335000029B5F0700F19880029B1E0700F190809E
:10336000029B9D0700F18880029B9C066DD4029B06
:10337000580646D4039B59013FD4039BDA0138D445
:10338000039B9B017FF561AF394B22221A605CE7FA
:10339000374B03221A6005B0BDE8F08F344B04228E
:1033A0001A6052E7324B1A221A604EE7304B19224C
:1033B0001A604AE72E4B1B221A6046E72C4B1C2250
:1033C0001A6042E72A4B27221A603EE7284A136018
:1033D0003BE7274B01221A6037E7254B10221A6082
:1033E00033E7234B12221A602FE7214B11221A6078
:1033F0002BE71F4B21221A6027E71D4B18221A606A
:1034000023E71B4B15221A601FE7194B0B221A608A
:103410001BE7174B0A221A6017E7154B09221A609F
:1034200013E7134B20221A600FE7114B1F221A607B
:103430000BE70F4B1E221A6007E70D4B1D221A6087
:1034400003E70B4B13221A60FFE6094B14221A60A4
:10345000FBE600BFA0900440A0A00440A0D0044020
:10346000A0B00440A0C004400402FF1FC81AFF1F00
:103470000002FF1F8C9600001D4B0E221A60E4E62E
:103480001B4B08221A60E0E6194B07221A60DCE6A3
:10349000174B06221A60D8E6154B05221A60D4E6AF
:1034A000134B02221A60D0E6114B26221A60CCE69A
:1034B0000F4B25221A60C8E60D4B24221A60C4E681
:1034C0000B4B23221A60C0E6094B17221A60BCE698
:1034D000074B16221A60B8E6054B0F221A60B4E6B5
:1034E000034B0D221A60B0E6014B0C221A60ACE6C9
:1034F0000002FF1FFFF750BE704700BFF8B52C4D0C
:103500002B78012B29D0032B04462BD0052B29D057
:103510002848618D284A01801068C0071ED41068B1
:1035200040F0010010602548254A0568E5621668EC
:10353000244D26632E68666300270526032B2F6023
:10354000066011602BD0B34229D01F4A137A43F092
:10355000010313721B4BC1221A60F8BD012284F8CB
:103560003820E0E7194B1B7884F8273000F026FE5E
:10357000A0F11103EE2B98BF1038144B94BFC0B2CA
:103580008020187072B6124A124BD2F828211249C4
:103590001A603A2000F0C6FE62B62B78B8E70F4BEF
:1035A00000214FF08062186884F828101A60D1E773
:1035B0000402FF1FD01AFF1F38800440040004409B
:1035C0000800044000000440301FFF1F3AE400E000
:1035D0000004FF1FD41AFF1F6D04000004E100E087
:1035E0001D4B1E4A1B780021012B116032D0032B8A
:1035F00010B504461BD0052B19D0194BE26A1A608E
:10360000226B5A60154A94F83930616B11602BB9FE
:1036100002F51432137803F07F03137094F83830F6
:1036200023B9104A136823F00103136010BD94F806
:1036300028301BB90C4B4FF080621A600B4B94F88A
:1036400027201A7072B60A4B3A20196800F06AFEF9
:1036500062B6D2E7704700BF0402FF1F00000440BB
:10366000040004403880044084E100E03AE400E0D3
:10367000D41AFF1F0C4A0D4B0D491B880D4810B47E
:10368000146814FA83F313600B788024032B04600E
:1036900004D0052B02D05DF8044B7047064B5DF853
:1036A000044B24221A607047DC1AFF1FD01AFF1F38
:1036B0000402FF1F000004400002FF1F034B1B68B1
:1036C000DB0700D47047FFF7D5BF00BF3880044048
:1036D00010B4047F4160022CC26003D05DF8044B3B
:1036E00002F0F0B883685DF8044B1847F0B4464B1D
:1036F000464A986B5C6B01791170454922790A70D2
:103700001A6B00790870002A46D05968C9688A4245
:103710003ED82168CC8B240402F1FF3065D4C0F37D
:103720000E00C883C88B80B2C882996B0968C88BA9
:10373000000452D4C2F30E00C883C88B002480B2A8
:1037400012F1FF32C88218BF01221C63596B2E4848
:1037500009680D6800F12C04A54236D00068C468E1
:1037600014F0804F0C680D6815BF2488247802354A
:10377000013544F000440D604463996B254B097991
:103780001970214912B14A6B12791A70F0BC704756
:10379000521A1A630122D9E7D86B196805681E4CC2
:1037A0000A63CC62CC682D681C4E24F08044032749
:1037B000B542CC6083F82D701FD1037F4260022B8D
:1037C000C2601ED0F0BC02F07DB8016890F82C00F9
:1037D000CC6840F000404863CFE7CC8BC2F30800D0
:1037E00004F47E442043C883A7E7CC8BC0F30800D1
:1037F00004F47E442043C88394E72B461146F0BC72
:1038000018478368F0BC18477009FF1F1F800040ED
:103810001C8000401B80004000000FFFD1360000DC
:1038200090E80C00F0B41C6859682568164F174ED4
:1038300029432160164D17491760D6601561116044
:10384000417A154A5C180C3194F82C4053F82150F9
:1038500002EBC40149680D60017A5C1803EB810139
:10386000247ECD6902EBC40149680D60817A581845
:1038700003EB810390F84000596C02EBC002F0BCEE
:1038800053681960704700BF01401F0001100038E5
:103890000110007800001F808C96000042680368C9
:1038A00005CA10B4046822430260DA6889B942F09C
:1038B0008072D9688A4209D0196848040CD40A4831
:1038C000186042F08040DA60186119605DF8044BBE
:1038D000704722F08072ECE742F08041DA605DF8D8
:1038E000044B1961704700BF01401F0043680CCBB7
:1038F00011680B43136070474268036805CA10B42F
:10390000046822430260D868840100F0E06205D5B3
:10391000080900F4706021F470410143D868114334
:10392000814209D01A68500409D40848186041F04F
:103930008040D96018611A605DF8044B704741F00F
:103940008042D9605DF8044B1A61704701401F0046
:1039500090F8392090F83800101A704790F83830F5
:1039600090F839209A4205D95A1C034480F838202F
:10397000187E70474FF0FF30704700BF90F8383026
:1039800090F839209A4286BF1B18187E4FF0FF30FE
:10399000704700BF704700BF38B50546B0F85E00FD
:1039A00090B195F85D301446C3F1210294420CD8D1
:1039B00005F13B001844224600F026FB95F85D30E7
:1039C000234485F85D30204638BD01201446287117
:1039D000EEE700BFB0F85E306BB190F85D30202BA1
:1039E00007D8C218013380F85D30012082F83B10FF
:1039F0007047012303710020704700BF0023426914
:103A000080F8383080F8393080F85C3080F85D30EC
:103A100080F85E3080F85F3006CA30B40D68046903
:103A200043662A4383660A60A370426990F8613056
:103A30001649146813441D7A5B7B01EBC5051B0214
:103A40006D6803F4E06343F064032B6090F8623028
:103A500013449D7CDB7D01EBC5011B02496803F427
:103A6000E06343F064030B6021685368194205D09A
:103A700003692C225A70036904229A710369202277
:103A80005A71036980229A7030BC70478C9600008E
:103A900038B50269D478E4B2E106054624D510238E
:103AA000D37063061FD504F0040404F0FF03002C58
:103AB0005AD042496A6E00230B7085F85D30002AA7
:103AC00066D0904795F85D30002B61D02B69D022ED
:103AD0009A702B6995F83B201A712B69012285F8A1
:103AE0005C200222DA7038BD04F0400303F0FF00CE
:103AF000002BD8D19379DBB203F0600160294ED05E
:103B0000937803F0100303F0FF01B3B114F0010444
:103B100037D195F85C3095F85D1099424BD9591C16
:103B20002B4485F85C1093F83B3013712B69D0223D
:103B30009A702B690222DA70D5E785F860109379C4
:103B400043F0200393712B6995F839101A791F29D6
:103B5000D2B2C6D8194800780028C2D068180131FE
:103B600085F839100276BCE72A6985F83930C02318
:103B700093702B69114A1979012111700222DA70B0
:103B8000B1E7C02393702B691A790222DA70AAE791
:103B90000122002385F85D2085F83B3096E703F08D
:103BA000DF039371AB6E23B185F8380095F83900C7
:103BB00098472A69A4E71471B8E700BFD81AFF1F15
:103BC0002DE9F047374FDFF8E0903B68026982B09B
:103BD00006460093DDF8008000214FF49675D378F7
:103BE0009B065BD53B680193019BC8EB03030F2B3E
:103BF000F5D949B1102BF2D00020907033698022A2
:103C00009A7002B0BDE8F087726996F8613013448B
:103C10000521187A00F054FD726996F8613013445A
:103C2000012193F812A0504600F04AFD092400211A
:103C3000504600F031FD2B46013BFDD1012150469D
:103C400000F02AFD2B46013BFDD1013CEFD170690C
:103C500096F8611001444FF416720C7A4B7B09EB15
:103C6000C4011B02496803F4E06343F064030B6082
:103C700096F862300344997CDB7D09EBC1011B029D
:103C8000496803F4E06343F064030B60013AFDD13B
:103C90003269D3789B064FF00101A3D4012002B012
:103CA000BDE8F087DC1AFF1F8C960000F0B50369B1
:103CB0001222DA700269937803F0200385B004467B
:103CC0000D46002B5ED0B42393703C4922690B68EB
:103CD0000093009E05E00B680193019B9B1B042B46
:103CE00042D8D37803F0200303F0FF00002BF2D07A
:103CF00094F85D30002B31D04FF0000E4FF0020CE5
:103D000004EB0E0393F83B3013710B680393039F8E
:103D1000206907E09B060DD50B680293029BDB1B15
:103D2000052B28D8C378DBB203F0020202F0FF06AD
:103D3000002AEFD080F803C02669F378DBB2DF06F3
:103D400032462DD49F062BD5DB0731D40EF1010E60
:103D500094F85D305FFA8EFE7345D1D800201DBB0C
:103D6000002384F85E3004E09070236980229A700A
:103D7000042005B0F0BD86702369802204209A706B
:103D800005B0F0BD03F0FF06FFF71AFF10B90420DD
:103D900005B0F0BD236984F85F60B0229A7094E7A3
:103DA0008023B3700420DAE726698023B370D7E755
:103DB000BEF1000F0CBF02200320F6E7DC1AFF1F44
:103DC0002DE9F04106690025122780F8385080F867
:103DD0003950F770D0F810C09CF802E00EF0200EB9
:103DE00088B00446884615461E46BEF1000F49D0ED
:103DF000B4238CF802307A4B21691A680092DDF8FE
:103E000000E006E01A6801920198CEEB0000042859
:103E100030D8C87800F0200000F0FF070028F1D06B
:103E20004FEA480242F00102D2B20A711A680292C5
:103E3000DDF808E0206906E01A6803920399CEEBEA
:103E4000010105292AD8C17801F0020101F0FF071C
:103E50000029F1D04FF0020C80F803C02269D1781C
:103E600011F0110722D12DBB002E0CBFA0238023FF
:103E7000937003E08F70236980229A70384608B0EF
:103E8000BDE8F0810EF0FF07FFF79AFE0028F5D09D
:103E9000236984F85F70B0229A70ACE78770236959
:103EA000802238469A7008B0BDE8F0818023937074
:103EB0000027E3E7012D78D0A021917021690A79CC
:103EC000BE4667464FF0A80C1A680492049805E0B5
:103ED0001A680592059A121A052A4DD8CA7802F076
:103EE000020202F0FF08002AF2D0CF702169CA78DE
:103EF000D2B212F0100F08465DD192065BD5013D9B
:103F0000EDB2012D4CD0BEF11F0F3ED90A79012D23
:103F1000DAD11A680692069D05E01A680792079A98
:103F2000521B052A56D8C27802F0020202F0FF01A5
:103F3000002AF2D00223C3702269D378DBB2D906FB
:103F40003BD49B0637D5B023BEF11F0F937043D8E7
:103F5000226904EB0E0312791A760EF1010E5FFA54
:103F60008EFE00BF00BF00BF16B1236980229A7089
:103F700084F839E0774681E781F80280236980225E
:103F80009A70774684F839E078E704EB0E0291F8EE
:103F9000048082F818800EF1010E5FFA8EFEB6E7FB
:103FA00081F802C021690846ADE7A8219170206917
:103FB000BE460279ADE7774660E710214FF496736D
:103FC000D170013BFDD12269937803F0F703774666
:103FD000937053E78170D1E723691B79C1E700BF74
:103FE000DC1AFF1F0148FFF753BD00BF1C0AFF1F6B
:103FF0000148FFF74DBD00BF880AFF1F0148FFF7CA
:1040000047BD00BFB009FF1F844641EA000313F01B
:1040100003036DD1403A41D351F8043B40F8043BCF
:1040200051F8043B40F8043B51F8043B40F8043B92
:1040300051F8043B40F8043B51F8043B40F8043B82
:1040400051F8043B40F8043B51F8043B40F8043B72
:1040500051F8043B40F8043B51F8043B40F8043B62
:1040600051F8043B40F8043B51F8043B40F8043B52
:1040700051F8043B40F8043B51F8043B40F8043B42
:1040800051F8043B40F8043B51F8043B40F8043B32
:1040900051F8043B40F8043B403ABDD2303211D3D2
:1040A00051F8043B40F8043B51F8043B40F8043B12
:1040B00051F8043B40F8043B51F8043B40F8043B02
:1040C000103AEDD20C3205D351F8043B40F8043BD2
:1040D000043AF9D2043208D0D2071CBF11F8013BD0
:1040E00000F8013B01D30B8803806046704700BF96
:1040F000082A13D38B078DD010F003038AD0C3F1A5
:104100000403D21ADB071CBF11F8013B00F8013B86
:1041100080D331F8023B20F8023B7BE7043AD9D345
:10412000013A11F8013B00F8013BF9D20B7803701A
:104130004B7843708B7883706046704708B5104C9D
:1041400008E0236859050DD423681A050FD42368A5
:10415000DB0411D423685803F3D500F06FFD236806
:104160005905F1D501F046FF23681A05EFD501F096
:10417000D7FF2368DB04EDD502F068F8EAE700BF5B
:104180003480044008B5FFF7D9FF00BF704700BF77
:10419000094908B50B6830B16A461844A2F50052C7
:1041A000904202D20860184608BD04F0A1FA0C2320
:1041B00003604FF0FF3008BDF40AFF1FEFF31380D8
:1041C00070B9EFF310836BB9EFF305825AB94FF46E
:1041D0008070EFF311832BB1984228BF18467047C7
:1041E0004FF0FF3070470F2A01D81846F1E7014B16
:1041F000D05CEEE7F0E300E0084A1378802B01D0B2
:10420000002070470649074B0748086000211970D5
:104210001378802BFCD00120704700BF03E00740DB
:104220004480044001E0074000002822094A137836
:10423000012B01D00020704703F1804303F5FC23DC
:10424000602119701378802BFCD1034B034A1A604C
:104250000120704703E0074044800440000006024C
:1042600010B4114B53F8302092F8804234B101233E
:1042700079B182F880305DF8044B704703EBC003DE
:104280005B681A6851B922F002021A605DF8044BAB
:10429000704782F800315DF8044B704742F003022A
:1042A0001A605DF8044B70478C9600001C4A02EBC4
:1042B000C00301295B6811D004291BD052F83000DB
:1042C000002280F8802229B1022920D0032922D09F
:1042D0001A6070474FF480721A60704752F83000CD
:1042E0004FF4A27280F880121A601A6822F020023D
:1042F0001A60704752F830104FF4A272012081F812
:1043000080021A601A6842F020021A60704740F278
:1043100003121A6070474FF481721A60704700BF31
:104320008C9600001030024B43F82010704700BFFD
:104330000004FF1F30B4054B054D064C0022102130
:104340001A602A602060196030BC704714D00340A6
:1043500004D0034000D0034038B5A0F14203012B44
:10436000044624D900297ADD994B1B78012505FAEA
:1043700003F28A4202D83F282CD938BDC21E012A36
:1043800030D9A0F11D02012A78D90E285BD9A4F1F9
:104390002302032A5CD9A4F11002012A94BF8D4A9A
:1043A0008D4A126802FB011222FA03F320E0884BC7
:1043B0001B780B2B0AD90C2B1CBF0C3B1941422C30
:1043C000084657D0BDE8384001F0C0BDC3F10C032A
:1043D0009940F4E72946FFF743FF2946BDE83840F6
:1043E000FFF764BF7D4A126802FB011222FA03F351
:1043F000A21E242A00F2E380DFE812F0DA00D300E4
:10440000CC00C500BE00B700B000A900A200E100CA
:10441000E100E1009B00E10094008D00E100E1007B
:1044200086007F0078007100E100E100E100E1001A
:10443000E1006A006300E100E100E100E1005C00EE
:1044400055004E00470044F28412C240D2079ED568
:10445000634A126802FB011222FA03F3C8E73F28FD
:104460008BD80021FFF7FCFE20460121BDE8384033
:10447000FFF71CBFBDE8384001F04ABD594A126839
:1044800002FB011222FA03F3B2E75749574A0B60C5
:104490004FF45173136038BD5549564A0B604FF4C1
:1044A0005173136038BD5449544A0B604FF4517333
:1044B000136038BD5249534A0B604FF45173136077
:1044C00038BD5149514A0B604FF45173136038BDE8
:1044D0004F49504A0B604FF45173136038BD4E4939
:1044E0004E4A0B6040F24443136038BD4C494D4A7C
:1044F0000B6040F24443136038BD4B494B4A0B609C
:1045000040F24443136038BD49494A4A0B6040F2C7
:104510004443136038BD4849484A0B6040F2446345
:10452000136038BD4649474A0B6040F2446313604C
:1045300038BD4549454A0B6040F24443136038BDDD
:104540004349444A0B6040F24443136038BD42493A
:10455000424A0B6040F24443136038BD4049414A2F
:104560000B6040F24443136038BD3F493F4A0B6043
:1045700040F24443136038BD3D493E4A0B6040F26F
:104580004443136038BD3C493C4A0B6040F244430D
:10459000136038BD3A493B4A0B604FF451731360C6
:1045A00038BD3949394A0B604FF45173136038BD37
:1045B0003749384A0B6040F24443136038BD3F2C02
:1045C0003FF6DBAE7F29D4BF00210121204649E719
:1045D000F80AFF1F08900C40088003400890034031
:1045E00008900B4008800B4048900B402CB00440D2
:1045F00040900B4028B0044038900B4024B0044059
:1046000030900B4020B0044018800B404CA0044078
:1046100010800B4048A004401880034008B00440BC
:104620001080034004B004404080034018C00440A0
:104630003880034014C0044018900C4004A004408B
:1046400010900C4000A0044018900B4004C004409F
:104650002880034010B00440208003400CB0044088
:1046600028900B400CC0044020900B4008C0044030
:104670003080034010C00440488003401CC0044008
:104680001890034034900440109003403090044050
:1046900010900B4000C004403F2801D8FFF7E0BD58
:1046A000704700BF3F2806D8044B53F8303093F8CA
:1046B0000002C0B270470020704700BF8C96000017
:1046C0003F2801D8FFF7F2BD704700BF2DE9F8433E
:1046D000054672B6224F234B234A1B683C6812687A
:1046E00062B6520102D5322B88BF0134B5B3C3F58F
:1046F0002F3303F21F331D4EDFF86890DFF8688018
:104700009B084FF47A72A6FB031302FB04F404EB3C
:10471000930472B6D9F800103A68D8F800E062B68F
:10472000C1F52F3303F21F339B08A6FB03031EF0D2
:10473000806FC4EB93034FF47A7002D0322988BFA4
:10474000013200FB0233B3F57A7F04D3013D05D07B
:1047500004F57A74DDE701F009FBDAE7BDE8F883D8
:10476000DC1AFF1F18E000E004ED00E0176CC11632
:10477000F8B54E4B4E48DFF85CC14E4C4E49DFF861
:1047800058E14E4E4E4D4F4F4FF000621A604FF0C1
:1047900080521A604FF000521A604FF080421A6047
:1047A0004FF000421A600022026028234EF6FF708C
:1047B000CCF80000CEF8003023600EF5012E0B601F
:1047C00033602B6006F500263B6005F50025A362EB
:1047D00007F500278B6204F5012401F5012106F697
:1047E000E87605F6E87507F57F6710310EF1100ED3
:1047F000203433602B60CEF800303B600B602360C8
:10480000314CBB618B6109212160A7F5002704F5BC
:104810008054203F08343A602060BB60E36047F872
:10482000041C04F5FD2407F5FE27043704F2FC748C
:1048300022603860A360FB6044F8041C083404F66E
:10484000FC74C7F8FC2F2060A4F5E124A4F2DC740A
:1048500033602B60C7F8F81F21681C4841F40071D1
:10486000216001681A4C0EF57F4E0EF1E80E07F537
:10487000883706F5803605F5803541F00071016016
:10488000CEF8002047F6FF710822396033602B60B4
:10489000226001F0CDFA3220FFF718FF00F0FAFD98
:1048A0004FF4AF70BDE8F840FFF710BF04E100E03F
:1048B00004800340148003401C8003402480034094
:1048C0002C80034034800340008003400480044077
:1048D00000900C40088003400C800340054A064BC2
:1048E00010781B78C0B2DBB2984238BF4030C01A93
:1048F000704700BFE41AFF1FE51AFF1F30B42B4BAF
:104900001A7994061FD52A48DA79037829490133A0
:104910003F2B0978C8BF00238B42D2B203D0264C6C
:10492000D9B2E2540170254A116861B1244A127863
:10493000D2B2934236BFC2F140029B1A9B18272B7A
:10494000C4BF01230B70194AD378DBB2180611D407
:104950005A060DD5154B1B795B0609D5194B1A491B
:104960001B6800220A7003B11A70104B2C22DA70F7
:1049700030BC704711790906EAD5144910480C7803
:104980000178C9B28C420DD04A1C272A84BF00216D
:104990000A460F4D054C98BFD1B2AA5CD2B2E27163
:1049A0000170D5E76C21D170D2E700BF00D006407E
:1049B000E41AFF1FE51AFF1F101BFF1FE01AFF1F5D
:1049C000511BFF1F541BFF1F501BFF1F581BFF1FB6
:1049D000E81AFF1F054A064B10781B78C0B2DBB2FD
:1049E000984238BF4030C01A704700BF601BFF1F9D
:1049F000611BFF1F30B42B4B1A7994061FD52A4830
:104A0000DA790378294901333F2B0978C8BF00239D
:104A10008B42D2B203D0264CD9B2E2540170254A5F
:104A2000116861B1244A1278D2B2934236BFC2F102
:104A300040029B1A9B18272BC4BF01230B70194AF5
:104A4000D378DBB2180611D45A060DD5154B1B7955
:104A50005B0609D5194B1A491B6800220A7003B17D
:104A60001A70104B2C22DA7030BC7047117909068D
:104A7000EAD5144910480C780178C9B28C420DD09F
:104A80004A1C272A84BF00210A460F4D054C98BFB7
:104A9000D1B2AA5CD2B2E2710170D5E76C21D170BB
:104AA000D2E700BF00A00E40601BFF1F611BFF1F6D
:104AB0008C1BFF1F5C1BFF1FCD1BFF1FD01BFF1F8D
:104AC000CC1BFF1FD41BFF1F641BFF1F431E032BA8
:104AD00014D872B60A4951F8230068B170B4094C71
:104AE000058834F81320466841F82360521B24F8E7
:104AF000132062B670BC704762B6704700207047E2
:104B0000301CFF1F441FFF1F013803280BD872B64B
:104B1000074B53F8203043B100205B680130002B75
:104B2000FBD162B67047002070471846F9E700BF16
:104B3000841CFF1FF0B472B61A491B4E012311F8F2
:104B4000014B194F9A00240742F0010505D556F88C
:104B5000324064B156F83520BAB10133052BEED19D
:104B600062B6124B00221A70F0BC00F01BBD0F4C55
:104B70000F4D217847F8325007EB431308304A1E97
:104B80005860227062B6F0BC70470849094B0A7839
:104B900047F8353007EBC5030830013A58600A7012
:104BA00062B6F0E7C49800000000FF1FAD1CFF1FB5
:104BB00088004000C8004000431E032B1DD81B4A3C
:104BC000400140F0100030B4104472B6184CE25C62
:104BD000032A1BD8DFE802F00212151703220D8802
:104BE000E25410F0080F14BFC823882343EA05439A
:104BF00008310360416062B630BC70470830022261
:104C0000EDE70522EBE708300422E8E7094A52F80D
:104C1000230038B1084A52F82300416042F82310BB
:104C200062B6E9E742F82310034AF7E70000FF1FE6
:104C3000BC1CFF1F841CFF1F941CFF1F2DE9F04F9D
:104C4000DFF804A3DFF804B387B044E0A94F4FEACC
:104C5000930807EBC809013ED9F8042003F00803C4
:104C6000F6B2A2F1080003F0FF04002B40F0FE8032
:104C700057F838301B0C99B222F8081C002B00F0B2
:104C8000EC809D4B22F8064C42F8044C53F8262049
:104C9000002A00F02B82994D55F826305860984C28
:104CA00045F8260034F81630194424F8161000F0A0
:104CB00059FC002800F01382924A934B19F0080F18
:104CC00000F1080018BF1346C9F8040047F838304F
:104CD00008238AF800309AF80040E4B260071AD539
:104CE0008A4B1B78A3B18A490A7802F0FF0322B1EC
:104CF000013BDBB20B7003B900BE86490A7802F0B3
:104D0000FF032AB1013BDBB20B70002B00F0BD8129
:104D100004238AF8003004F0080303F0FF02002B9C
:104D200000F0C8809BF80030DBB21E098ED19C08D1
:104D3000704F57F8342007EBC401C2F38302013AE5
:104D400049680C2A00F28580DFE802F079798383D4
:104D50008383838342838383070008686E4B6F4D90
:104D60000193684B4A686E4E47F8343081B240F286
:104D70008164694B6A60286000220120A1421A60A8
:104D80003A61BA61307000F2E380B1F5D06F80F023
:104D90002782B1F5817F00F0E08100F2C381802994
:104DA00000F03682822940F0DE81A9885D4B01F057
:104DB0007F01042900F2D8815B4C89000B442270EA
:104DC00062701A78930740F122832070022023E258
:104DD000514B01931A683AB3544B514E54491888B9
:104DE00034780D784028864645F0020828BF4FF0F9
:104DF000400E002C84F001043470CEEB00000CBF98
:104E00008824C82407EBC80680B285F0010544EA6F
:104E10000E447260188047F8384072440D700028C4
:104E200000F0B780019B1A603C4B1A88B2F5A06F66
:104E30000FD100219A7859703E4B1A7009E0374A19
:104E4000108842F22102904200F0A8802D4A47F8D3
:104E50003420394A012313703AE72A4A2A4B19F0C1
:104E6000080F18BF134647F8383031E700F09AFBB7
:104E7000324A334952F82630002B00F03B81586803
:104E80008C5D42F8260003F10802C9F80420032CC7
:104E900005D8DFE804F02C02292602228A551A8858
:104EA00019F0080F0CBF8823C82343EA024347F8D0
:104EB00038300DE7E00700F1EB80210600F1288192
:104EC000A20706D51F4A204913780220DBB21370CF
:104ED0000870E30602D51C4B10221A7007B0BDE81B
:104EE000F08F04228A55DAE705228A55D7E7032294
:104EF0008A55D4E70000FF1F301CFF1FDC1BFF1F7B
:104F0000441FFF1FC800400088004000B81CFF1F5E
:104F1000411CFF1FC01CFF1FD81BFF1FA41CFF1F2D
:104F2000401CFF1FC0200740B01CFF1FEC1BFF1FD1
:104F3000AC1CFF1F9820074094200740841CFF1FD3
:104F4000BC1CFF1F8820074080200740902007409E
:104F500042F22104A14200F0948043D8B1F5086FD9
:104F600000F0A881B1F5106F40F0FD80B84AB94C4F
:104F7000A978117004F1800503E00834AC4200F018
:104F80009E81236A1906F8D5606A083800F00AFB8A
:104F9000F3E7BEF1400F18BF002243E7AE4ACD1D34
:104FA00011F8013B02F8013FA942F9D1AB4A12685E
:104FB000862A00F01181AA49AA4E0A78307882F038
:104FC0000105002842F002020D700CBF8821C821A3
:104FD00047F8321007EBC20280F001000021307068
:104FE000516033E742F22124A14240F0FE81DFF814
:104FF000BCC29D4B9D49AC78DCF800501D608146D9
:105000000C700020029080468446044694490D7836
:1050100045F0020E07EBCE03B9F1000F5C600CBF48
:105020008824C82444EA080385F0010447F83E3088
:1050300032700C70DFF81CE28A4BDFF82482002803
:1050400040F09880BCF1400F1BD144F0020407EB04
:10505000C403029FDFF8FCE15F60002A40F09F80FC
:10506000020442F0880207444EF8342086F800908B
:105070000D703B46402804D100207D4A01991080E4
:105080000B607C4A01231370E3E600F0F7FB3FE678
:10509000704B784872491A614FF0020E80F800E0B8
:1050A000754F0A70754919609960754E754D764C4B
:1050B0009A610D213970FF213170DFF8F4E1297018
:1050C0002270724D724A8EF800109F27012406F854
:1050D000047C5D600470DA6007B0BDE8F08F6D4A53
:1050E00047F83800137801331370F1E543F82600D0
:1050F000694DD4E58B5D032B67D801A252F823F0EC
:10510000D14C0000D14C0000555100004F5100001F
:1051100059495C4B80220D2008701A70A2077FF558
:10512000D8AECFE640F20232914240F05681A988D3
:1051300001F07F01042916D86A88A2B94E4C890073
:105140000C448146217841F00201217059E7012386
:105150008B55BDE500238B55BAE5A98801F07F0189
:10516000042940F24781444B0F221A70414A01231F
:1051700013706EE640287FF668AF44F002040EEB31
:10518000C401029E4E60AAB1444A83F8009033469F
:10519000403888F8005040334EF834206DE7020460
:1051A000029B86F8009042F0C8020D7003444EF84E
:1051B00034205FE783F80090029B304A88F8005063
:1051C000403840334EF8342057E719F0080F0CBF31
:1051D000022303238B557BE5314A0F211170EAE648
:1051E000304A5468002CBED06888B5F804E003E06B
:1051F0000C325468002CB6D013888342F8D15388FF
:105200007345F5D1000A03280CBF2078108903E00C
:10521000254C022022706270EA88824280F00C8164
:105220000F490D78402A45F0020E944607EBCE0058
:1052300028BF4FF0400C04EB0C0344600293CCEB0E
:1052400002004FEA0C484FF001090022C824E9E6A9
:10525000B81CFF1F0000FF1F4B1FFF1F4C1FFF1F2D
:10526000AC1CFF1F401CFF1F541FFF1FD01CFF1F43
:10527000EC1BFF1F94200740C0200740880040001F
:10528000882007408020074098200740F01BFF1F20
:10529000441CFF1FAD1CFF1FDC1BFF1FC80040008C
:1052A000411CFF1FC8980000B01CFF1FDC1AFF1F25
:1052B0008C200740684A694C12782270ACE7684934
:1052C000684B694A02916949694C6A4D0394059695
:1052D0004FF0000988461C4616460495206828B100
:1052E000456800F05FF92846002DF9D100232360BE
:1052F000049B30681A46002342F8293028B14568DB
:1053000000F050F92846002DF9D100223260029AAF
:1053100098F800301146002241F8042B039A0291BC
:10532000023B4FF0000122F81910032B07D8DFE8E9
:1053300003F0340234024FF0010388F8003009F121
:105340000109B9F1040F04F1040406F1040608F19F
:105350000108C3D1484B059EDFF83091DFF830815A
:1053600000211970012518F8013B09F8043B1A07C0
:1053700018D4AC0044F0020244F00304002347F8C0
:10538000323047F834303D4B994505F10105EAD1FB
:1053900096F8009089F0010233E64FF0000388F898
:1053A0000030CCE700F0DEF8AC0007EB451300F16D
:1053B0000802002837D05A60314B47F8343000F0EB
:1053C000D1F844F0010307EBC30200F1080100B378
:1053D00051602C4A47F83320CCE7B1F5A06F7FF439
:1053E000C2AE00224FF001090BE642F22132914297
:1053F000F7D0B8E66A88002A7FF4B5AE224C89005F
:105400000C448146217821F002012170F9E5022047
:1054100002E7194B44F001021B7847F83200164AA4
:1054200001331370A6E7144B134A1B78AC00013309
:1054300047F834001370C2E74028844628BF4FF075
:10544000400C04EB0C03CCEB00004FEA0C48029339
:1054500000224FF00109D9E5B81CFF1FB01CFF1F47
:10546000941CFF1F301CFF1F841CFF1FBC1CFF1F50
:10547000441FFF1FDC1BFF1FAD1CFF1FD420074074
:1054800088004000C8004000C0200740C4200740FA
:10549000C49800002DE9F041274C00F0C5FF002220
:1054A00004F1880023461A605A60083383424FF0A3
:1054B0000001F8D12148224A0368DFF89CE0214E20
:1054C000214D224FDFF894C0DFF8948043F480230D
:1054D0000360136843F04073136003238EF80030B9
:1054E000A023337002F5C922C4F3072300F5283046
:1054F0002B708030C4F3074310323B70240EFF231F
:105500000470134D8CF80030124888F80030137086
:10551000012306F8AC3C4FF400140EF8441C70262E
:10552000102107F82C3C2E70046082F8F810AEF1C0
:10553000440EBDE8F08100BF0000FF1F348004402E
:1055400000D80040402107409C200740B020074081
:1055500035E400E004E100E04421074080200740FA
:105560008820074072B60D480268B2FA82F30B2B0E
:1055700010DC4FF00041D94022EA0102026062B61D
:10558000074803EBC303DB00C2180021C1501046DB
:105590005160704762B60020704700BFFC0AFF1FD1
:1055A000D005FF1F0D4B0E4AC31AA2FB03231B0994
:1055B0000B2B0CD80B4A127852B972B60A484FF02E
:1055C0000041026821FA03F31A43026062B6704791
:1055D000064A1278002AF0D0FFF7ACBAD005FF1FB8
:1055E000398EE338AD1CFF1FFC0AFF1FB81CFF1FDC
:1055F00038B50F4D286878B143880288C118013347
:1056000093420C7A02D24380204638BDFFF7CAFF8E
:10561000002320462B6038BD064B1B782BB103209E
:10562000FFF754FA28600028E6D14FF0FF3038BD6C
:10563000CC1CFF1FB81CFF1F10B5094C206818B107
:1056400043881844007A10BD064B1B782BB1032009
:10565000FFF73CFA20600028F2D14FF0FF3010BD78
:10566000CC1CFF1FB81CFF1F044B054A1B68908809
:105670001BB11A885B88D31A18447047CC1CFF1FD3
:10568000441FFF1F0B4B1B789BB110B50A4C2068C1
:1056900048B1FFF787FF002303202360FFF716FAC6
:1056A00030B1FFF77FFF0320FFF710FA0028F8D191
:1056B00010BD7047B81CFF1FCC1CFF1F2DE9F04F19
:1056C000DFF8F89083B0012289F80020019169B3D6
:1056D000DFF8EC80354F019E8346D8F80000B0B368
:1056E000334D4488C4F14001B14228BF314604EB38
:1056F000010E00221FFA8EFE2A70761AA0F802E030
:1057000000F1080251B1013C224459441BF8014BFD
:1057100002F8014F8B45F9D1B0F802E0BEF13F0F1E
:105720000BD8244A05211170002ED6D101980023F0
:1057300089F8003003B0BDE8F08F402202800146B6
:105740000420FFF739FA0022C8F80020E9E73A7888
:1057500022B3194C164D4FF0010A07E0013C16D058
:105760002A78A2B900F002FB3A78BAB10420FFF718
:10577000CBF90728F2D889F800A0FFF7F3FEC8F8A4
:1057800000000028ADD10D4B013C1870E8D1012379
:105790004FF0FF302B7003B0BDE8F08F00234FF0C7
:1057A000FF3089F8003003B0BDE8F08FB81CFF1F50
:1057B000C81CFF1FC01CFF1F21480100C11CFF1F88
:1057C000C41CFF1F00B583B002AB012103F8010D1B
:1057D0001846FFF773FF03B05DF804FB38B50E4DB4
:1057E0000E4C28680123237028B1408800232370C1
:1057F000C0F1400038BD0A4B1B7813B9002020705F
:1058000038BD0420FFF780F90728F7D8FFF7AAFE74
:1058100028600028E9D1F1E7C41CFF1FC11CFF1F4D
:10582000B81CFF1FF8B5114B1B788BB1104E114DF2
:10583000346801272F7064B10F4A638800271770FE
:10584000214623800420FFF7B7F9376000232B702F
:10585000F8BDFFF787FE084B28B1014604201C70F5
:10586000FFF7AAF9F2E71F70F0E700BFB81CFF1FAF
:10587000C41CFF1FC11CFF1FC01CFF1F38B50E4BEF
:105880001B7873B90D4C216861B103F0FF054B889B
:105890000B800420FFF790F9256038BD084B0122EA
:1058A0001A7038BDFFF75EFE0028F7D00146BDE84C
:1058B00038400420FFF780B9C11CFF1FC41CFF1F24
:1058C000C01CFF1F10B4EFF3108272B6437F33B9D0
:1058D000017F012908D0032910D00123437702B9A1
:1058E00062B65DF8044B7047114C2168A1B11149B3
:1058F00043610B68836108605861EEE70E4C2168D4
:1059000081B10E4943610B688361086058610C4B9B
:105910004FF080511960E0E7064B416181612060E2
:105920001860DAE7054B4161816120601860EEE79D
:10593000E41CFF1FE01CFF1FD41CFF1FD81CFF1F0F
:1059400004ED00E070B5EFF3108272B60C4C2068E5
:1059500080B10C4E00254369236073B19D6102B98B
:1059600062B6457783689847EFF3108272B6206875
:105970000028F0D102B962B670BD3360EFE700BF16
:10598000D41CFF1FD81CFF1FFFF7DCBF184A30B420
:105990001468002C27D0036821688B420ED2CB1AE2
:1059A00000218460C1602360E06010600223037501
:1059B00030BC704711688B42144608D3A2685B1A4A
:1059C0000360002AF6D18260C460A060EEE7D2686E
:1059D000C2608460E060C568CB1A0222A8602360C0
:1059E000027530BC70478460C4601060DEE700BFA1
:1059F000DC1CFF1FF8B5224E34682CB32368002B43
:105A00003AD1204F1D4604E03468ECB12368002BE6
:105A100032D1A36803B1DD60206933600368257566
:105A20001B68BB4221D1037F4560022BC46020D09C
:105A3000FFF748FF6368002BE6D023602046FFF79E
:105A4000A5FF3468002CE1D1EFF3108372B60E4A43
:105A500000211068116003B962B628B18468FFF7AD
:105A600095FF20460028F9D1F8BD2246002198472D
:105A7000E0E783689847DDE7013B2360E4E700BF88
:105A8000DC1CFF1FD1360000EC1CFF1F024A13680C
:105A900001331360FFF7AEBFDC1AFF1F08B5FBF739
:105AA00019FBFBF71BFC00F061F9FAE7F8B572B1DE
:105AB00006460F4614460025336817F8011B1B687D
:105AC00030469847013C0544F6D12846F8BD1546B6
:105AD000FBE700BF00B5064A036812885B6883B025
