:1000000000000320D10100008927000041270000E3
:100010004127000041270000412700004127000040
:1000200041270000412700004127000089270000E8
:100030008927000041270000C13C0000C53D0000A9
:1000400089270000892700008927000089270000F0
:1000500089270000892700008927000089270000E0
:1000600089270000892700008927000089270000D0
:1000700089270000892700008927000089270000C0
:1000800089270000892700008927000089270000B0
:1000900089270000892700008927000089270000A0
:1000A000E9250000F52500008927000089270000C8
:1000B000892700008927000089270000A943000044
:1000C00089270000D5440000892700000146000070
:1000D00089270000F94600008927000089270000D1
:1000E0008927000089270000892700008927000050
:1000F0008927000089270000892700008927000040
:10010000892700008927000089270000892700002F
:1001100089270000E53100008927000089270000B9
:10012000892700008927000089270000892700000F
:1001300089270000892700008927000089270000FF
:10014000892700008927000005300000892700006A
:1001500089270000892700008927000089270000DF
:100160008927000089270000012600008927000058
:1001700089270000892700008927000089270000BF
:1001800089270000892700008927000089270000AF
:100190008927000089270000F14700008927000017
:1001A000892700008927000089270000892700008F
:1001B000892700008927000089270000892700007F
:1001C000892700008927000089270000892700006F
:1001D0005C4B4CF2205210B51A804DF628121A8052
:1001E00000BF00BF02F0D4FA574B4FF030621A60E4
:1001F000564A9A60564ADA60564B4FF470021A60BB
:10020000554B564A1A60564A136813F4807304D14A
:1002100054490B604FF4A8531360534B1A781107DD
:1002200003D51A7842F008021A70504B5049AA229E
:100230001A70504A504B8B4204D252F8040F43F8C4
:10024000040BF8E74D4B4E4900228B4202D243F893
:10025000042BFAE74B494C4A002352F8230041F89B
:1002600023000133742BF8D1484B494A802103F80D
:10027000011B9342FBD1474B424A1A60464B8A22EC
:100280001A70A3F5805324225A70A0221A709A790A
:100290009207FCD59A79D406FCD4404A937903F0AE
:1002A0000C03082BFAD13E4B60221A7002331A78E5
:1002B000802AFCD1394B01221A715D225A719A7938
:1002C0009006FCD59979354A4906FBD5354B364918
:1002D00019600021596020231370937903F00C03F7
:1002E0000C2BFAD1314B324A1A60324B324A1A6027
:1002F00000225A60072243F8042C304AC3F80C2D20
:1003000062B602F087FB174B1B68DA0705D52C484D
:1003100002F010FB2B4B2C4A1A602C4B1B785B060F
:1003200009D5284C284B22689A4204D1244802F06F
:1003300001FB0023236007F0F9F802F02FFA03F025
:10034000EFFDFEE70E20054030800440823F0400B0
:100350000100002B88ED00E0002008E0030000858C
:1003600010D0034014D0034002D0074000E0074003
:100370007411FF1F2C8600003007FF1F7811FF1F2C
:10038000D817FF1F0002FF1F0000000000E400E07C
:1003900064E400E008ED00E0005006400040064044
:1003A00001E007404480044000000602048004404D
:1003B000C010070014E000E01FBF02000000202072
:1003C00070F3E85A1CE00340A5C3945A00F00740BC
:1003D000FFFFFFFFFFFFFFFFFFFFFFFFFFFFFFFF2D
:1003E000FFFFFFFFFFFFFFFFFFFFFFFFFFFFFFFF1D
:1003F000FFFFFFFFFFFFFFFFFFFFFFFFFFFFFFFF0D
:10040000FFFFFFFFFFFFFFFFFFFFFFFFDEF9FFFF23
:1004100010B5054C237833B9044B13B10448AFF33E
:1004200000800123237010BD7811FF1F0000000021
:1004300030860000084B10B51BB108490848AFF3DF
:1004400000800848036803B910BD074B002BFBD0A0
:10045000BDE81040184700BF000000007C11FF1FDE
:10046000308600007411FF1F0000000010B540F23C
:10047000124002F0D7FB2548254C01F043FB1D211B
:100480002060244802F01CFD0121204800F0A8FE55
:1004900005211E4800F078FF2368002B1BDB10218C
:1004A0001D4802F00DFD1D4803F042FD174801F004
:1004B00057F9164800F0FAFA10EE100A06F094FC0C
:1004C00041EC100B0221154803F08AFD1348BDE8EA
:1004D000104003F02DBD1F21114802F0F1FC0F4820
:1004E00003F026FD25210F4802F0EAFC0B4803F03B
:1004F0001FFD08210C4802F0E3FC2168074803F0C7
:1005000067FD064803F014FDFEE700BF9811FF1FCA
:100510006813FF1F747F0000E87F00008008FF1F42
:10052000947F0000B47F0000DC7F0000FFFFFFFF2E
:100530002DE9F04F2DED068B954889B000F02AFC8F
:100540001021944802F0BCFC914800F097FA9048C2
:10055000B0EE409A00F096FA8D48F0EE409A00F026
:1005600095FA8B48F0EE408A00F098FADFED8A7A2F
:100570009FED8A7A864830EE670AE0EE077AB0EEA1
:10058000678A00F087FA824800F08CFA69EEA97A4F
:10059000E9EE097AE8EEA87A17EE900A06F024FC54
:1005A00041EC100B41EC1A0B04F006FB53EC102B42
:1005B00019EE900ACDE9002306F016FCB0EE4A0AC7
:1005C000F0EE6A0A82468B4604F0F6FA19EE100A3B
:1005D00057EC106B06F008FCDDE9002306F082FD05
:1005E00006F04EFF06F000FC41EC100B04F080FA20
:1005F00051EC100B06F044FF06F0F6FB41EC100B3B
:1006000041EC190B04F0B4F932463B4650465946CA
:1006100055EC104B06F066FD06F032FF06F0E4FBE9
:1006200022462B4606F05EFD41EC100B04F060FA0A
:1006300018EE100A59EC108B06F0D6FB064618EEA1
:10064000900A0F4606F0D0FBB0EE490AF0EE690AB8
:10065000CDE9000104F0ECF9494640468DED020B6E
:1006600006F00EFF80F0004006F0BEFB41EC100BE0
:1006700041EC180B04F0DCF959EC108BB0EE480A91
:10068000F0EE680A04F074F932463B4620462946EB
:100690008DED060B06F0FCFBDDE90223CDE904013C
:1006A000DDE9000106F0F4FB02460B46DDE904013A
:1006B00006F03CFA06F0E4FE06F096FB4246CDE971
:1006C00004014B463046394606F0E2FBDDE90223E1
:1006D00006F0DEFB9DED060B064653EC102B0F4695
:1006E0005046594606F0D4FB02460B463046394682
:1006F00006F01CFA424606460F464B46DDE900016D
:1007000006F0C6FB22462B4606F0C2FB02460B460D
:100710003046394606F008FA06F0B2FE06F064FBF1
:100720009DED041B41EC100B04F044FA002251EC47
:10073000100B1B4B06F0ACFB13A3D3E9002306F010
:10074000D1FC06F09DFE07EE900AF5EEC07AF1EEC0
:1007500010FA44BF9FED137A77EE877A17EE900A6E
:1007600006F042FB41EC100B02210F4803F038FC6D
:100770000D4803F0DDFB322009B0BDEC068BBDE86F
:10078000F04F02F0F5B800BF00000060FB21094007
:100790009811FF1FFC7F000000000000CDCCCC3D75
:1007A000008066400000B4438008FF1F68220249B1
:1007B000024800F015B800BF9C07FF1F9811FF1FEB
:1007C00090F8383090F839209A4205D95A1C0344E1
:1007D00080F83820187E70474FF0FF30704700BF18
:1007E0002DE9F04FDFF88482C0F808809B4F9C4DC4
:1007F000DFF87C8287614FF47A79C561C0F8948014
:10080000A0F81091DFF86CC2964EDFF86CE2964CBF
:10081000C0F890C04FF0640A4FF6FF773B254FF0C9
:1008200041084FF01C09C0F89CA0C0F81461A0F862
:10083000747180264FF07E57C0F878E1C0F87C4193
:100840004FF0080E002480F8805180F88281012545
:1008500080F884914FF0430C4FF0490A4FF01D0887
:100860004FF0190980F881C180F883A1C675C0F8DE
:100870000471C0F80871C0F80C71C0F85471C0F868
:100880005871C0F85C7180F818E14FF01B0C4FF004
:10089000370AA0F86441A0F86841A0F86C41A0F8BC
:1008A0006E41A0F87041A0F87241A0F86651A0F81E
:1008B0006A5180F88E8180F89C914FF06B084FF060
:1008C000180980F889C180F89DA180F8A3814FF0B4
:1008D000020A4FF0040880F8889180F88D914FF05B
:1008E000380C4FF00509102780F89EC180F890A1C0
:1008F0004FF0030C80F897A180F892814FF0060A20
:1009000080F8998180F893914FF0400880F89A918F
:100910004FF01A0B4FF0200980F886E180F88BE148
:1009200080F8A56180F895B180F891C180F898C1F0
:1009300080F894A180F89BA180F8A18180F885417E
:1009400080F88A4180F88F5180F8965180F89F4155
:1009500080F8A04180F8A25180F8877180F88C71EE
:100960004FF06C0A80F8A49180F8AB9180F8B681C2
:100970004FF007094FF06A0880F8B26180F8B36160
:1009800080F8B56180F8BB6180F8C2C180F8A7A18A
:1009900080F8A99180F8AA810D264FF0240B4FF022
:1009A000250C4FF0260A4FF027084FF0690980F810
:1009B000BDE180F8AC6180F8ADB180F8AEC180F8DF
:1009C000AFA180F8B18180F8B4914FF0630E4FF081
:1009D0001E0B4FF01F0C75264FF0230A4FF07008C6
:1009E0004FF0720980F8B0E180F8B7B180F8B8C173
:1009F00080F8B96180F8BAA180F8BC8180F8BF9115
:100A00004FF0740B4FF00C0E4FF00A0C4FF0120A1F
:100A10004FF016084FF00F090B2680F8A65180F80A
:100A2000A84180F8BE5180F8C44180F8C0B180F878
:100A3000C1E180F8C3C180F8C5A180F8C68180F803
:100A4000C79180F8C95180F8CA7180F8CB414160E4
:100A50000270447580F8C861BDE8F08F40420F0015
:100A6000C0E1E4009A99993E35FA8E3C801A06005E
:100A70000000A8415CEFA64379E91C4190ED140AFF
:100A8000704700BF90ED150A704700BF90ED160A41
:100A9000704700BF90ED1A0A704700BF90ED1B0A27
:100AA000704700BF90ED1C0A704700BF90ED550ADB
:100AB000704700BF2DE9F04190F8158004461546B7
:100AC0001E46B8F1000F00F00581837D0F46002B14
:100AD00000F086800269D0F81C80DFF89CE2DFF825
:100AE0009CC2002102E0172808D001463EF8023FD0
:100AF0009CFBF3F3984501F10100F4D3974BD07AB6
:100B000053F82130190923F4704301F4706143F064
:100B100078530B43002831D072B6D17AC80709D573
:100B2000DFF85CE2D068DEF800100140D161CEF859
:100B30000010D17A880709D5DFF848E21069DEF89D
:100B4000001001401162CEF80010D17A480709D593
:100B5000DFF834E25069DEF8001001405162CEF84F
:100B60000010D17A090708D5DFF820E29069DEF895
:100B7000001001409162CEF8001062B61268D16890
:100B8000994207D0764810607649D36043F08040A0
:100B9000106111600021207D01F0DEFE2269E37DFD
:100BA00012683B434FF00041D1625363D36A002B7C
:100BB000FCDA936B002D6CD0681E56FA80F0711E23
:100BC00000254FF00046D6625563D36A002BFCDA4D
:100BD000936B01F8013F88425BD023691A68F2E702
:100BE0000169D0F81880DFF890E1DFF890C102E0E9
:100BF000172808D003463EF8022F9CFBF2F29045DE
:100C000003F10100F4D3554AC87A52F8233023F493
:100C100070421B0942F0785203F4706313430028BA
:100C200031D072B6CA7AD00709D5DFF854E1C86866
:100C3000DEF800200240CA61CEF80020CA7A900790
:100C400009D5DFF840E10869DEF8002002400A62B9
:100C5000CEF80020CA7A500709D5DFF82CE14869A0
:100C6000DEF8002002404A62CEF80020CA7A12075D
:100C700008D5DFF818E18869DEF8002002408A62B2
:100C8000CEF8002062B60A68D16899427FF47AAF44
:100C900080E70121207D01F05FFE2269D37AB3B1A4
:100CA000DC0703D5304BD1691960D37A980703D597
:100CB0002E4B116A1960D37A590703D52C4B516A10
:100CC0001960D37A1B0702D52A4B926A1A60012059
:100CD000BDE8F081027843685200012783F83B2089
:100CE00083F85E7083F85D70406803681B689847FE
:100CF0004146606801F0DCFA3B462A46217860688C
:100D000001F060FBA842E06023D10028DFD0013869
:100D1000DFF87C8056FA80F7751E10E090F83830C6
:100D200090F839209A4203F1010600EB03010ED935
:100D300080F83860087E05F8010FAF42C7D06068C0
:100D400003685B694345E9D09847C0B2F3E7FF20E9
:100D5000F1E74FF0FF30BDE8F08100BF40800000B8
:100D600001403F0000003F8000E100E004E100E0BE
:100D700008E100E00CE100E00E8000000087930332
:100D800080E100E084E100E088E100E08CE100E047
:100D9000C10700002DE9F04F2DED028B4FF001034C
:100DA000837587B000F1240390F880111522044662
:100DB000FFF780FE0028C0F23B8194F829300193B0
:100DC00094F8303094F82F70029394F82E8094F8B1
:100DD0003130039394F8266094F82D1094F827206E
:100DE00094F82C9094F8285094F82AA094F833C0E2
:100DF00094F8323094F82BE094F824B0CDF810C079
:100E000047EA0828039F059341EA092942EA062296
:100E10003946019E029F94F8250094F835C046EAB1
:100E200005234EEA0A2E94F8346094F8365041EACD
:100E3000072A0599049F40EA0B2094F837B000B2C6
:100E400012B241EA072746EA0C260FFA8EF136B2B3
:100E500045EA0B25019160870FFA89F1A287B4F961
:100E6000669103963FB22DB2A4F84860B4F964616C
:100E70000297A4F846700495B4F96871A4F84A5032
:100E800009FB02F51BB20FFA88F806FB00550FFAB2
:100E90008AFEBDF804C0B4F96CA194ED1F5A94ED1C
:100EA000200AA4F84CC007FB035509FB08F9B4F964
:100EB00072C1A4F8401006FB0199A4F84280A4F87E
:100EC00044E094ED3E3AD4ED3F3AD4ED406A94EDDF
:100ED000527AD4ED218A94ED536A94ED228AD4EDAE
:100EE0002E2A94ED2F4AD4ED304AD4ED410A94EDE8
:100EF000421AD4ED431AE38707EE905AB4F96AB167
:100F0000B4F96E61B4F9705194ED552A07FB0E994E
:100F100002FB0AF7F8EEE77A00FB0B7702FB0CF214
:100F20000AFB08FA03FB06770CFB08F8B4F974C156
:100F300097EE853A00FB052203FB0C2207EE907A20
:100F4000F8EEE75A07EE902AF8EEE77AD5EE253A62
:100F50000BFB01AA06FB0EA6D5EE276A05FB018155
:100F60000CFB0E1EDDED027AF8EEE75ADDED037A9A
:100F700095EEA87A0120F8EEE77AF0EE475A97EE60
:100F8000886A07EE109A07EE906AB0EE665AF8EE9D
:100F9000C76AB8EEE77A07EE90EAF8EEE77A90EEE5
:100FA000074AD0EE274AD4ED567A84ED184A66EE09
:100FB000277A25EE827AC4ED1B7ADDED017AD4ED35
:100FC000255A94ED244A84ED1A7AF8EEE77AD6EEA3
:100FD000802A77EEE57A65EE216A87EE846AC4EDB1
:100FE000166ADDED046A94ED547AC4ED194AF8EE00
:100FF000E66AD4ED234A94ED575AC4ED172AF0EE71
:10100000477AD6EEA47A23EE203A63EE813A36EEA2
:10101000257A67EE857A84ED143AC4ED153A84EDAD
:101020001D7AC4ED1C7A07B0BDEC028BBDE8F08FD1
:101030004FF0FF30F7E700BFF8B5437D0446154693
:101040000E46002B00F099800169D0F818C0574F68
:10105000DFF888E1002202E0172808D0024637F8BE
:10106000023F9EFBF3F39C4502F10100F4D3504B89
:10107000C87A53F8222022F47043120943F07853BF
:1010800002F470621343002825D072B6CA7AD007E2
:1010900006D54848CA6807683A40CA610260CA7AF9
:1010A000970706D544480A6907683A400A62026011
:1010B000CA7A500706D541484A6907683A404A62E9
:1010C0000260CA7A120705D53D488A6907683A4026
:1010D0008A62026062B60A68D168994207D03948CC
:1010E00010603949D36043F08040106111600021E5
:1010F000207D01F031FC23691B684FF00042DA6269
:101100005E63DA6A002AFCDA4FF00042996BDA6219
:101110005D63DA6A002AFCDA0121207D9B6B01F015
:101120001BFC2269D37AB3B1DF0703D5274BD16902
:101130001960D37A980703D5254B116A1960D37AC1
:10114000590703D5234B516A1960D37A1B0702D57F
:10115000214B926A1A600A2001F00AFC314604F120
:10116000240301222046FFF7A5FC94F82400A8429E
:1011700014BF4FF0FF300120F8BD027843685200E1
:10118000012783F83B2083F85E7083F85D70406828
:1011900003681B6898476068036829461B6898477E
:1011A0003946606801F084F8D5E700BF0E80000082
:1011B0004080000080E100E084E100E088E100E0A0
:1011C0008CE100E001403F0000003F8000E100E0D2
:1011D00004E100E008E100E00CE100E00087930397
:1011E00038B5002304460D468375032917D8DFE878
:1011F00001F04A321A0290F8882190F88411FFF722
:101200001BFF002855DBD4ED5E7ADFED2B6AB3EED1
:10121000007A67EE877A87EEA67A84ED1F7A84F8E3
:101220009850012038BD90F8872190F88411FFF77D
:1012300003FF00283DDBD4ED5E7ADFED1F6A84F802
:101240009850B2EE007A67EE877A012087EEA67A90
:1012500084ED1F7A38BD90F8862190F88411FFF74D
:10126000EBFE002825DBD4ED5E7ADFED136A84F80F
:101270009850B1EE007A67EE877A012087EEA67A61
:1012800084ED1F7A38BD90F8852190F88411FFF71E
:10129000D3FE00280DDBD4ED5E7ADFED076A84F81B
:1012A000985077EEA77A012087EEA67A84ED1F7A10
:1012B00038BD4FF0FF3038BD00FFFF4638B5002382
:1012C00004460D468375032913D8DFE801F03E2A52
:1012D000160290F88D2190F88911FFF7ADFE0028D5
:1012E00047DBD4ED5F7A9FED247A67EE877AC4ED11
:1012F000207A84F89950012038BD90F88C2190F81C
:101300008911FFF799FE002833DBD4ED5F7A9FED5A
:101310001B7A84F8995067EE877A0120C4ED207A11
:1013200038BD90F88B2190F88911FFF785FE0028D1
:101330001FDBD4ED5F7A9FED127A84F8995067EE47
:10134000877A0120C4ED207A38BD90F88A2190F880
:101350008911FFF771FE00280BDBD4ED5F7A9FED5A
:10136000097A84F8995067EE877A0120C4ED207AD3
:1013700038BD4FF0FF3038BDFA007A3DFA00FA3C34
:10138000FA007A3CFA00FA3B38B5002304460D46D1
:101390008375052915D8DFE801F018232E39440399
:1013A00090F8942190F88E11FFF746FE002846DB56
:1013B00094F89B2194F895112046FFF73DFE0028F4
:1013C0003ADB84F89A50012038BD90F88F2190F8CC
:1013D0008E11FFF731FE002831DB94F89621E9E702
:1013E00090F8902190F88E11FFF726FE002826DB5A
:1013F00094F89721DEE790F8912190F88E11FFF78D
:101400001BFE00281BDB94F89821D3E790F892216B
:1014100090F88E11FFF710FE002810DB94F8992148
:10142000C8E790F8932190F88E11FFF705FE002889
:1014300005DB94F89A21BDE76FF0010038BD4FF04D
:10144000FF3038BD2DE9F04190F8B36190F8C171DB
:101450008846154690F8AE1147EA060204461E4635
:10146000FFF7EAFD00281EDB424694F8AF11204644
:10147000FFF7E2FD00281ADB94F8B22194F8B111CD
:101480002A432046FFF7D8FD002814DB012001F095
:101490006FFA33462A4694F883112046FFF70AFB79
:1014A0002062BDE8F0814FF0FF30BDE8F0816FF0C1
:1014B0000100BDE8F0816FF00200BDE8F08100BFDF
:1014C00070B50D46164690F8AE1190F8C12104464D
:1014D000FFF7B2FD00282BDB2A4694F8AF11204617
:1014E000FFF7AAFD002826DB324694F8B01120460B
:1014F000FFF7A2FD002821DB94F8B22194F8B11186
:1015000042F001022046FFF797FD002819DB29462B
:1015100004F1240301222046FFF794FF002813DB87
:1015200094F82430B3420CBF01206FF0050070BD69
:101530004FF0FF3070BD6FF0010070BD6FF0020022
:1015400070BD6FF0030070BD6FF0040070BD00BF90
:1015500038B500230D46837590F89C11132204467C
:10156000FFF76AFD00283DDB092D94F8C42194F8AB
:10157000C311204626D8FFF7A3FF00282CDB6420E8
:1015800001F0F6F994F8C62194F8C3112046FFF74C
:1015900097FF002823DB642001F0EAF904F124031B
:1015A000072294F8C2112046FFF74CFF2A4694F810
:1015B0009C112046FFF740FD002816DB84F89B5065
:1015C000012038BDFFF77CFF002805DB642001F017
:1015D000CFF994F8C521D7E76FF0010038BD6FF05F
:1015E000020038BD4FF0FF3038BD6FF0030038BD4A
:1015F000F8B500210446FFF761FE0028C0F2A08084
:1016000003212046FFF7C0FE0028C0F29C80132172
:101610002046FFF79DFF0028C0F29E80D4F89C1062
:1016200000220023C4E92823C4E92A23C4E92C2387
:10163000002900F0818000252046FFF7ABFBD4F89D
:101640009C0005F0AFFB94ED177AD4ED2E7A77EE7F
:10165000277A06460F4617EE900A05F0C5FB32467C
:101660003B4605F03FFD02460B46D4E9280105F054
:101670005DFA94ED187AD4ED2F7A77EE277AC4E9E3
:10168000280117EE900A05F0AFFB32463B4605F005
:1016900029FD02460B46D4E92A0105F047FA94EDEC
:1016A000197AD4ED307A77EE277AC4E92A0117EE59
:1016B000900A05F099FB32463B4605F013FD0B46B8
:1016C0000246D4E92C0105F031FAC4E92C011420BA
:1016D00001F04EF9D4F89C300135AB42ACD8D4E9D6
:1016E000280105F0CDFE0646D4E92A0105F0C8FE22
:1016F0000546D4E92C0105F0C3FEC4F8C000C4F8C7
:10170000B860C4F8BC5094F899102046FFF7D6FD95
:1017100000281BDB94F89A102046FFF735FE0028BE
:1017200017DB94F89B102046FFF712FF0028ACBF90
:1017300001206FF00500F8BD002005460646DCE7F5
:101740004FF0FF30F8BD6FF00100F8BD6FF00300FF
:10175000F8BD6FF00400F8BD6FF00200F8BD00BFE7
:1017600070B513212DED028B0446FFF7F1FE002822
:10177000C0F2C5812046FFF70DFBD4ED1A6A94ED47
:101780001B7AD4ED1C7AB4F81031C4ED4C6A0026F3
:10179000C4ED4F6A84ED4D7A84ED507AC4ED4E7AF3
:1017A000C4ED517AA4F81A61002B00F0A181002544
:1017B000B7EE008AA0E0B4EEC56AF1EE10FAC4ED0F
:1017C000477A40F30981B0EE677A76EE457A84ED88
:1017D0004D6AF4EEC77AF1EE10FAC4ED487A40F3A0
:1017E000F98094ED4E7AC4ED477AF4EEC76AF1EED3
:1017F00010FA40F3018136EEC77AC4ED4E6AB4EEBA
:10180000E77AF1EE10FA84ED487A40F3F58094ED32
:101810004F5A84ED477AF4EEC55AF1EE10FA40F1D2
:10182000FD80F0EE477A35EEC57AC4ED4F5AB5EE3D
:10183000C07AF1EE10FAD8BFB1EE477AB4EEE77A8B
:10184000F1EE10FA84ED487A40F3E680D4ED507A58
:1018500084ED477AB4EEE76AF1EE10FA40F1EE80DB
:1018600076EE677A84ED506AF5EEC07AF1EE10FA02
:10187000D8BFF1EE677AF4EEC77AF1EE10FAC4ED54
:10188000487A40F3DB8094ED516AC4ED477AF4EE78
:10189000C66AF1EE10FA17D5B0EE677A76EEC67A20
:1018A000C4ED516AF5EEC07AF1EE10FAD8BFF1EE50
:1018B000677AC4ED487AF4EEC77AF1EE10FACCBF3D
:1018C000C4ED477AF0EE477A94ED457AB4EEE77AC4
:1018D000F1EE10FA57BFB4F81A31A4F81A610133C7
:1018E000A4F81A31142001F043F8B4F81A21B4F81E
:1018F00010319A4280F0AD80C4F82051C4F81C51D8
:101900002046FFF747FA94ED556AD4ED1A0AD4ED54
:10191000566A94ED1B1AD4ED1C1A94ED572A94F8CC
:101920001831D4ED524A94ED493AD4ED532A94ED4E
:10193000545AD4ED4A3A94ED4B4AD4ED4C7AC0EE69
:10194000865A81EE266AC1EE826A07EE103AB8EE38
:10195000477A75EEA44A77EE485A36EE226AE3EEED
:10196000254A36EE855AF0EE466AE5EEA36AA5EE04
:10197000845AC4EE875A86EE876AC5EE076AF4EE8B
:10198000E75AF1EE10FACCBF75EEE77AD4ED487A5B
:1019900094ED477AC8BFC4ED4C5AB4EEE77AC8BF9D
:1019A000C4ED487AF1EE10FAC4ED495A84ED4A6A62
:1019B000C4ED4B6A94ED4D5A3FF5FDAEB4EEC56AE9
:1019C000F1EE10FA3FF701AFF4EEC77AF1EE10FA3C
:1019D0003FF707AFF0EE477A94ED4E7AF4EEC76A20
:1019E000F1EE10FA3FF707AF94ED487AB4EEE77ADC
:1019F000F1EE10FA3FF70BAF94ED4F5AF4EEC55AE3
:101A0000F1EE10FA3FF50FAF94ED487AB4EEE77AB5
:101A1000F1EE10FA3FF71AAFB0EE677AD4ED507AD4
:101A2000B4EEE76AF1EE10FA3FF51AAFD4ED487A5A
:101A3000F4EEC77AF1EE10FA3FF725AF94ED516A54
:101A4000F4EEC66AF1EE10FA3FF528AFD4ED487A0D
:101A500031E7D4ED4C6AD4ED4F5A94ED4D7AD4ED84
:101A6000502AD4ED4E7A94ED513A94F89B1036EE0C
:101A7000E54A77EE624AB6EE006A24EE064A64EE64
:101A8000864A37EEC35A74EE243A25EE065AB0EE73
:101A9000082A73EE853A76EEA56AC3EE825A20468E
:101AA00037EE227AC5EE843A85EEA44AC5EE854A21
:101AB00077EE837A66EE866A27EE067A67EE867A96
:101AC000C4ED526A84ED537AC4ED547AC4ED553AAC
:101AD00084ED564AC4ED574AC4ED585AFFF738FD15
:101AE0000028ACBF01206FF00100BDEC028B70BD7F
:101AF000B0EE673AF0EE472AF0EE665AB5E74FF0DF
:101B0000FF30F2E7437D70B50446002B00F06C8196
:101B1000002383750121007D00F024FF207D012139
:101B200000F01AFF206900F0C9F994F8A62194F892
:101B3000A3112046FFF780FA0028C0F2718194F8C3
:101B4000AB2194F8AA112046FFF776FA0028C0F2DC
:101B50006A8194F8AC2194F8AD112046FFF76CFA35
:101B60000028C0F2638194F8C42194F8C311204680
:101B7000FFF7A6FC94F8A52194F8A3112046FFF7DF
:101B80005BFA012000F0F4FE94F8C92194F8C81122
:101B90002046FFF795FC94F8A62194F8A31120465F
:101BA000FFF74AFA0028C0F2448104F124052B46CD
:101BB000012294F8B9112046FEF77CFF0028C0F2FC
:101BC0001B8194F82430712B40F0168194F8A821E1
:101BD00094F8A7112046FFF72FFA0028C0F22C81B5
:101BE00094F8882194F884112046FFF725FA0028FC
:101BF000C0F22581D4ED5E7ADFEDA36A94F88D21E1
:101C000094F88911B3EE007A67EE877A032687EE9F
:101C1000A67A84F89860204684ED1F7AFFF70CFAC4
:101C20000028C0F20F81D4ED5F7A9FED987A84F896
:101C3000996067EE877A94F88F21C4ED207A94F842
:101C40008E112046FFF7F8F90028C0F2FE8094F8C4
:101C5000962194F895112046FFF7EEF90028C0F27E
:101C6000F780002684F89A60324694F89C1120464A
:101C7000FFF7E2F9B042C0F2EE8084F89B6094F87E
:101C8000AB2194F8AA112046FFF7D6F9B042C0F272
:101C9000E58094F8AC2194F8AD112046FFF7CCF91B
:101CA000B042C0F2DE802B46012294F8CB112046D0
:101CB000FFF7C8FBB042C0F2B08094F82430482B44
:101CC00040F0AB8094F8C42194F8C3112046FFF78C
:101CD000F7FBB042C0F2C880642000F049FE94F8DF
:101CE000C72194F8C3112046FFF7EAFBB042C0F2C7
:101CF000BE80642000F03CFE2B46032294F8CA11FB
:101D00002046FFF79FFB94F82430DFED617ADFED8A
:101D1000614A9FED615ADFED615A94F8C42194F84D
:101D2000C31106EE103A94F8253006EE903A94F876
:101D3000263007EE103AB8EE466AF8EE666AB8EE5C
:101D4000477A36EE676A76EEE76A37EE677AF7EE3D
:101D5000007AB0EE674AA6EE244A2046B0EE446A06
:101D6000B0EE674AA6EEA44AE7EE247A26EE056AAC
:101D700024EE057A67EE857AC7EE256A86EE255A47
:101D800087EEA57A84ED215AC4ED226A84ED237A88
:101D9000FFF796FBB0426DDB642000F0E9FD94F89C
:101DA000C62194F8C3112046FFF78AFBB04264DBDA
:101DB000642000F0DDFD94F8A62194F8A3112046DC
:101DC000FFF73AF9B0425BDB2B46072294F8C211C9
:101DD0002046FFF737FB2046FFF70AFCB042B4BFAE
:101DE0006FF01300012070BD406800F0EDF8A168AD
:101DF000606800F033F998E62B46012294F8B91197
:101E00002046FEF757FE002804DB94F82430732B9D
:101E10003FF4DCAE6FF0040070BD6FF00D0070BDDC
:101E20004FF0FF3070BD6FF0010070BD6FF0020029
:101E300070BD6FF0030070BD6FF0050070BD6FF0F6
:101E4000060070BD6FF0070070BD6FF0080070BD38
:101E50006FF0090070BD6FF00A0070BD6FF00B00ED
:101E600070BD6FF00C0070BD6FF00E0070BD6FF0B4
:101E70000F0070BD6FF0100070BD6FF0110070BDED
:101E80006FF0120070BD00BF00FFFF46FA007A3D00
:101E9000000000430000803B0080994500F0FF46B1
:101EA00010B4047F4160022CC26003D05DF8044B83
:101EB00001F0A4BE83685DF8044B184790E80C005D
:101EC000F0B41C6859682568164F174E29432160E5
:101ED000164D17491760D66015611160417A154A91
:101EE0005C180C3194F82C4053F8215002EBC401DB
:101EF00049680D60017A5C1803EB8101247ECD698D
:101F000002EBC40149680D60817A581803EB810324
:101F100090F84000596C02EBC002F0BC53681960A5
:101F2000704700BF01401F00011000380110007809
:101F300000001F80208100000020704790F83920A9
:101F400090F83800101A704790F8383090F839201F
:101F50009A4286BF1B18187E4FF0FF30704700BFB3
:101F6000704700BF38B50546B0F85E0090B195F8EF
:101F70005D301446C3F1210294420CD805F13B00B8
:101F80001844224600F042FB95F85D30234485F862
:101F90005D30204638BD012014462871EEE700BFB1
:101FA000B0F85E306BB190F85D30202B07D8C218C6
:101FB000013380F85D30012082F83B107047012327
:101FC00003710020704700BF0023426980F8383059
:101FD00080F8393080F85C3080F85D3080F85E3011
:101FE00080F85F3006CA30B40D68046943662A433E
:101FF00083660A60A370426990F8613016491468DC
:1020000013441D7A5B7B01EBC5051B026D6803F46D
:10201000E06343F064032B6090F8623013449D7CCE
:10202000DB7D01EBC5011B02496803F4E06343F06B
:1020300064030B6021685368194205D003692C22A0
:102040005A70036904229A71036920225A71036944
:1020500080229A7030BC70472081000043690CCB0D
:1020600012681A420CD0094B99420AD9084B99427E
:10207000036994BF1C2212225A70036904229A71C8
:10208000704703692C225A70F7E700BF7F1A0600D9
:102090003F420F0038B50269D478E4B2E106054644
:1020A00024D51023D37063061FD504F0040404F074
:1020B000FF03002C5AD042496A6E00230B7085F84A
:1020C0005D30002A66D0904795F85D30002B61D0D6
:1020D0002B69D0229A702B6995F83B201A712B69D5
:1020E000012285F85C200222DA7038BD04F040033A
:1020F00003F0FF00002BD8D19379DBB203F060012D
:1021000060294ED0937803F0100303F0FF01B3B1C0
:1021100014F0010437D195F85C3095F85D109942C0
:102120004BD9591C2B4485F85C1093F83B30137144
:102130002B69D0229A702B690222DA70D5E785F8D4
:102140006010937943F0200393712B6995F839104F
:102150001A791F29D2B2C6D8194800780028C2D0EF
:102160006818013185F839100276BCE72A6985F8CC
:102170003930C02393702B69114A197901211170EC
:102180000222DA70B1E7C02393702B691A79022218
:10219000DA70AAE70122002385F85D2085F83B303C
:1021A00096E703F0DF039371AB6E23B185F8380037
:1021B00095F8390098472A69A4E71471B8E700BF79
:1021C0006C13FF1F2DE9F047374FDFF8E0903B68B5
:1021D000026982B006460093DDF8008000214FF4CA
:1021E0009675D3789B065BD53B680193019BC8EB42
:1021F00003030F2BF5D949B1102BF2D000209070BA
:10220000336980229A7002B0BDE8F087726996F84F
:10221000613013440521187A00F0A4FB726996F826
:1022200061301344012193F812A0504600F09AFB4C
:1022300009240021504600F08FFB2B46013BFDD1C5
:102240000121504600F088FB2B46013BFDD1013CAB
:10225000EFD1706996F8611001444FF416720C7A50
:102260004B7B09EBC4011B02496803F4E06343F0B4
:1022700064030B6096F862300344997CDB7D09EBC4
:10228000C1011B02496803F4E06343F064030B607F
:10229000013AFDD13269D3789B064FF00101A3D4F6
:1022A000012002B0BDE8F0877013FF1F20810000FD
:1022B000F0B503691222DA700269937803F0200303
:1022C00085B004460D46002B5ED0B42393703C4984
:1022D00022690B680093009E05E00B680193019B47
:1022E0009B1B042B42D8D37803F0200303F0FF009C
:1022F000002BF2D094F85D30002B31D04FF0000E5F
:102300004FF0020C04EB0E0393F83B3013710B6893
:102310000393039F206907E09B060DD50B6802938A
:10232000029BDB1B052B28D8C378DBB203F002022B
:1023300002F0FF06002AEFD080F803C02669F37888
:10234000DBB2DF0632462DD49F062BD5DB0731D416
:102350000EF1010E94F85D305FFA8EFE7345D1D810
:1023600000201DBB002384F85E3004E090702369D8
:1023700080229A70042005B0F0BD86702369802207
:1023800004209A7005B0F0BD03F0FF06FFF71AFFB6
:1023900010B9042005B0F0BD236984F85F60B02255
:1023A0009A7094E78023B3700420DAE726698023CB
:1023B000B370D7E7BEF1000F0CBF02200320F6E791
:1023C0007013FF1F2DE9F04106690025122780F8E0
:1023D000385080F83950F770D0F810C09CF802E0FF
:1023E0000EF0200E88B00446884615461E46BEF103
:1023F000000F49D0B4238CF802307A4B21691A6857
:102400000092DDF800E006E01A6801920198CEEB38
:102410000000042830D8C87800F0200000F0FF0742
:102420000028F1D04FEA480242F00102D2B20A710C
:102430001A680292DDF808E0206906E01A68039243
:102440000399CEEB010105292AD8C17801F00201D8
:1024500001F0FF070029F1D04FF0020C80F803C013
:102460002269D17811F0110722D12DBB002E0CBFAB
:10247000A0238023937003E08F70236980229A70D9
:10248000384608B0BDE8F0810EF0FF07FFF79AFE6E
:102490000028F5D0236984F85F70B0229A70ACE709
:1024A00087702369802238469A7008B0BDE8F081B1
:1024B000802393700027E3E7012D78D0A02191704D
:1024C00021690A79BE4667464FF0A80C1A68049243
:1024D000049805E01A680592059A121A052A4DD843
:1024E000CA7802F0020202F0FF08002AF2D0CF7090
:1024F0002169CA78D2B212F0100F08465DD1920657
:102500005BD5013DEDB2012D4CD0BEF11F0F3ED980
:102510000A79012DDAD11A680692069D05E01A683B
:102520000792079A521B052A56D8C27802F0020277
:1025300002F0FF01002AF2D00223C3702269D3788F
:10254000DBB2D9063BD49B0637D5B023BEF11F0FB3
:10255000937043D8226904EB0E0312791A760EF1B8
:10256000010E5FFA8EFE00BF00BF00BF16B12369E7
:1025700080229A7084F839E0774681E781F80280FA
:10258000236980229A70774684F839E078E704EB73
:102590000E0291F8048082F818800EF1010E5FFAA5
:1025A0008EFEB6E781F802C021690846ADE7A82192
:1025B00091702069BE460279ADE7774660E7102149
:1025C0004FF49673D170013BFDD12269937803F0EB
:1025D000F7037746937053E78170D1E723691B793E
:1025E000C1E700BF7013FF1F0148FFF753BD00BFD5
:1025F0009C07FF1F0148FFF74DBD00BF0808FF1FE4
:102600000148FFF747BD00BF3007FF1F844641EA7E
:10261000000313F003036DD1403A41D351F8043B5A
:1026200040F8043B51F8043B40F8043B51F8043BAC
:1026300040F8043B51F8043B40F8043B51F8043B9C
:1026400040F8043B51F8043B40F8043B51F8043B8C
:1026500040F8043B51F8043B40F8043B51F8043B7C
:1026600040F8043B51F8043B40F8043B51F8043B6C
:1026700040F8043B51F8043B40F8043B51F8043B5C
:1026800040F8043B51F8043B40F8043B51F8043B4C
:1026900040F8043B51F8043B40F8043B403ABDD2BB
:1026A000303211D351F8043B40F8043B51F8043B5D
:1026B00040F8043B51F8043B40F8043B51F8043B1C
:1026C00040F8043B103AEDD20C3205D351F8043BEC
:1026D00040F8043B043AF9D2043208D0D2071CBFB8
:1026E00011F8013B00F8013B01D30B8803806046E1
:1026F000704700BF082A13D38B078DD010F0030357
:102700008AD0C3F10403D21ADB071CBF11F8013BC6
:1027100000F8013B80D331F8023B20F8023B7BE715
:10272000043AD9D3013A11F8013B00F8013BF9D240
:102730000B7803704B7843708B78837060467047DA
:1027400008B5104C08E0236859050DD423681A0514
:102750000FD42368DB0411D423685803F3D500F0A9
:1027600041FD23685905F1D501F01EFE23681A05C5
:10277000EFD501F0AFFE2368DB04EDD501F040FF9B
:10278000EAE700BF3480044008B5FFF7D9FF00BF77
:10279000014B10221A80704700200540704700BF8F
:1027A000094908B50B6830B16A461844A2F50052D1
:1027B000904202D20860184608BD04F0B1FE0C2316
:1027C00003604FF0FF3008BD7408FF1FEFF3138064
:1027D00070B9EFF310836BB9EFF305825AB94FF478
:1027E0008070EFF311832BB1984228BF18467047D1
:1027F0004FF0FF3070470F2A01D81846F1E7014B20
:10280000D05CEEE7F0E300E0084A1378802B01D0BB
:10281000002070470649074B0748086000211970DF
:102820001378802BFCD00120704700BF03E00740E5
:102830004480044001E0074000002822094A137840
:10284000012B01D00020704703F1804303F5FC23E6
:10285000602119701378802BFCD1034B034A1A6056
:102860000120704703E00740448004400000060256
:1028700010B4114B53F8302092F8804234B1012348
:1028800079B182F880305DF8044B704703EBC003E8
:102890005B681A6851B922F002021A605DF8044BB5
:1028A000704782F800315DF8044B704742F0030234
:1028B0001A605DF8044B7047208100001C4A02EB4F
:1028C000C00301295B6811D004291BD052F83000E5
:1028D000002280F8802229B1022920D0032922D0A9
:1028E0001A6070474FF480721A60704752F83000D7
:1028F0004FF4A27280F880121A601A6822F0200247
:102900001A60704752F830104FF4A272012081F81B
:1029100080021A601A6842F020021A60704740F282
:1029200003121A6070474FF481721A60704700BF3B
:102930002081000030B4054B054D064C00221021CB
:102940001A602A602060196030BC704714D00340C0
:1029500004D0034000D003403F2801D8FFF788BFD0
:10296000704700BF3F2801D8FFF7A8BF704700BFDE
:102970002DE9F843054672B6224F234B234A1B68C4
:102980003C68126862B6520102D5322B88BF01340E
:10299000B5B3C3F52F3303F21F331D4EDFF8689034
:1029A000DFF868809B084FF47A72A6FB031302FBE2
:1029B00004F404EB930472B6D9F800103A68D8F81E
:1029C00000E062B6C1F52F3303F21F339B08A6FB6C
:1029D00003031EF0806FC4EB93034FF47A7002D0B0
:1029E000322988BF013200FB0233B3F57A7F04D36A
:1029F000013D05D004F57A74DDE701F0CDFBDAE79F
:102A0000BDE8F8837013FF1F18E000E004ED00E05C
:102A1000176CC116F8B54E4B4E48DFF85CC14E4CF2
:102A20004E49DFF858E14E4E4E4D4F4F4FF0006289
:102A30001A604FF080521A604FF000521A604FF047
:102A400080421A604FF000421A6000220260282380
:102A50004EF6FF70CCF80000CEF8003023600EF583
:102A6000012E0B6033602B6006F500263B6005F5F8
:102A70000025A36207F500278B6204F5012401F508
:102A8000012106F6E87605F6E87507F57F6710314F
:102A90000EF1100E203433602B60CEF800303B6016
:102AA0000B602360314CBB618B6109212160A7F56C
:102AB000002704F58054203F08343A602060BB6052
:102AC000E36047F8041C04F5FD2407F5FE270437EE
:102AD00004F2FC7422603860A360FB6044F8041CBC
:102AE000083404F6FC74C7F8FC2F2060A4F5E12438
:102AF000A4F2DC7433602B60C7F8F81F21681C480F
:102B000041F40071216001681A4C0EF57F4E0EF100
:102B1000E80E07F5883706F5803605F5803541F073
:102B200000710160CEF8002047F6FF71082239607D
:102B300033602B60226001F091FB3220FFF718FF19
:102B400000F07CFF4FF4AF70BDE8F840FFF710BF16
:102B500004E100E004800340148003401C80034033
:102B6000248003402C8003403480034000800340D5
:102B70000480044000900C40088003400C80034017
:102B80002DE9F84F214B1B6807460BB101221A7043
:102B9000DFF888901E4D99F80040DFF884801D4EC4
:102BA0000134272C8ABF4FF0000A5FFA84FA54469A
:102BB000AB462B78A34216D1FFF708FE40281FDC56
:102BC00033791B06F5D59BF800300133272B86BFE0
:102BD00000221346DAB218F80330DBB2F3712A7020
:102BE0002B78A342E8D00C490A4BFFB208F80470D6
:102BF0000120AC22087089F800A0DA70BDE8F88FD7
:102C0000FF28D6DD01F0C8FAD3E700BFE813FF1FA5
:102C1000E513FF1F00A00E40E413FF1FEC13FF1F7E
:102C20007C13FF1F1B4BDFF890C01A681A49F0B5E0
:102C300042F48062194D1A60DFF880E0184F194E97
:102C4000194C00238CF800304FF451722B701F2860
:102C500040F213358EF800303B70337025600A6007
:102C600011D819460124114A114D117011485470A0
:102C700000212C2740269372042491701174D77080
:102C80002E700460F0BDC0F34431C0F3471400F06F
:102C90001F03E8E72880044060D004407913FF1F39
:102CA000E513FF1FE413FF1F64D0044000A00E4093
:102CB00042E400E008E100E07813FF1FEC13FF1F7F
:102CC000194B19499B7803F0EC0200F003031343FE
:102CD000420700F00F0248BF43F01003042A8B7034
:102CE0001CD0114B104A5B79C10603F0EF0348BFBB
:102CF00043F0100353719379820603F0EF030A4AFD
:102D000048BF43F010039371C30506D5537811787B
:102D1000DBB241F020011170537070478B7943F0A2
:102D200040038B71DDE700BF00A00E40F8B5114BEA
:102D30001B685B051CD5104C237823B101F02CFADD
:102D40002378002BFAD10D4B0D4F0E4E0E4D0F4C2C
:102D50000F48104904221A600023FB7040F203124E
:102D600032602A60226803700B7012B10123137065
:102D7000F8BDF8BD28800440E413FF1F88E100E09F
:102D800000A00E4064D0044060D004407413FF1FC4
:102D90007813FF1F7913FF1F0A4A38B505461378C9
:102DA00003F0FF04002BFAD101212846FFF7DAFDDA
:102DB00021462846FFF7D0FD034A044B52F8352040
:102DC0001A6038BDE413FF1F20810000E813FF1FC5
:102DD00009B140F08000104A137898421AD010B41C
:102DE0000E4C2468640512D503F07F03212B02D119
:102DF0000B4B00241C60002900F07F0314BF6021EE
:102E00004421212B03D1064B41F44071196010700D
:102E10005DF8044B704700BF7808FF1F288004400E
:102E200060D00440704700BF0D4B1B6813F48063F3
:102E300005D03F2805D90B4B002018607047184675
:102E40007047094B10B5074C53F83030236001210F
:102E5000FFF788FD236800221A70012010BD00BF13
:102E6000288004407413FF1F208100000C4B1B6856
:102E700013F4806306D0182806D00A4A537B03F067
:102E8000FE03537300207047074B064A40F202319D
:102E90001960537B43F0010353730120704700BF57
:102EA0002880044000A00E4068D00440034B1B68FB
:102EB0005B0501D5FFF764BE704700BF2880044062
:102EC00070B5094E04464518AC4204F101040AD01D
:102ED00033685B05F8D514F8010CFFF751FEAC42DE
:102EE00004F10104F4D170BD2880044010B5044CF5
:102EF000237823B101F050F92378002BFAD110BDCB
:102F0000E413FF1F064A074B1B781078DBB2C0B2F0
:102F100083422CBF273000F1FF30C01A704700BF3A
:102F2000E513FF1FEC13FF1F054A064B10781B78B3
:102F3000C0B2DBB2984238BF4030C01A704700BF01
:102F40007813FF1F7913FF1F30B4154B154C1A78F7
:102F50002378D2B2DBB29A421ED001333F2B0ED976
:102F60001149124B087819680023C0B2237021B1AF
:102F7000D31A1A2B01DC00230B7030BC70470A48AF
:102F80000A49C05C0968DDB2C0B225700029F4D0DE
:102F90009A4238BF4032EBE74FF0FF30EDE700BF19
:102FA0007813FF1F7913FF1FA413FF1F7413FF1F54
:102FB000084A094B12781B78DBB29A4207D00133DA
:102FC000402B28BF0023054AD05CC0B270474FF0A9
:102FD000FF3070477813FF1F7913FF1FA413FF1FE3
:102FE000054B064A1B7806491268DBB20B700AB122
:102FF00000231370704700BF7913FF1F7413FF1F66
:103000007813FF1F30B42B4B1A7994061FD52A482A
:10301000DA790378294901333F2B0978C8BF0023A7
:103020008B42D2B203D0264CD9B2E2540170254A69
:10303000116861B1244A1278D2B2934236BFC2F10C
:1030400040029B1A9B18272BC4BF01230B70194AFF
:10305000D378DBB2180611D45A060DD5154B1B795F
:103060005B0609D5194B1A491B6800220A7003B187
:103070001A70104B2C22DA7030BC70471179090697
:10308000EAD5144910480C780178C9B28C420DD0A9
:103090004A1C272A84BF00210A460F4D054C98BFC1
:1030A000D1B2AA5CD2B2E2710170D5E76C21D170C5
:1030B000D2E700BF00A00E407813FF1F7913FF1F57
:1030C000A413FF1F7413FF1FE513FF1FE813FF1F57
:1030D000E413FF1FEC13FF1F7C13FF1FF0B472B645
:1030E0001A491B4E012311F8014B194F9A0024076E
:1030F00042F0010505D556F8324064B156F8352046
:10310000BAB10133052BEED162B6124B00221A7010
:10311000F0BC00F01BBD0F4C0F4D217847F832502A
:1031200007EB431308304A1E5860227062B6F0BCA9
:1031300070470849094B0A7847F8353007EBC50353
:103140000830013A58600A7062B6F0E790830000D8
:103150000000FF1FC514FF1F88004000C80040008A
:10316000431E032B1DD81B4A400140F0100030B411
:10317000104472B6184CE25C032A1BD8DFE802F058
:103180000212151703220D88E25410F0080F14BF25
:10319000C823882343EA054308310360416062B6CF
:1031A00030BC704708300222EDE70522EBE708301B
:1031B0000422E8E7094A52F8230038B1084A52F8D5
:1031C0002300416042F8231062B6E9E742F8231079
:1031D000034AF7E70000FF1FD414FF1F9C14FF1FD2
:1031E000AC14FF1F2DE9F04FDFF804A3DFF804B3A0
:1031F00087B044E0A94F4FEA930807EBC809013EA6
:10320000D9F8042003F00803F6B2A2F1080003F095
:10321000FF04002B40F0FE8057F838301B0C99B2A9
:1032200022F8081C002B00F0EC809D4B22F8064C85
:1032300042F8044C53F82620002A00F02B82994DC6
:1032400055F826305860984C45F8260034F816306A
:10325000194424F8161000F059FC002800F01382DD
:10326000924A934B19F0080F00F1080018BF13465B
:10327000C9F8040047F8383008238AF800309AF873
:103280000040E4B260071AD58A4B1B78A3B18A4983
:103290000A7802F0FF0322B1013BDBB20B7003B9E5
:1032A00000BE86490A7802F0FF032AB1013BDBB277
:1032B0000B70002B00F0BD8104238AF8003004F06D
:1032C000080303F0FF02002B00F0C8809BF80030D9
:1032D000DBB21E098ED19C08704F57F8342007EBE3
:1032E000C401C2F38302013A49680C2A00F28580C6
:1032F000DFE802F079798383838383834283838346
:10330000070008686E4B6F4D0193684B4A686E4E1C
:1033100047F8343081B240F28164694B6A602860BA
:1033200000220120A1421A603A61BA61307000F2B5
:10333000E380B1F5D06F80F02782B1F5817F00F096
:10334000E08100F2C381802900F03682822940F0BA
:10335000DE81A9885D4B01F07F01042900F2D8814C
:103360005B4C89000B44227062701A78930740F11D
:1033700022832070022023E2514B01931A683AB352
:10338000544B514E5449188834780D78402886465D
:1033900045F0020828BF4FF0400E002C84F00104D5
:1033A0003470CEEB00000CBF8824C82407EBC8069D
:1033B00080B285F0010544EA0E447260188047F837
:1033C000384072440D70002800F0B780019B1A60ED
:1033D0003C4B1A88B2F5A06F0FD100219A78597032
:1033E0003E4B1A7009E0374A108842F2210290429F
:1033F00000F0A8802D4A47F83420394A0123137081
:103400003AE72A4A2A4B19F0080F18BF134647F823
:10341000383031E700F09AFB324A334952F826300F
:10342000002B00F03B8158688C5D42F8260003F1C8
:103430000802C9F80420032C05D8DFE804F02C02A8
:10344000292602228A551A8819F0080F0CBF8823F2
:10345000C82343EA024347F838300DE7E00700F19C
:10346000EB80210600F12881A20706D51F4A2049DA
:1034700013780220DBB213700870E30602D51C4BF0
:1034800010221A7007B0BDE8F08F04228A55DAE7DF
:1034900005228A55D7E703228A55D4E70000FF1F8B
:1034A0004814FF1FF413FF1FC017FF1FC800400080
:1034B00088004000D014FF1F5914FF1FD814FF1FAD
:1034C000F013FF1FBC14FF1F5814FF1FC02007403C
:1034D000C814FF1F0414FF1FC414FF1F98200740C7
:1034E000942007409C14FF1FD414FF1F882007401E
:1034F000802007409020074042F22104A14200F0C2
:10350000948043D8B1F5086F00F0A881B1F5106F31
:1035100040F0FD80B84AB94CA978117004F18005DB
:1035200003E00834AC4200F09E81236A1906F8D506
:10353000606A083800F00AFBF3E7BEF1400F18BFDD
:10354000002243E7AE4ACD1D11F8013B02F8013FCE
:10355000A942F9D1AB4A1268862A00F01181AA4922
:10356000AA4E0A78307882F00105002842F0020263
:103570000D700CBF8821C82147F8321007EBC2023A
:1035800080F0010000213070516033E742F22124C5
:10359000A14240F0FE81DFF8BCC29D4B9D49AC7852
:1035A000DCF800501D6081460C70002002908046BF
:1035B0008446044694490D7845F0020E07EBCE038D
:1035C000B9F1000F5C600CBF8824C82444EA0803EA
:1035D00085F0010447F83E3032700C70DFF81CE2D1
:1035E0008A4BDFF82482002840F09880BCF1400F1D
:1035F0001BD144F0020407EBC403029FDFF8FCE197
:103600005F60002A40F09F80020442F08802074475
:103610004EF8342086F800900D703B46402804D1C7
:1036200000207D4A019910800B607C4A01231370B1
:10363000E3E600F0BFFA3FE6704B784872491A6142
:103640004FF0020E80F800E0754F0A70754919605E
:103650009960754E754D764C9A610D213970FF2138
:103660003170DFF8F4E129702270724D724A8EF8E1
:1036700000109F27012406F8047C5D600470DA6066
:1036800007B0BDE8F08F6D4A47F838001378013372
:103690001370F1E543F82600694DD4E58B5D032BEB
:1036A00067D801A252F823F0793200007932000085
:1036B000FD360000F736000059495C4B80220D2092
:1036C00008701A70A2077FF5D8AECFE640F202323A
:1036D000914240F05681A98801F07F01042916D853
:1036E0006A88A2B94E4C89000C448146217841F089
:1036F0000201217059E701238B55BDE500238B554D
:10370000BAE5A98801F07F01042940F24781444BC2
:103710000F221A70414A012313706EE640287FF68B
:1037200068AF44F002040EEBC401029E4E60AAB1E1
:10373000444A83F800903346403888F800504033BC
:103740004EF834206DE70204029B86F8009042F0A8
:10375000C8020D7003444EF834205FE783F80090F0
:10376000029B304A88F80050403840334EF83420ED
:1037700057E719F0080F0CBF022303238B557BE595
:10378000314A0F211170EAE6304A5468002CBED04D
:103790006888B5F804E003E00C325468002CB6D019
:1037A00013888342F8D153887345F5D1000A032862
:1037B0000CBF2078108903E0254C02202270627033
:1037C000EA88824280F00C810F490D78402A45F04A
:1037D000020E944607EBCE0028BF4FF0400C04EBDE
:1037E0000C0344600293CCEB02004FEA0C484FF00C
:1037F00001090022C824E9E6D014FF1F0000FF1FC2
:10380000C717FF1FC817FF1FC414FF1F5814FF1F3F
:10381000D017FF1FE414FF1F0414FF1F942007405C
:10382000C0200740880040008820074080200740D3
:10383000982007400814FF1F5C14FF1FC514FF1FCA
:10384000F413FF1FC80040005914FF1F94830000A9
:10385000C814FF1F7013FF1F8C200740684A694C73
:1038600012782270ACE76849684B694A029169494D
:10387000694C6A4D039405964FF0000988461C4632
:1038800016460495206828B1456800F05FF928467F
:10389000002DF9D100232360049B30681A460023D1
:1038A00042F8293028B1456800F050F92846002D2B
:1038B000F9D100223260029A98F8003011460022B5
:1038C00041F8042B039A0291023B4FF0000122F8C9
:1038D0001910032B07D8DFE803F0340234024FF04D
:1038E000010388F8003009F10109B9F1040F04F16E
:1038F000040406F1040608F10108C3D1484B059EF3
:10390000DFF83091DFF8308100211970012518F8B7
:10391000013B09F8043B1A0718D4AC0044F002023A
:1039200044F00304002347F8323047F834303D4B6D
:10393000994505F10105EAD196F8009089F0010258
:1039400033E64FF0000388F80030CCE700F0DEF8F3
:10395000AC0007EB451300F10802002837D05A608D
:10396000314B47F8343000F0D1F844F0010307EB55
:10397000C30200F1080100B351602C4A47F833201C
:10398000CCE7B1F5A06F7FF4C2AE00224FF0010981
:103990000BE642F221329142F7D0B8E66A88002A5B
:1039A0007FF4B5AE224C89000C448146217821F089
:1039B00002012170F9E5022002E7194B44F00102EF
:1039C0001B7847F83200164A01331370A6E7144BF0
:1039D000134A1B78AC00013347F834001370C2E778
:1039E0004028844628BF4FF0400C04EB0C03CCEB7E
:1039F00000004FEA0C48029300224FF00109D9E57C
:103A0000D014FF1FC814FF1FAC14FF1F4814FF1F62
:103A10009C14FF1FD414FF1FC017FF1FF413FF1FB8
:103A2000C514FF1FD420074088004000C800400094
:103A3000C0200740C4200740908300002DE9F041DA
:103A4000274C00F047FF002204F1880023461A604B
:103A50005A60083383424FF00001F8D12148224ACE
:103A60000368DFF89CE0214E214D224FDFF894C01F
:103A7000DFF8948043F480230360136843F04073BD
:103A8000136003238EF80030A023337002F5C9229F
:103A9000C4F3072300F528302B708030C4F30743AC
:103AA00010323B70240EFF230470134D8CF800304D
:103AB000124888F800301370012306F8AC3C4FF42C
:103AC00000140EF8441C7026102107F82C3C2E70B0
:103AD000046082F8F810AEF1440EBDE8F08100BF3A
:103AE0000000FF1F3480044000D800404021074000
:103AF0009C200740B020074035E400E004E100E0EE
:103B000044210740802007408820074072B60D48B6
:103B10000268B2FA82F30B2B10DC4FF00041D9405F
:103B200022EA0102026062B6074803EBC303DB002E
:103B3000C2180021C15010465160704762B6002083
:103B4000704700BF7C08FF1FD003FF1F0D4B0E4ABC
:103B5000C31AA2FB03231B090B2B0CD80B4A1278A8
:103B600052B972B60A484FF00041026821FA03F3D5
:103B70001A43026062B67047064A1278002AF0D0F3
:103B8000FFF7ACBAD003FF1F398EE338C514FF1F0F
:103B90007C08FF1FD014FF1F044B054A1B68908848
:103BA0001BB11A885B88D31A18447047E014FF1FB2
:103BB000C017FF1F38B50E4B1B7873B90D4C216829
:103BC00061B103F0FF054B880B800420FFF7C8FAB2
:103BD000256038BD084B01221A7038BDFFF796FFEB
:103BE0000028F7D00146BDE838400420FFF7B8BAF6
:103BF000D914FF1FDC14FF1FD814FF1F10B4EFF3FC
:103C0000108272B6437F33B9017F012908D003299E
:103C100010D00123437702B962B65DF8044B7047B8
:103C2000114C2168A1B1114943610B68836108609F
:103C30005861EEE70E4C216881B10E4943610B6873
:103C40008361086058610C4B4FF080511960E0E7C8
:103C5000064B4161816120601860DAE7054B4161E4
:103C6000816120601860EEE7F814FF1FF414FF1F55
:103C7000E814FF1FEC14FF1F04ED00E070B5EFF334
:103C8000108272B60C4C206880B10C4E002543693E
:103C9000236073B19D6102B962B645778368984726
:103CA000EFF3108272B620680028F0D102B962B634
:103CB00070BD3360EFE700BFE814FF1FEC14FF1F77
:103CC000FFF7DCBF184A30B41468002C27D0036813
:103CD00021688B420ED2CB1A00218460C160236020
:103CE000E06010600223037530BC704711688B429E
:103CF000144608D3A2685B1A0360002AF6D18260DA
:103D0000C460A060EEE7D268C2608460E060C5680D
:103D1000CB1A0222A8602360027530BC7047846011
:103D2000C4601060DEE700BFF014FF1FF8B5224E3C
:103D300034682CB32368002B3AD1204F1D4604E091
:103D40003468ECB12368002B32D1A36803B1DD6085
:103D500020693360036825751B68BB4221D1037F4E
:103D60004560022BC46020D0FFF748FF6368002B3A
:103D7000E6D023602046FFF7A5FF3468002CE1D190
:103D8000EFF3108372B60E4A00211068116003B978
:103D900062B628B18468FFF795FF20460028F9D164
:103DA000F8BD224600219847E0E783689847DDE7A1
:103DB000013B2360E4E700BFF014FF1FA11E0000D9
:103DC0000015FF1F024A136801331360FFF7AEBFEF
:103DD0007013FF1F08B50846FFF768F8012008BDFB
:103DE00008B50846FFF762F8012008BD38B5084657
:103DF0000D4603F0A5FE044601462846FFF760F88D
:103E0000204638BD10B5084614461146FFF758F84D
:103E1000204610BDFFF7E4B808B50846FFF726F8BE
:103E2000003018BF012008BD08B50846FEF7FCFFAA
:103E3000003018BF012008BD08461146FEF7C8BF74
:103E40000846FEF7EFBF00BF0846FEF7A5BF00BF5C
:103E5000FEF76CBF034B03EB5100B0FBF1F0FEF734
:103E6000E1BE00BF000E270710B5064B144603EB5A
:103E70005100B0FBF1F0FEF7D5FE2046BDE8104042
:103E8000FEF71EBF000E2707FFF792B8FFF75CB8DA
:103E9000FFF74AB8FFF72AB8FFF734B80368064AB5
:103EA0001B68934205D110B5C8B2FEF7FFFF012091
:103EB00010BDC9B2184700BFE13D00000368064AC3
:103EC0001B68934205D110B5C8B2FEF7EFFF012081
:103ED00010BDC9B2184700BFE13D00000368064AA3
:103EE0001B68934205D110B5C8B2FEF7DFFF012071
:103EF00010BDC9B2184700BFE13D00000368064A83
:103F00001B68934205D110B5C8B2FEF7CFFF012060
:103F100010BDC9B2184700BFE13D0000704700BFA7
:103F200008B5FCF7A3FAFCF703FB00F035F9FAE754
:103F300000B5064A036812885B6883B001A9ADF832
:103F400004200222984703B05DF804FB8083000040
:103F5000F0B507468BB0002A33D0012A08BF0A22E9
:103F600051B3212400E0F4B2B1FBF2F502FB1511CC
:103F7000C8B2092900F1300198BFC8B20AA988BFA8
:103F80003730214488BFC0B201F8240C661E294690
:103F9000002DE8D133B1013CE4B20AAB23442D2219
:103FA00003F8242C3B6801AA11195B683846C4F158
:103FB000220298470BB0F0BD30228DF82520212435
:103FC000E8E70368C9B21B6898470BB0F0BD00BFB3
:103FD0000029BABF49422D2300230A22FFF7B8BFA8
:103FE0002DE9F04357EC106B85B005460C4610EEFA
:103FF000102A3B4610EE100A394603F0E3F9002878
:1040000040F0B28027F00049304649464FF0FF3279
:10401000594B03F0D7F990B9304649464FF0FF327B
:10402000554B03F0B1F950B92B6854495B682846E9
:10403000032298478046404605B0BDE8F0834FF024
:1040400060424F4B3046394603F0B2F9002872D136
:104050004FF060424B4B3046394603F08BF9002855
:1040600069D1002200233046394603F083F9002845
:1040700064D18146002C67D0434900204FF00008EE
:104080003BA3D3E9002308F1010802F001FF5FFA26
:1040900088F39C42F4D802460B463046394602F07B
:1040A00045FD0F46064603F0CBF9804602F07AFE46
:1040B00002460B463046394602F036FD4B46064670
:1040C0000F460A2241462846FFF742FF0F2C28BF21
:1040D0000F2404F101092E2380465FFA89F98DF837
:1040E000003001240022294B3046394602F0D0FE30
:1040F0000F46064603F0A4F904AB2344C0B200F116
:10410000300203F8102C02F05DFE02460B463046EA
:10411000394602F009FD0134E4B24C4506460F462B
:10412000E0D12B6822465B6828466946984740469E
:1041300005B0BDE8F0832B68154977E707F1004328
:104140001F464FF0010995E700220F4B30463946D4
:1041500002F0ECFC03F074F94B4601460A222846B3
:10416000FFF7F6FE804666E72B680A495EE700BF68
:10417000000000A09999B93FFFFFEF7F8C830000FA
:10418000FFFFEF41FFFFEFC10000E03F00002440D0
:10419000888300008483000038B52C4C237803B159
:1041A00038BD01232370FFF7F7FC002842D100F04F
:1041B000EBF800283BD100F07DF9002834D100F065
:1041C0000FFA70BB00F088FA40BBFEF7ADFE10BBE3
:1041D00000F0FEFAE0B900232370EFF30583002B13
:1041E000DED1EFF3108172B6194B186828B3194C61
:1041F000227812BB45691D60012323700DB3AA61AB
:1042000001B962B600254577836898472570C7E7EE
:1042100000F0AAFBDFE7FFF781FED9E700F0A2FB81
:10422000D3E700F09DFBCDE700F098FBC7E700F077
:1042300093FBC0E700F09AFBB9E70029B0D162B662
:1042400038BD054B1D600029DCD1DAE70415FF1FDE
:10425000F814FF1FFC14FF1FF414FF1F30B429488B
:10426000294A2A4B2A4D6024E121047011701B78E1
:10427000284C082B30D00A2B2748284937D00C2B44
:104280000CBF35225D2212232A60236002600B607E
:10429000234B24491B78244ABBB101230B601360D4
:1042A000224B23491B78234A012B26D9042B0FD9F3
:1042B000082B1ED9102B94BF862387230B60136015
:1042C0001D4B01221A7030BC70470B601360E7E78A
:1042D00084230B601360F3E700F58E200F4908304C
:1042E000212213232A60236002600B60D0E7392269
:1042F000F7E785230B601360E2E780230B60136010
:10430000DEE700BF00400740014007409008FF1F64
:1043100008B003400CB0034008B00B400CB00B4099
:104320000615FF1F20B0034020B00B409108FF1F6F
:1043300024B0034024B00B400515FF1FF0B44D1E00
:104340002E46002400E00134B0FBF2F302FB130020
:10435000092800F130078ABF3730F8B2C0B206F83A
:10436000010F1846002BEED10A1953704CB110788A
:1043700015F8016F28700133E01A834202F80169D1
:10438000F5DB0846F0BC7047054A064B10781B78F1
:10439000C0B2DBB2984238BF4030C01A704700BF8D
:1043A0000C15FF1F0D15FF1FF0B4384B1A7912F0D2
:1043B000300F2CD072B6997D01F0FF0200293DD05C
:1043C00062B6334F334938780D78334E1C46C0B24D
:1043D000EDB2431C402BE17928BF0023AB4202F130
:1043E000FF32C9B21CBFF154184612F0FF02F0D1DF
:1043F0002A4B1B68C2B23A704BB1A84236BFC5F116
:104400004005401B40192728C4BF01221A701F49CC
:10441000CA78D2B2150616D452060DD51B4B1B799D
:104420005B0609D51E4B1F491B6800220A7003B1A9
:104430001A70164B3C22DA70F0BC70474022D979D2
:104440005A7462B6E3E70B791C06E5D5164B174E96
:104450001C783378E4B2DBB29C420ED0144D01E0FC
:10446000A3420AD00133402B28BF00230879E85C1F
:10447000C0B2C871087D0728F2D9DBB20349337096
:104480000B79180644BF7C23CB70C5E700A006401B
:104490000C15FF1F0D15FF1F5015FF1F0815FF1FDF
:1044A0009415FF1F9015FF1F9815FF1F9115FF1FF3
:1044B0001015FF1F054A064B10781B78C0B2DBB2FF
:1044C000984238BF4030C01A704700BF0C16FF1F1B
:1044D000A115FF1FF0B4384B1A7912F0300F2CD011
:1044E00072B6997D01F0FF0200293DD062B6334FCC
:1044F000334938780D78334E1C46C0B2EDB2431CB8
:10450000402BE17928BF0023AB4202F1FF32C9B250
:104510001CBFF154184612F0FF02F0D12A4B1B6861
:10452000C2B23A704BB1A84236BFC5F14005401B3C
:1045300040192728C4BF01221A701F49CA78D2B275
:10454000150616D452060DD51B4B1B795B0609D5F3
:104550001E4B1F491B6800220A7003B11A70164BCC
:104560003C22DA70F0BC70474022D9795A7462B6A6
:10457000E3E70B791C06E5D5164B174E1C7833780C
:10458000E4B2DBB29C420ED0144D01E0A3420AD04B
:104590000133282B28BF00230879E85CC0B2C8711A
:1045A000087D0728F2D9DBB2034933700B7918066E
:1045B00044BF7C23CB70C5E700B006400C16FF1F3C
:1045C000A115FF1FCC15FF1F9C15FF1F1016FF1F05
:1045D000A015FF1F1416FF1F0D16FF1FA415FF1FA8
:1045E000054A064B10781B78C0B2DBB2984238BF40
:1045F0004030C01A704700BF1C16FF1F1D16FF1F5A
:1046000030B42B4B1A7994061FD52A48DA790378EF
:10461000294901333F2B0978C8BF00238B42D2B20E
:1046200003D0264CD9B2E2540170254A116861B119
:10463000244A1278D2B2934236BFC2F140029B1A8A
:104640009B18272BC4BF01230B70194AD378DBB208
:10465000180611D45A060DD5154B1B795B0609D5E2
:10466000194B1A491B6800220A7003B11A70104BCB
:104670002C22DA7030BC704711790906EAD514494A
:1046800010480C780178C9B28C420DD04A1C272AF8
:1046900084BF00210A460F4D054C98BFD1B2AA5CD9
:1046A000D2B2E2710170D5E76C21D170D2E700BFC0
:1046B00000C006401C16FF1F1D16FF1F4816FF1FD7
:1046C0001816FF1F8916FF1F8C16FF1F8816FF1F65
:1046D0009016FF1F2016FF1F054A064B10781B7807
:1046E000C0B2DBB2984238BF4030C01A704700BF3A
:1046F0009816FF1F9916FF1F30B42B4B1A7994069A
:104700001FD52A48DA790378294901333F2B0978E4
:10471000C8BF00238B42D2B203D0264CD9B2E25498
:104720000170254A116861B1244A1278D2B29342CD
:1047300036BFC2F140029B1A9B18272BC4BF01232E
:104740000B70194AD378DBB2180611D45A060DD56E
:10475000154B1B795B0609D5194B1A491B680022BA
:104760000A7003B11A70104B2C22DA7030BC7047FB
:1047700011790906EAD5144910480C780178C9B2B4
:104780008C420DD04A1C272A84BF00210A460F4DB7
:10479000054C98BFD1B2AA5CD2B2E2710170D5E7E4
:1047A0006C21D170D2E700BF00D006409816FF1FE1
:1047B0009916FF1FC416FF1F9416FF1F0517FF1F32
:1047C0000817FF1F0417FF1F0C17FF1F9C16FF1F62
:1047D000054A064B10781B78C0B2DBB2984238BF4E
:1047E0004030C01A704700BF1417FF1F1517FF1F76
:1047F00030B42C4B5A6894021FD52B48DA680378E2
:104800002A4901333F2B0978C8BF00238B4204D0CB
:10481000274CD2B2D9B2E2540170264A116861B174
:10482000254A1278D2B2934236BFC2F140029B1A97
:104830009B18272BC4BF01230B701A4A93681802D8
:1048400002D55268110211D45A020DD5154B5B687E
:104850005B0209D5194B1A491B6800220A7003B183
:104860001A70184B00221A6030BC7047164A124961
:1048700010780A78D2B290420DD00132272A84BF34
:1048800000200246114D074C98BFD0B2AA5CD2B2AC
:10489000E2600870D8E70E480A4A0024012104604B
:1048A0001160D1E700400C401417FF1F1517FF1FC0
:1048B0004017FF1F1017FF1F8117FF1F8417FF1FCF
:1048C0008017FF1F580188438817FF1F1817FF1F05
:1048D0005C01884310B584B072B6FDF795FF184AA5
:1048E000184B19491160702280211A701A461970EC
:1048F00013781B06FCD5154B1C68FDF79FFF62B6AD
:10490000134B9C429CBF04EB840464002046114C72
:1049100001A90A22FFF712FD01A92046002311F880
:10492000012B01333AB10A2B20F8022FF7D11623BD
:10493000237004B010BD5B00DBB2237004B010BD67
:104940000400024000000240000007410C00024049
:104950007F9698002009FF1F704700BF704700BF77
:10496000704700BF704700BF704700BF704700BF6F
:1049700000B551EC100B2C4A21F00043934285B056
:1049800020DD2A4A934209DD10EE102A0B4602F080
:10499000CBF841EC100B05B05DF804FB684600F065
:1049A000B3FC00F00300012828D0022815D060B322
:1049B00001209DED021B9DED000B01F0F1FC51EC7F
:1049C000100BE6E79FED161B00F096FF51EC100B65
:1049D00041EC100B05B05DF804FB9DED021B9DED55
:1049E000000B00F089FF53EC102B10EE100A03F1BE
:1049F000004141EC100B05B05DF804FB9DED021B7E
:104A00009DED000B01F0CCFCEDE79DED021B9DED53
:104A1000000B00F071FF51EC100BBAE7AFF3008010
:104A20000000000000000000FB21E93FFFFFEF7FD6
:104A300000B551EC100B2C4A21F00043934285B095
:104A400027DD2A4A934209DD10EE102A0B4602F0B8
:104A50006BF841EC100B05B05DF804FB684600F004
:104A600053FC00F00300012827D002281DD068B3B2
:104A70009DED021B9DED000B00F03EFF53EC102B53
:104A800010EE100A03F1004141EC100B05B05DF887
:104A900004FB00209FED121B01F082FC51EC100B77
:104AA00041EC100B05B05DF804FB01209DED021BED
:104AB0009DED000B01F074FCE0E79DED021B9DED08
:104AC000000B00F019FF51EC100BC2E701209DED27
:104AD000021B9DED000B01F063FC51EC100BB8E7DD
:104AE0000000000000000000FB21E93FFFFFEF7F16
:104AF00030B52DED048BB0EE408AF0EE608A294C83
:104B00008BB000F0B9F894F90030B0EE409AF0EEB6
:104B1000609A013332D053EC182B51EC180B02F091
:104B200051FC054650BBB0EE480AF0EE680A01F0B1
:104B3000BFFE00221C4B51EC100B02F039FCE8B117
:104B40001A4B1B48089501228DE80C008DED048B53
:104B50008DED028B01F048FF94F90030022B8DEDB2
:104B6000060B13D0684601F03BFF78B1089BA3B950
:104B70009DED060B0BB0BDEC048B30BDB0EE490AC9
:104B8000F0EE690A0BB0BDEC048B30BD02F0C8FC3E
:104B900021230360089B002BEAD002F0C1FC089B94
:104BA0000360E5E73609FF1F0000F03FE8830000DF
:104BB0000C80000000F0B0BA2DE9F0432DED028B1F
:104BC0008BB055EC104B00F0C5FD294BB0EE408A80
:104BD000F0EE608A93F90060731C12D022462B46D7
:104BE0002046294602F0EEFB074650B94FF0000878
:104BF0004FF000092046294642464B4602F0BAFBD8
:104C000040B9B0EE480AF0EE680A0BB0BDEC028B7A
:104C1000BDE8F083174B08970122CDE90445CDE9A3
:104C200002458DE80C00B6B142464B464046494627
:104C300002F058FA022ECDE906010ED102F070FC06
:104C400021230360089B73B99DED060B0BB0BDECEF
:104C5000028BBDE8F083CDE90689684601F0C0FE0D
:104C60000028EFD1EAE702F05BFC089B0360EBE76A
:104C70003609FF1FF08300002DE9F04F57EC106B51
:104C8000CB4B27F000459D4283B017DD05F1404531
:104C900010EE103A05F580152B432BD010EE102A9C
:104CA0003B463046394601F03FFF02460B4602F0D4
:104CB00019FA41EC100B03B0BDE8F08FBD4B9D42DB
:104CC0003C4633DCB5F1795F80F27C819CA3D3E96B
:104CD000002310EE100A394601F028FF0022B64BDF
:104CE00002F066FB10B33046394641EC100B03B0BE
:104CF000BDE8F08F10EE100A93A3D3E900233946E4
:104D000002F0C6F892A3D3E9002304460D463046CC
:104D1000394602F0BDF802460B462046294601F00E
:104D200005FF41EC100B03B0BDE8F08F47EC106BB2
:104D300001F0BEFD002053EC102B9F4901F0F4FE62
:104D400000229E4B02F0A4F883A3D3E90023064679
:104D50000F4602F09DF882A3D3E9002301F0E6FE9E
:104D600032463B4602F094F87FA3D3E9002301F0DA
:104D7000DBFE32463B4602F08BF87DA3D3E90023ED
:104D800001F0D4FE32463B4602F082F87AA3D3E922
:104D9000002301F0C9FE32463B4602F079F878A3C1
:104DA000D3E9002301F0C2FE32463B4602F070F820
:104DB00075A3D3E90023804689463046394602F080
:104DC00067F873A3D3E9002301F0AEFE32463B46F9
:104DD00002F05EF870A3D3E9002301F0A7FE32468B
:104DE0003B4602F055F86EA3D3E9002301F09CFE88
:104DF00032463B4602F04CF86F4B002201F096FE23
:104E000047EC106BCDE9000100F0A4FC6C4B9D4217
:104E10005BEC10ABDDE900016EDC02460B46404660
:104E200049460025CDE900AB009502F05BF9DDE9CC
:104E300000895246CDE900015B465046594601F0D3
:104E400075FE02460B46DDE9000102F021F84246FC
:104E5000CDE900014B464046494602F019F80246AA
:104E60000B463046394601F05FFE424606460F4685
:104E70004B465046594601F059FE02460B46304615
:104E8000394602F02FF902460B4601F04FFE02466A
:104E90000B462FA1D1E9000101F046FE02460B4668
:104EA000DDE9000101F040FE424606460F464B4652
:104EB0004046494601F03AFE02460B463AA1D1E986
:104EC000000101F031FE02460B463046394601F042
:104ED0002BFE02460B4634A1D1E9000101F024FE6D
:104EE00002460B46002C40F3E4801046194641EC84
:104EF000100B03B0BDE8F08F02460B464046494612
:104F000002F0F0F852465B4601F0C2FF52465B46A3
:104F100001F00CFE02460B4601F008FE0CA3D3E99B
:104F2000002301F001FE02460B4607A1D1E9000172
:104F300001F0FAFD02460B46D4E700BFAFF3008054
:104F40009C7500883CE4377E182D4454FB21F93FC2
:104F5000075C143326A6913C09F7FD0DE13D023FA5
:104F600088B20175E0EF493F3B8F68B52882A43FC6
:104F70005544880E55C1C93F7D6FEB0312D6D43F0F
:104F8000555555555555C53F82922EB1C5B8B33FBD
:104F900059018D1B6C06E63FC88A599CE52A0040E2
:104FA0004B2D8A1C273A0340182D4454FB21E93F1E
:104FB000FFFFEF3FFFFFDF3F0000F03F0000E03F5B
:104FC0003233EF3F10EE102A10EE100A3B463946FE
:104FD00001F05EFF3BA3D3E9002304460D4601F038
:104FE00057FF3AA3D3E9002301F0A0FD22462B4648
:104FF00001F04EFF37A3D3E9002301F095FD2246CF
:105000002B4601F045FF35A3D3E9002301F08EFDC7
:1050100022462B4601F03CFF32A3D3E9002301F0E6
:1050200083FD22462B4601F033FF30A3D3E9002352
:1050300001F07CFD22462B4601F02AFF2DA3D3E987
:105040000023804689462046294601F021FF2BA3F4
:10505000D3E9002301F068FD22462B4601F018FF3A
:1050600028A3D3E9002301F061FD22462B4601F07D
:105070000FFF26A3D3E9002301F056FD22462B465D
:1050800001F006FF00220E4B01F050FD02460B46D8
:105090004046494602F026F832463B4601F0F8FE0B
:1050A00032463B4601F042FD41EC100B03B0BDE837
:1050B000F08F104603F10041FBE500BFAFF3008025
:1050C0000000F03F09F7FD0DE13D023F88B2017598
:1050D000E0EF493F3B8F68B52882A43F5544880ED6
:1050E00055C1C93F7D6FEB0312D6D43F5555555579
:1050F0005555C53F82922EB1C5B8B33F59018D1B9E
:105100006C06E63FC88A599CE52A00404B2D8A1C54
:10511000273A0340FFFFFFFF51EC110B43422DE9FB
:10512000F047034321F00048754F48EAD373BB4270
:1051300055EC104B49D86342234325F0004A4AEA14
:10514000D373BB42A94640D801F1404303F5801315
:1051500003438E4650D08E1706F0020654EA0A0327
:1051600046EAD57639D050EA08033ED0B84555D046
:10517000BA453AD0C8EB0A084FEA2858B8F13C0FB4
:1051800040DC002970DB02460B462046294601F030
:10519000A9FF41EC100B01F08BFB01F0CDF951ECB4
:1051A000100B012E5AD0022E48D0002E42D03EA322
:1051B000D3E9002301F0B8FC3DA3D3E9002301F0BB
:1051C000B3FC41EC100BBDE8F08722462B4601F002
:1051D000ADFC41EC100BBDE8F087022E16D0032E7B
:1051E0000ED19FED350BBDE8F087B9F1000F11DB53
:1051F0009FED330BBDE8F087BDE8F04701F09CB9A7
:10520000BDE8F0872EA1D1E90001CAE79FED280B88
:10521000BDE8F0879FED2C0BBDE8F087C24529D093
:10522000022EF3D0032EDCD0012E2DD09FED280BC3
:10523000BDE8F08741EC100BBDE8F0871AA3D3E975
:10524000002301F071FC02460B4619A1D1E90001CF
:1052500001F06AFC41EC100BBDE8F08701F1004160
:1052600041EC100BBDE8F08718F13C0F8BDA002001
:10527000002196E7022E13D0032E0DD0012E07D069
:105280009FED150BBDE8F0879FED150BBDE8F0878E
:105290009FED150BBDE8F0879FED150BBDE8F0877E
:1052A0009FED150BBDE8F087075C143326A6A13CE3
:1052B000182D4454FB210940182D4454FB2109C0EA
:1052C000182D4454FB21F93F182D4454FB21F9BFFC
:1052D0000000000000000000182D4454FB21E93FAD
:1052E0000000000000000080182D4454FB21E9BF9D
:1052F000D221337F7CD902C0D221337F7CD90240B6
:105300000000F07FFFFFFFFF2DE9F04F53EC102B63
:10531000974923F0004B8B458FB040F38780954928
:105320008B451C46824629DC002C194610EE100ADB
:1053300085A3D3E9002340F3A58101F0F5FB8E4B53
:105340009B4504460D4600F0878081A3D3E90023E6
:1053500001F0EAFB02460B46CAE900232046294633
:1053600001F0E2FB7AA3D3E9002301F0DDFB012584
:10537000CAE9020128460FB0BDE8F08F7F498B458E
:1053800040F387807E498B455BDC4FEA2B55A5F2C5
:105390001645ABEB05571046394610EE106A02F081
:1053A00027F801F00FFD8046894642464B463046BD
:1053B0003946CDE9088901F0B7FB0022714B01F0B5
:1053C00067FD8946804602F013F801F0FBFC0646B3
:1053D0000F4632463B4640464946CDE90A6701F052
:1053E000A3FB0022674B01F053FD00220023CDE90F
:1053F0000C0101F0B5FF002800F070810023304659
:105400003946002201F0ACFF002814BF012302231B
:105410005D4A0192022100912A46514608A800F0F7
:10542000AFFB002CC0F24C81054606E080ED000B7E
:1054300000250024C0E90245002528460FB0BDE83C
:10544000F08F10EE100A194601F06EFB0025CAE934
:105450000201CAE90001F0E73FA3D3E9002301F00C
:1054600063FB3FA3D3E900230D46044601F05CFB38
:1054700002460B46CAE900232946204601F054FBA8
:1054800037A3D3E9002301F04FFB0125CAE902014C
:10549000D3E701F00DFA57EC106B10EE100A32A3AF
:1054A000D3E90023394601F0F3FC0022374B01F029
:1054B0003DFB01F09DFF054601F084FC22A3D3E9EA
:1054C0000023CDE9040101F0E3FC02460B4630461F
:1054D000394601F029FB1EA3D3E900238046894603
:1054E000DDE9040101F0D4FC1F2DCDE9020151DCFE
:1054F000274B6A1E53F822309B454BD002460B4681
:105500004046494601F010FB06460F46CAE90067CF
:1055100032463B464046494601F006FBDDE90223A0
:1055200001F002FB002CCAE9020186DA07F100440F
:1055300001F100436D42CAF80060CAF80440CAF89D
:105540000800CAF80C3078E700004054FB21F93F0E
:105550003163621A61B4D03D0000601A61B4D03D7D
:105560007370032E8A19A33B83C8C96D305FE43F73
:10557000FB21E93F7BD90240FB21F93FFB21394167
:10558000FFFFEF7F00007041788400000000E03FE3
:10559000F8830000DDE902234046494601F0C4FAE1
:1055A0004FEA2B5BC1F30A53C3EB0B0306460F46CE
:1055B000102BCAE90067ABDD5DA3D3E90023DDE969
:1055C000040101F065FC06460F4602460B464046C4
:1055D000494601F0A9FACDE9060102460B464046CC
:1055E000494601F0A1FA32463B4601F09DFA52A32A
:1055F000D3E9002306460F46DDE9040101F048FC2B
:1056000032463B4601F090FA0B46CDE902010246D4
:10561000DDE9060101F088FAC1F30A53C3EB0B0B75
:1056200006460F46BBF1310FCAE9006776DD45A398
:10563000D3E90023DDE9040101F02AFC06460F4608
:1056400002460B46DDE9060101F06EFA02460B4602
:1056500080468946DDE9060101F066FA32463B469E
:1056600001F062FA39A3D3E9002306460F46DDE9CB
:10567000040101F00DFC32463B4601F055FACDE93C
:1056800002013BE701F052FA2D4B9B4504460D46C3
:1056900026D025A3D3E9002301F048FA02460B46A1
:1056A000CAE900232946204601F03EFA1EA3D3E9A9
:1056B000002301F03BFA4FF0FF35CAE90201BCE6D6
:1056C000DAF80420DAF80C3002F1004203F100436A
:1056D0004542CAF80420CAF80C30AEE6032397E628
:1056E00013A3D3E9002301F021FA13A3D3E9002384
:1056F0000D46044601F01AFA02460B46CAE9002399
:105700002946204601F010FA0BA3D3E9002301F04B
:105710000DFA4FF0FF35CAE902018EE6DDE9068990
:10572000F6E600BFAFF300803163621A61B4D03D8A
:105730000000601A61B4D03D7370032E8A19A33B38
:10574000FB21F93F0000002E8A19A33BC149202507
:105750009A837B392DE9F041654955EC104B0E4693
:105760002940B14200F09780002D2B4610EE102A00
:1057700074DD2F157FD0A7F2FF37C3F31303F907AA
:1057800043F4801365D403EBD27100260B447F10E1
:105790005200B64616204FF400110EEB01049C4255
:1057A0004FEAD2754FEA420203DC1B1B04EB010EE9
:1057B0000E44013805EB43034FEA5101EDD1844615
:1057C00020244FF0004109E020D003EBD275013CCA
:1057D0004FEA51012B444FEA420220D09E4501EB93
:1057E0000C05F1DA002D05EB010C09DBF0469542C2
:1057F000CEEB030300D9013B521B0844C646E4E745
:10580000BCF1000FF2DB0EF10108F0E795421ED863
:10581000002D05EB010C50DB98460023ECE7134309
:1058200004D0421C4DD000F0010318444008711010
:10583000F30701F17F5101F5001148BF40F000402E
:1058400001EB0753024643EC102BBDE8F081734691
:10585000BBE75B0003EBD273520094E725F00041F5
:10586000214328D0ADBB2F46D30A153F5205002B4C
:10587000FAD0DD0228D4002100E001465B00DC0202
:1058800001F10100F9D5C0F1200422FA04F4234308
:105890007F1A82406FE710EE102A2B4610EE100A96
:1058A000294601F0F5FA22462B4601F03FF941EC7A
:1058B000100BBDE8F081BDE8F081BCF1000FA2DA69
:1058C000AAE701362046B2E720244FF0FF3100203E
:1058D000DBE710EE102A2B462046294601F024F97A
:1058E00002460B4601F0FEFB41EC100BBDE8F081D7
:1058F0000000F07FFFFFFFFF2DE9F04F57EC106B2A
:105900002DED028BB0EE418AF0EE618A27F000495E
:10591000B9F1795F83B072DA10EE100A394601F0FE
:1059200067FD002800F0F68032463B463046394697
:1059300001F0AEFA7CA3D3E9002304460D4601F042
:10594000A7FA7BA3D3E9002301F0F0F822462B4607
:1059500001F09EFA78A3D3E9002301F0E5F822468E
:105960002B4601F095FA76A3D3E9002301F0DEF887
:1059700022462B4601F08CFA73A3D3E9002301F0F1
:10598000D3F822462B4601F083FA71A3D3E9002312
:1059900001F0CCF822462B4601F07AFA82468B467B
:1059A0000022714B2046294601F072FA5246804689
:1059B00089465B462046294601F06AFA53EC182BCB
:1059C00004460D463046394601F062FA02460B465F
:1059D0002046294601F0A8F802460B4640464946B3
:1059E00001F0A2F802460B460020604901F09CF845
:1059F00041EC100B03B0BDEC028BBDE8F08F10EE54
:105A0000102A10EE100A3B46394601F041FA46A32F
:105A1000D3E9002304460D4601F03AFA44A3D3E942
:105A2000002301F083F822462B4601F031FA42A30D
:105A3000D3E9002301F078F822462B4601F028FA3A
:105A40003FA3D3E9002301F071F822462B4601F071
:105A50001FFA3DA3D3E9002301F066F822462B4646
:105A600001F016FA3AA3D3E9002301F05FF82B46C0
:105A7000224601F00DFA3E4B994582468B468FDD5A
:105A80003C4B99453DDC0022A9F500130020374925
:105A90009046994601F048F8CDE900010022324BCA
:105AA0002046294601F0F4F942464B4601F03CF805
:105AB0005246804689465B462046294601F0E8F971
:105AC00053EC182B04460D463046394601F0E0F9F8
:105AD00002460B462046294601F026F802460B46B0
