:1000000000000320D1010000BD3200007532000065
:100010007532000075320000753200007532000044
:10002000753200007532000075320000BD320000EC
:10003000BD320000753200009D450000A146000061
:10004000BD320000BD320000BD320000BD320000F4
:10005000BD320000BD320000BD320000BD320000E4
:10006000BD320000BD320000BD320000BD320000D4
:10007000BD320000BD320000BD320000BD320000C4
:10008000BD320000BD320000BD320000BD320000B4
:10009000BD320000BD320000BD320000BD320000A4
:1000A000BD320000BD320000BD320000BD32000094
:1000B000BD320000BD320000BD3200007D4B0000AB
:1000C000BD320000A94C0000BD320000D54D00003B
:1000D000BD320000CD4E0000BD320000BD32000038
:1000E000BD320000BD320000BD320000BD32000054
:1000F000BD320000BD320000BD320000BD32000044
:10010000BD320000BD320000BD320000BD32000033
:10011000BD32000051380000BD320000BD32000089
:10012000BD320000BD320000BD320000BD32000013
:10013000BD320000BD320000BD320000BD32000003
:10014000BD320000BD320000C54F0000BD320000CE
:10015000BD320000BD320000BD320000BD320000E3
:10016000BD320000BD320000BD320000BD320000D3
:10017000BD320000BD320000BD320000BD320000C3
:10018000BD320000BD320000BD320000BD320000B3
:10019000BD320000BD320000BD500000BD32000085
:1001A000BD320000BD320000BD320000BD32000093
:1001B000BD320000BD320000BD320000BD32000083
:1001C000BD320000BD320000BD320000BD32000073
:1001D0005C4B4CF2205210B51A804DF628121A8052
:1001E00000BF00BF03F06EF8574B4FF030621A604B
:1001F000564A9A60564ADA60564B4FF470021A60BB
:10020000554B564A1A60564A136813F4807304D14A
:1002100054490B604FF4A8531360534B1A781107DD
:1002200003D51A7842F008021A70504B5049AA229E
:100230001A70504A504B8B4204D252F8040F43F8C4
:10024000040BF8E74D4B4E4900228B4202D243F893
:10025000042BFAE74B494C4A002352F8230041F89B
:1002600023000133742BF8D1484B494A802103F80D
:10027000011B9342FBD1474B424A1A60464B8A22EC
:100280001A70A3F5805324225A70A0221A709A790A
:100290009207FCD59A79D406FCD4404A937903F0AE
:1002A0000C03082BFAD13E4B60221A7002331A78E5
:1002B000802AFCD1394B01221A715D225A719A7938
:1002C0009006FCD59979354A4906FBD5354B364918
:1002D00019600021596020231370937903F00C03F7
:1002E0000C2BFAD1314B324A1A60324B324A1A6027
:1002F00000225A60072243F8042C304AC3F80C2D20
:1003000062B603F037F9174B1B68DA0705D52C489E
:1003100003F08EF82B4B2C4A1A602C4B1B785B0693
:1003200009D5284C284B22689A4204D1244803F06E
:100330007FF80023236005F00FFC02F0C9FF04F0F2
:10034000B7F9FEE70E20054030800440823F0400EC
:100350000100002B88ED00E0002008E0030000858C
:1003600010D0034014D0034002D0074000E0074003
:100370006C10FF1F948C00003007FF1F6C10FF1FD4
:10038000403DFF1F0002FF1F0000000000E400E0EE
:1003900064E400E008ED00E0005006400040064044
:1003A00001E007404480044000000602048004404D
:1003B000C010070014E000E01FBF02000000202072
:1003C000D07ED65A1CE00340A5C3945A00F00740E3
:1003D000FFFFFFFFFFFFFFFFFFFFFFFFFFFFFFFF2D
:1003E000FFFFFFFFFFFFFFFFFFFFFFFFFFFFFFFF1D
:1003F000FFFFFFFFFFFFFFFFFFFFFFFFFFFFFFFF0D
:10040000FFFFFFFFFFFFFFFFFFFFFFFFDEF9FFFF23
:1004100010B5054C237833B9044B13B10448AFF33E
:1004200000800123237010BD6C10FF1F000000002E
:10043000988C0000084B10B51BB108490848AFF371
:1004400000800848036803B910BD074B002BFBD0A0
:10045000BDE81040184700BF000000007010FF1FEB
:10046000988C00006C10FF1F0000000010B50D4CB0
:10047000204604F039F9204604F036F9204604F00D
:1004800033F90521084803F023FF204604F02CF936
:100490000A21064803F01CFF2046BDE8104004F086
:1004A00023B900BF7807FF1FB4650000BC650000DA
:1004B00010B52B4C204601F07BFC0B21294803F0A2
:1004C00007FF294804F010F94FF47A7003F000F8A0
:1004D00020469FED260A01F0F1F99FED251ADFED88
:1004E000250A9FED250A204601F070F920469FED70
:1004F000230A01F033F920469FED210A01F0F6F8B6
:100500009FED201ADFED200A9FED200A204601F022
:1005100061F89FED1F0A204601F02AF820461D4988
:1005200001F006F820461C4900F0E2FF9FED1B0A8F
:10053000204601F00DFA20460022012101F06EFA5A
:1005400020460322012101F069FA204604220121FC
:1005500001F064FA1248BDE8104002F0B9BF00BFD4
:100560009C10FF1FC86500007807FF1F3333B3409E
:1005700000003BC30000E44300C09A4433331340FF
:10058000CDCC7E4333337341CDCC00426666CA4145
:10059000CDCC1842D4650000DC6500008FC27540E8
:1005A000A086010030B50A4C0A4983B0072506230E
:1005B0008DE82800204608230A2202F003FD0648A1
:1005C0002B462146092203B0BDE8304000F06EBF43
:1005D0008810FF1F3007FF1F9C10FF1F002070476F
:1005E000704700BF2DE9F04F85B09946BDF93870CE
:1005F000BDF83CA0BB1AC1EB090B002BB8BF5B4296
:10060000BBF1000FB8BFCBF1000B5B450D461646A2
:100610000093804648DC4D453A4633464CDC19464B
:1006200013460A46C5EB09019B1A89B2002B0CB28E
:10063000B8BF5B4204EBD474BE42ACBF4FF0FF3294
:1006400001224D45039102924FEA640429DC9BB2DA
:1006500001930DE0D8F80070BF69B847019BE41A18
:10066000A3B21CB20135002C2DB211DBA94518DB59
:10067000009B5B452A46534631464046EADCD8F8A3
:10068000002053469769294632464046B847E5E779
:10069000029A1644039AA94502EB030436B224B227
:1006A000E6DA05B0BDE8F08F4A462B46B946354636
:1006B0004D4517461E46B2DD304629463E464D465C
:1006C00007468946AEE700BF10B404682469A44613
:1006D0005DF8044B604700BF30B40468BDF80850B3
:1006E0000295A46BA44630BC604700BF30B40468D8
:1006F000BDF808500295E46BA44630BC604700BFCB
:1007000070B40468BDF90C60BDF8105003960495F0
:10071000246CA44670BC6047704700BF10B582B01F
:10072000B0F90C2001910168009200220C6CB0F924
:100730000A301146A04702B010BD00BF704700BF8D
:1007400001F003010129C17506D0032904D0C28834
:1007500003894281838170470289C38842818381F2
:10076000704700BF2DE9F0410568134E6F6986B0F0
:10077000B7420446BDF8308010D1013B13441BB290
:100780000093CDF804800B46AD6A2046A847236845
:10079000DB6AB3420AD106B0BDE8F081059304924A
:1007A0000391B84703A925680EC9E6E7204606B0BD
:1007B000BDE8F041184700BF190700002DE9F041DE
:1007C0000568124E6F6986B0B7420446BDF83080A6
:1007D0000FD1013BCDF804800B4400921BB2AD6AEF
:1007E0002046A8472368DB6AB3420AD106B0BDE8B9
:1007F000F081059304920391B84703A925680EC9B7
:10080000E7E7204606B0BDE8F041184719070000A9
:100810002DE9F04F0568DFF858B06F6985B05F4586
:100820000646BDF93890BDF83CA00C46904615D15F
:100830001F19BC420CDACDF800A0214601342D6A04
:100840004B464246304624B2A847BC423568F2DBEC
:10085000EB6A5B4507D105B0BDE8F08F0393B8475D
:100860003568039BE4E7304605B0BDE8F04F184714
:10087000190700002DE9F04387B099420546BDF9FC
:100880003840BDF83C6025D0A24212D00768DFF89E
:100890008080D7F81490C14532D18DE850002846A9
:1008A000BC6AA0472B68DB6A434524D107B0BDE88A
:1008B000F083994202DD08461946034628680E96E1
:1008C000C46B01335B1A1BB22846A44607B0BDE8CF
:1008D000F0436047A24202DD134622461C462868C8
:1008E0000E96631C846B9B1A1BB22846A44607B065
:1008F000BDE8F0436047284607B0BDE8F04318471D
:10090000059304920391C84703A92F680EC9C4E751
:10091000190700002DE9F04FD0F800E0DFF89090C3
:10092000DEF814B083B0CB450446BDF93080BDF885
:1009300034A00D4617461E4631D1CDF800A0DEF892
:1009400024B0294633463A462046D8472368CDF896
:1009500000A008F1FF323A44D3F824B0294612B27D
:1009600033462046D8472368CDF800A02946D3F85F
:1009700020B03A4643462046D8472068CDF800A02C
:10098000711E29444346056A09B23A462046A847E3
:100990002368DB6A4B4506D103B0BDE8F08FD8472A
:1009A000D4F800E0C9E7204603B0BDE8F04F18478F
:1009B00019070000F0B4002401264FF6FF75094F17
:1009C00007600471C475C48104824476C46186756D
:1009D000067685824582C180028141818281F0BC98
:1009E000704700BFF06500002DE9F04F1D461FFA6B
:1009F00085FACAEBCA3E8BB0076801934FEA4E0EE8
:100A000015460FFA8EF27B6905926A4ABDF850804E
:100A1000CAF101069342044689460FFA86FB40F06C
:100A2000C080ABB20AEB03021E46BF69029312B24A
:100A3000434649462046B8472368CAEB06021FFAD8
:100A400089F69F69039612B2434649462046B84745
:100A500023680AEB06012A4609B29F6920464346ED
:100A6000B8472368CAEB06012A4609B29D692046A9
:100A70004346A847019B002B40F38B80002304933F
:100A8000039B5A1C013B0893029B09925A1C013B91
:100A9000079206935E46049A099B95B2013205EBD4
:100AA000030B0492059A0FFA8BFB002E434659461E
:100AB000204602F102020ADB019F92B2013F3FB2DF
:100AC000164412B2019736B205921FFA87FA029ABB
:100AD000276802EB0A090FFA89F94A46BF69B84745
:100AE000089B5F1B23683FB24A463946D3F81890EB
:100AF00020464346C847029A2368CAEB02090FFA08
:100B000089F959464A46D3F818B020464346D84793
:100B100023684A46394620469F694346B847039BA7
:100B2000079A03EB0A0905EB020B23680FFA89F910
:100B30000FFA8BFB49465A469F6920464346B84701
:100B4000039BCAEB030723683FB25A463946D3F8E2
:100B500018B020464346D847069BC5EB030B2368D5
:100B60000FFA8BFB49465A46D3F818902046434665
:100B7000C847236839465A469F692046434606EBD4
:100B80004506B8470135019B2DB20336AB4236B25C
:100B900081DC2368074ADB6A934205D10BB0BDE8CC
:100BA000F08F984727683CE720460BB0BDE8F04F30
:100BB000184700BF190700002DE9F04F93B0904689
:100BC0000591C1691090BDF870000790BDF8749050
:100BD0009DF878A00493002900F0CD800A7A0AC914
:100BE000894604998A1AD2B203EBC203BAF1010F03
:100BF000DA780B9293F905201E8893F802B00F92D1
:100C000093F9064079D913B2099323B20C93109B40
:100C10001A68A94B1193194653698B4240F0A6807C
:100C20000B9B002B55D01FFA88F300210D93C8466B
:100C30002344DDF8409006910E930F460C46BBF11D
:100C4000000F3FD0BDF818100C9B03971FFA8AF0D5
:100C5000CB1813FB00F304900E9801440D98034445
:100C600009B21BB20A910893002505E00135EBB2E9
:100C700064009B45E4B222D9039B2B44590703D15E
:100C8000731C18F806409EB22306EFD5099BBDF8E9
:100C90001000E91811FB00F10598BAF1010F0FFAE5
:100CA0008AF301441CD0079801900093D26909B2DD
:100CB00017464846089AB847D9F80020D6E7039F58
:100CC0005F44FFB2069B0B9901330693DBB2994256
:100CD000B5D8D36A119A934243D113B0BDE8F08FCF
:100CE0000F9B191893690A9A29441F4609B2079B5A
:100CF0004846B847D9F80020B8E700230C93099379
:100D000085E70A9A0D9B0132013B52B213F0FF03B3
:100D10000A920D936FD1DDF81890079BDDF83C80A7
:100D2000DDF820A04B4517D0BAF1010F00F0C880C4
:100D30000B9A109DCDF804900BEB8B014FEACB037F
:100D40000A4400931146DEF81C405346424609B25D
:100D50002846A047D5F800E0DEF82C30119A9342DF
:100D6000BBD0109813B0BDE8F04F1847109D28462F
:100D700098472A6854E7109A0598B2F90A308342D6
:100D8000ABDDB2F90C304345A7DD062313FB0A03A4
:100D9000002BA2DD08EBCA03002B9EDD537E2BB98E
:100DA000049BAF2B02D90133DBB20493109BD3F821
:100DB00000E0414B11931A46DEF81430934240F0A4
:100DC0008E801FFA88F30E9308339BB2BDF814206F
:100DD000059305230D9300230A93CDF83C800FFA69
:100DE0008AF3DDF84080CDF818900B921FFA8AFB49
:100DF000CDF820A099460A9ABDF810000B9C0E9DD4
:100E00000523194611FB00232C481146C75C0397A4
:100E100002FB0B4214FA81F312B21BB209920C933B
:100E20002C462E461CE0089B0999012B2AB24B4602
:100E300040462DD0079F0197CDF80090DEF81CA00A
:100E4000D047D8F800E0039B5B0801340393059B6F
:100E5000A4B25D445E44A342ADB2B6B23FF451AF1A
:100E6000039BD807DFD4079B069A9342EBD0089BDD
:100E7000012B16D0069B0193CDF80090DEF81CA044
:100E800009994B4632B24046D047D8F800E0DAE73D
:100E9000DEF818A0079B0C9922B2D047D8F800E0E2
:100EA000D1E7DEF818A00C991346404622B2D0478D
:100EB000D8F800E0C7E700BF19070000406600004F
:100EC0000B99109DCDF800900531DEF8204009B255
:100ED000424608232846A047D5F800E03CE7109C8E
:100EE00020469847D4F800E06BE700BFF0B5C3692F
:100EF00085B004462BB30A2968D00D294AD01A7A46
:100F0000914247D3587A884244D35D688A1A05EBE8
:100F1000C205AA78002A50D0E87800284DD0207E5B
:100F200000283AD095F905E0B4F90E00A67DB4F991
:100F30000A70724406FB0202BA4262DCB4F9102065
:100F400030E00A2956D00D2924D0027E002A4BD049
:100F5000B0F90E00A57DB4F90A60062212FB050265
:100F6000B2423EDD228AE38102EBC50212B218468C
:100F70002282A78A668A02950B468DE8C000014648
:100F80002046FFF719FEA37DE28903EB430302EB42
:100F90004303E381012005B0F0BDA67DB4F90E0046
:100FA000B4F91020B4F814E0678A02960B468DE875
:100FB000804001462046FFF7FFFD2979E389A27DA5
:100FC000012001FB0233E38105B0F0BD0022C281A4
:100FD0009A7A817D038A01FB02330382012005B0E6
:100FE000F0BDB4F91020C4E7857DB4F91020B0F944
:100FF0000E00BEE7028A817DC38102EBC10303823A
:10100000C8E70020E0819B7A228A03FB062212B205
:101010002282C7E7C1810282704700BF818241827C
:10102000704700BFC07D7047C36911B143B1C16152
:101030007047002BFBD0038AC161063B03827047D7
:10104000038AC16106330382704700BFB0F90A000A
:10105000704700BFB0F90C00704700BF2DE9F04F9A
:101060008DB00746BDF8644007942546BDF8604042
:101070000194264605F00205BDF85C400594ADB22A
:101080004FF6FF74341B069518BF4FF0FF34069DD2
:101090000893A3B2BDF858B00A9103920093002DB3
:1010A00000F0BE809A460096079B0BF1070203F4FE
:1010B0008073D2109BB20992002B60D1059A002A4E
:1010C0005AD0079A06931D4602F004039BB201937F
:1010D0000899059BCDF808A00B44DDF80CA00B93F4
:1010E0002A46BBF1000F40D00799BDF818300A9886
:1010F00011F0080F0B99C3EB010908990B440999EA
:1011000018BF4B4601FB02020FFA83F90BEB0A03EF
:101110000392002604931AE0EDB2029A009B15F0A8
:10112000800F18BF1346019A0AEB04010AB1049A12
:10113000111B3A6889B20134D2F8108009B24A46CC
:10114000384624B2C047A34506F101060DDDB4B20E
:1011500014F0070F33B24FEA4505DDD1002BB8BFBD
:101160000733DB10039AD55CD7E7069B01331AB22D
:101170000693059B9A42B4DB0DB0BDE8F08F059B4A
:10118000002BF9D000231A460493079B03F00403B5
:101190009BB2B8461146164600935F46002F49D0D1
:1011A0000898059CBDF81030221800EB030AD31AEA
:1011B000069A12F1000B079A18BF4FF0010B12F0BC
:1011C000080F18BF9A460A9A099B03FB0123029352
:1011D0000FFA8AFA0025B94617E07600F6B2BBEBA3
:1011E000D61F0CD0009BF3B9039BE11889B2D8F845
:1011F000003009B21F69019B52464046B84701348E
:1012000024B2A14505F1010513DDACB262072BB292
:10121000E3D1002BB8BF0733DB10029AD65CDEE7C0
:10122000DDF804A040E7039B09EB0301091B89B229
:10123000DDE74F46049B013319B20493059B9942A5
:10124000ACDB0DB0BDE8F08F10B50446FFF7B2FB84
:10125000024B236001232384204610BD486B00000D
:1012600001230384FFF7E0BE704700BF10B4046899
:10127000E46E0023A4465DF8044B604710B4046894
:10128000E46EA4465DF8044B604700BF4FF6FF7361
:10129000994230B41CD0C9B1B1F5784F1BD001F4DC
:1012A0007141B1F5F14F95BF0021FF21FF250025C8
:1012B00000F5A554033400F21B13224603F8015F26
:1012C000A34202F8011FF9D130BC7047FF25EFE7B8
:1012D00000210D46ECE7FF210025E9E7F0B4BDF859
:1012E0001070BDF81460BDF81850BDF91C4004978B
:1012F000059606950794F0BCFFF7B0BEF8B50F1E33
:1013000006DB14461D460646FFF7A0FEB84200DC89
:10131000F8BD002CFCDB3046FFF79CFEA042F7DD59
:101320003046FFF77FFE022857D0032850D001280F
:1013300003D1C4F1C7033C461FB242F63003002F6D
:1013400004EB8404F35E384604EB8404B8BFF81D54
:1013500004EBE000002B80B235DDC3EB431203EB5E
:1013600082039B009842D3D303F5FA729042CFD206
:10137000C01A80B2204B30443B40002B90F91C61D6
:1013800035DB1BB20122C3F1070302FA03F341F27A
:10139000A4415BB2DA43445606EA020780F81C71A6
:1013A0004FF6FF772240BD424254B1D03DB1B5F572
:1013B000784F19D005F47145B5F5F14F14D8334382
:1013C00080F81C31F8BD41F287339842D2D9F8BD7C
:1013D000C7F1C70327461CB2AFE7C7F1C707C4F17F
:1013E000C7043FB224B2A8E723434354F8BD013BEE
:1013F00063F007030133C4E70700008038B50446F3
:1014000019B142F632030122C25442F62C0560594A
:1014100003685B6898476059134A03689B68934266
:101420001ED142F634056057002807DBC0B2012107
:1014300002F010F8605D012102F020F842F6350359
:101440000021E05C02F01AF823684FF6FF715B6C34
:101450002046984742F630034FF6FF72E25238BDFD
:1014600002499847DDE700BF6912000000093D000E
:10147000F0B50468DFF830C0A46DBDF81450BDF8B5
:101480001860BDF81C70BDF920E0CDF820E064457F
:1014900007970696059503D1BDE8F040FFF7DEBD3E
:1014A000A446BDE8F0406047DD120000F8B51646DE
:1014B000C8220F46114604461D46FFF7C5FE42F6F8
:1014C0002C0242F63000A750084F276042F6320146
:1014D00042F6340342F635024FF6FF7727520020DA
:1014E0006054E654A5542046F8BD00BF8C87000028
:1014F00070B504460D460D49FFF7B2FEB4F924203D
:10150000B4F928102046FFF785FD20464FF47841B6
:10151000FFF784FD284604F033FE2368024629467F
:1015200020465B68BDE87040184700BF3876000071
:1015300070B504460D460D49FFF792FEB4F92C2014
:10154000B4F930102046FFF765FD20464FF478418E
:10155000FFF764FD284604F013FE2368024629467F
:1015600020465B68BDE87040184700BF3876000031
:1015700010B5044682B015498DED010AFFF770FEE3
:10158000B4F93420B4F938102046FFF743FD204663
:101590004FF47841FFF742FD9DED010A10EE100A6D
:1015A00003F0B0FF41EC100B2046012103F0ECF8F2
:1015B00020460021FFF732FD236805495B6820467D
:1015C000022202B0BDE81040184700BF3876000084
:1015D000DC7D0000F0B5044685B041498DED021A6E
:1015E00010EE907A8DED030AFFF73AFEB4F94C2025
:1015F000B4F950103B4E2046FFF70CFD20464FF447
:101600007841FFF70BFD9DED030A10EE100A03F081
:1016100079FF41EC100B2046012103F0B5F820467C
:101620000021FFF7FBFCE26C216D00250D3A233110
:1016300012B22046022309B20095FFF7D5F92046E1
:101640003146FFF70DFE236827495B6801222046DB
:10165000984731462046FFF703FEB4F95420B4F909
:1016600058102046FFF7D6FC20464FF47841FFF78C
:10167000D5FC384603F046FF41EC100B29462046C6
:1016800003F082F829462046FFF7C8FC236820466D
:101690001B68DF219847B4F95C20B4F9601020463C
:1016A000FFF7B8FC20464FF47841FFF7B7FC9DEDFB
:1016B000021A11EE100A03F025FF41EC100B294627
:1016C000204603F061F829462046FFF7A7FC23686F
:1016D0001B682046DF2105B0BDE8F040184700BF79
:1016E0003876000014880000E07D000010B5044644
:1016F00084B019498DED030AFFF7B2FDB4F97C20DF
:10170000B4F980102046FFF785FC20464FF478415D
:10171000FFF784FC9DED030A10EE100A03F0F2FEC1
:1017200041EC100B2046002103F02EF8E26FD4F8B4
:10173000801000230C3A23312046009312B209B2E4
:101740000223FFF751F923681B682046DF2104B00C
:10175000BDE81040184700BF3876000010B50446B9
:1017600082B017498DED010AFFF77AFDB4F98420A4
:10177000B4F988102046FFF74DFC20464FF478411D
:10178000FFF74CFC9DED010A10EE100A03F0BAFEC3
:1017900041EC100B2046012102F0F6FF20460949DA
:1017A000FFF75EFD20460021FFF738FC236806495D
:1017B0005B682046042202B0BDE81040184700BF15
:1017C0003876000014880000E47D000070B50446FF
:1017D00082B038498DED001A10EE906A8DED010A45
:1017E000FFF73EFDB4F93C20B4F94010324D2046DD
:1017F000FFF710FC20464FF47841FFF70FFC9DEDFA
:10180000010A10EE100A03F07DFE41EC100B204699
:10181000002102F0B9FF20460021FFF7FFFB2368FB
:1018200029465B68204603229847B4F96420B4F93E
:1018300068102046FFF7EEFB20464FF47841FFF793
:10184000EDFB304603F05EFE41EC100B204600211C
:1018500002F09AFF20460021FFF7E0FB23682946AB
:101860005B68204603229847E26EB4F97010013A93
:1018700012B22046FFF7CEFB20464FF47841FFF727
:10188000CDFB9DED001A11EE100A03F03BFE41EC7A
:10189000100B2046002102F077FF20460021FFF7C1
:1018A000BDFB23685B6829462046032202B0BDE8E1
:1018B0007040184738760000EC7D000010B50446F3
:1018C00082B020498DED010AFFF7CAFCB4F944202B
:1018D000B4F948102046FFF79DFB20464FF47841AD
:1018E000FFF79CFB9DED010A10EE100A03F00AFEC3
:1018F00041EC100B2046022102F046FF2046002159
:10190000FFF78CFB236810495B6820460322984749
:10191000626CB4F94810143212B22046FFF77AFB19
:1019200020464FF47841FFF779FB236807495B684D
:101930002046062298472046002102B0BDE810400C
:10194000FFF76CBB38760000F07D0000F47D0000EE
:1019500010B5044682B02C498DED010AFFF780FCDA
:10196000B4F98C20B4F990102046FFF753FB2046C1
:101970004FF47841FFF752FB9DED010A10EE100A7B
:1019800003F0C0FD41EC100B2046022102F0FCFEEA
:1019900020460021FFF742FB23681C495B680222B6
:1019A0002046984720461A49FFF75AFCD4F88C2065
:1019B000D4F890101632193912B2204609B2FFF746
:1019C00029FB20464FF47841FFF728FB2368114993
:1019D0005B680A222046984720460021FFF71EFB3D
:1019E000D4F88C20D4F8901016321739204612B251
:1019F00009B2FFF70FFB236807495B6820460E22F8
:101A000002B0BDE81040184738760000FC7D0000A9
:101A100008880000007E00000C7E00002DE9F043E5
:101A2000044685B08846BB491646FFF719FC236873
:101A3000B8F1000F3ED19D6DB749B4F8F43006EB14
:101A40008602D2008D4292B240F0D6801E2028211C
:101A50004FF6FF75019000912046B049CDF80C80FB
:101A60000295FFF7FBFA00212046FFF7D7FA002E78
:101A700000F0D580012E40F0878000212046FFF73E
:101A8000CDFA2046B9222821FFF7C4FA2368A449D9
:101A90005B680522204698472046C3222821FFF78D
:101AA000B9FA23689F495B682046062205B0BDE865
:101AB000F04318479F6D984AB4F8F43006EB86055A
:101AC000ED009742ADB240F08A8028201E214FF4ED
:101AD000784200278DE887002A4690492046FFF784
:101AE000BDFA0027032223688DE8840029B2AA22C8
:101AF0001D6C20462823A847751C05EB8505ED00C5
:101B0000ADB2236801971E220092A91ED3F840901F
:101B100009B20223AA222046C84723680197082257
:101B20000092E91ED3F8409009B20123AA22204670
:101B3000C8472368019701220092E91FD3F840901B
:101B400009B20523AD222046C8472268691FD2F892
:101B5000109009B23B46AE222046C847043D226899
:101B60002DB229463B46D2F810902046AE22C847F7
:101B7000226829463B4615692046AF22A847002E19
:101B80005FD0012E00F0A680022E67D0032E00F059
:101B90008380042E02D005B0BDE8F083B8F1000FB9
:101BA00040F0E48041462046FFF738FAB922A021F0
:101BB0002046FFF72FFA23685B495B680522204621
:101BC0009847C322A0212046FFF724FA23685749EB
:101BD0005B682046062205B0BDE8F0431847282080
:101BE0001E214FF478424FF0000E8DE807402A4640
:101BF0004A492046B84774E71E2028214FF6FF7750
:101C00000190009120464549CDF80C800297A847E5
:101C100000212046FFF702FA002E7FF42BAFB922F5
:101C200031462046FFF7F6F931462046FFF7F6F930
:101C300023683F495B6820460C2205B0BDE8F043AD
:101C400018473146B9222046FFF7E4F94FF6FF71F5
:101C50002046FFF7E3F923683649EBE7B8F1000FB8
:101C60003BD04FF6FF712046FFF7D8F9B92250213B
:101C70002046FFF7CFF9236829495B6805222046F3
:101C80009847C32250212046FFF7C4F923682A4908
:101C90005B68204604229EE7B8F1000F54D04FF64F
:101CA000FF712046FFF7BAF9B92278212046FFF7E5
:101CB000B1F9236821495B68052220469847C32271
:101CC00078212046FFF7A6F923681D495B68204666
:101CD000052280E74FF6FF71D0E641462046FFF728
:101CE0009DF9B92250212046FFF794F923680C4949
:101CF0005B68052220469847C32250212046FFF703
:101D000089F923680F495B682046062205B0BDE8C3
:101D1000F0431847107A0000DD12000084760000BE
:101D20001C7E0000247E0000587E0000607E0000C3
:101D3000687E0000787E00002C7E00003C7E000063
:101D4000447E0000347E000041462046FFF766F9DD
:101D5000B92278212046FFF75DF9236811495B68B5
:101D6000052220469847C3227821C7E74FF6FF7126
:101D70002046FFF753F9B922A0212046FFF74AF980
:101D8000236809495B68032220469847C322A021A3
:101D90002046FFF73FF9236804495B683246204636
:101DA00019E700BF3C7E00004C7E0000507E000022
:101DB0002DE9F0430368AA4E1B6B044685B0002151
:101DC0009847236820465B6C4FF6FF7100259847C3
:101DD0004FF0AA0823680195CDF800801F6C2A46B1
:101DE000204602236421B847022723680097019503
:101DF000D3F840902946204664232A22C847236806
:101E000000970195D3F84090294620466423542238
:101E1000C847236800970195D3F840902046C8230F
:101E20004A226421C847236800970195D3F840905F
:101E300029462046C8237E22C8472368019500977B
:101E40001F6C424629462046C823B8472368B4F889
:101E500098209F6DB4F89430029519210120B74263
:101E600003900191009120467E4940F0E280FFF707
:101E7000F5F82368B4F8A8209D6DB4F8A4300020CC
:101E80001921B542039002900191009120467649B4
:101E900040F0E380FFF7E2F82368B4F8B8209D6DC6
:101EA000B4F8B43000201921B5420390029001919A
:101EB000009120466D4940F0CE80FFF7CFF82368AF
:101EC000B4F8C0209D6DB4F8BC3000200F21B5429D
:101ED00003900290019100912046654940F0B9803D
:101EE000FFF7BCF82368B4F8C8209D6DB4F8C4307F
:101EF00000200F21B54203900290019100912046ED
:101F00005C4940F0A480FFF7A9F82368B4F8E0200A
:101F10009D6DB4F8DC3000201921B5420390029089
:101F2000019100912046544940F08F80FFF796F8C8
:101F30002368B4F8A0209D6DB4F89C3000201921CE
:101F4000B542039002900191009120464B497AD10D
:101F5000FFF784F82368B4F8B0209D6DB4F8AC3076
:101F600000201921B5420390029001910091204672
:101F7000434966D1FFF772F82368B4F8D0209D6D0D
:101F8000B4F8CC3000200F21B542039002900191AB
:101F900000912046364952D1FFF760F82368B4F823
:101FA000D8209D6DB4F8D43000200F21B5420390A5
:101FB00002900191009120462E493ED1FFF74EF844
:101FC0002368B4F8F0209D6DB4F8EC30002019219E
:101FD000B5420390029001910091204629492AD1EF
:101FE000FFF73CF800251E2223688DE824002946CF
:101FF0001E6C2046C823AA22B0472A4629462046FE
:10200000FFF70CFD294620460122FFF707FD294670
:1020100020460222FFF702FD294620460322FFF751
:10202000FDFC29462046042205B0BDE8F043FFF739
:10203000F5BCB8471DE7A847D4E7A847C0E7A847BD
:10204000ACE7A84798E7A84784E7A84770E7A84700
:102050005BE7A84746E7A84731E7A8471CE700BF6A
:10206000DD120000146E0000787D00008882000000
:102070005476000020880000147D000024820000B7
:1020800020870000986B00002DE9F04100F52054F6
:102090000746884601F0F8F91F4E3534054606E03C
:1020A00001F016FA01F0F0F9401BB04226D8207872
:1020B00001F0D6F901284FF00100F1D1B8F1000F7D
:1020C00020D042F63203FB5CE3B101F0DDF9451BA1
:1020D000404604F055F80146404602F0F9F8032165
:1020E0000E4802F0F5F8294600230A220C4802F0B7
:1020F0000BFB0B48BDE8F04102F0F6BA42F63203A2
:10210000FB5C0BB9BDE8F0810D21064802F0E0F858
:10211000034802F0E9FAD1E780969800987E000023
:102120007807FF1F887E000070B542F62C04054634
:10213000005903685021DB6A984728590368172122
:102140001B6B9847285903688221DB6A98472859F6
:10215000036800211B6B9847285903680121DB6A3B
:1021600098472859036802211B6B98472859036830
:1021700000211B6B98472859036800211B6B984767
:102180002859036800211B6B984740F2DC5001F08E
:102190009FF9285903680221DB6ABDE8704018479F
:1021A00042F62C0370B5C358494D1A6800F5205407
:1021B0002021D26A184690472C3405F10E060E21D4
:1021C00001E015F8011F206803681B6B9847B542B2
:1021D000F7D120683F4D03682121DB6A984705F15C
:1021E0000E060E2101E015F8011F206803681B6B25
:1021F0009847AE42F7D12068374D03682221DB6A49
:10220000984705F10E060E2101E015F8011F206820
:1022100003681B6B9847AE42F7D120682F4D0368C7
:102220002321DB6A984705F10E068E2101E015F89F
:10223000011F206803681B6B9847AE42F7D12068E6
:10224000274D03682421DB6A984705F10E068E218D
:1022500001E015F8011F206803681B6B9847AE4228
:10226000F7D120681F4D03682521DB6A984705F1E7
:102270000E06032101E015F8011F206803681B6B9F
:102280009847AE42F7D12068174D03682621DB6AD4
:10229000984705F10E06832101E015F8011F20681B
:1022A00003681B6B9847AE42F7D120680F4D036857
:1022B0002721DB6A984705F10E06032101E015F896
:1022C000011F206803681B6B9847B542F7D170BDAA
:1022D0004088000014820000F481000004820000A5
:1022E0001087000074760000447600001C77000020
:1022F00038B542F634050446405700280DDB00216E
:10230000C0B201F0A7F80A2001F0E2F8605D0121F7
:1023100001F0A0F80A2001F0DBF842F62C050121BB
:1023200060590368DB6A98476059036807211B6B93
:1023300098476059036800211B6B984760590368F0
:1023400008211B6B98476059036800211B6B984755
:10235000605903680621DB6A9847605903680721C2
:102360001B6B98476059036807211B6B984760599E
:10237000036807211B6B9847605903680421DB6AD7
:10238000984720462149FFF77FFE605903680021E6
:10239000DB6A984760590368CF211B6B98476059E7
:1023A00003685021DB6A98476059036837211B6B2B
:1023B0009847605903683021DB6A98476059036881
:1023C00039211B6B9847605903686121DB6A984784
:1023D00060590368C8211B6B984760590368002146
:1023E0001B6B984760590368C8211B6B984760595D
:1023F00003688221DB6A9847605903680E211B6BD2
:1024000098472046BDE83840FFF7CABE9C7E0000D2
:102410002DE9F84342F63003C35E013301D0BDE835
:10242000F8830646FFF764FF42F62C031021F058AC
:10243000DFF884800368DB6A984706F5A55506F542
:10244000205703352C3706F21B1919F8014F38684D
:10245000E443E4B22209036818F802101B6B9847A2
:10246000386804F00F04036818F804101B6B9847D1
:102470004D45EAD1386803681321DB6A984706F5B1
:1024800020542B34386815F8011F0368C9431B6BAF
:10249000C9B29847AC42F5D1386803681221DB6AAB
:1024A000984730460349FFF7EFFD3046BDE8F84353
:1024B000FFF73ABEA87E00002C7700002DE9F84F08
:1024C00042F630040A9F045F013401D0BDE8F88F62
:1024D00081461E4690468B46FFF70AFF42F62C03C4
:1024E000102159F803000368DB6A984709F5205565
:1024F0002C35002442F2107A28680368A64288BF6F
:102500001BF804101B6B98BF0021013498475445F9
:10251000F2D1286803681321DB6A9847002441F24E
:10252000883628680368A74288BF18F804101B6B18
:1025300098BF002101349847B442F2D1286803685B
:102540001221DB6A984748460349FFF79DFD48463C
:10255000BDE8F84FFFF7E8BDB07E00002DE9F04F71
:1025600042F6300583B0455FDDF83080BDF9346058
:10257000013502D003B0BDE8F08F04461F4601923A
:102580008B460090FFF7B4FE42F62C0304F520556D
:10259000E058DFF8C09003681021DB6A98472C35BB
:1025A000002422E01BF80420D343DBB219091009F0
:1025B00003F00F0302F00F0216F0020F07BF19F825
:1025C000001019F802A019F8011019F803A02868E2
:1025D00003681B6B98472868036851461B6B984734
:1025E000013441F288339C4205D0A742DAD84FF03B
:1025F000FF0A5146EBE7286803681321DB6A06F0FF
:1026000080069847B6B20024019F0CE0395DCB43A9
:1026100006B1D9B2286803681B6B9847013441F2B0
:1026200088339C4203D0A045F0D8FF21F2E7286808
:1026300003681221DB6A9847009C05492046FFF792
:1026400023FD204603B0BDE8F04FFFF76DBD00BF8E
:10265000B07E00002C77000042F63003C35E0133E9
:1026600000D0704770B50646FFF742FE42F62C03D5
:102670001021F0580368DB6A984706F520552C3581
:1026800042F2107428680368FF211B6B9847013CD5
:10269000F8D1286803681321DB6A984741F288342F
:1026A00028680368FF211B6B9847013CF8D1286814
:1026B00003681221DB6A984730460449FFF7E4FCBF
:1026C0003046BDE87040FFF72FBD00BFBC7E000064
:1026D0002DE9F04F42F6300483B0045F013402D09C
:1026E00003B0BDE8F08F1C46824690468B460546F7
:1026F0000190FFF7FDFD42F62C0310215AF803006C
:10270000254E0368DB6A98470AF5205A04F0020355
:102710009FB20AF12C0A002441F28839A0458CBFEF
:102720001BF80450002501340FB1ED43EDB2290927
:10273000DAF80000715C0368C9431B6BC9B205F08D
:102740000F059847DAF80000715D0368C943C9B204
:102750001B6B98474C45E1D1DAF800000368132160
:10276000DB6A9847DAF800000368FF211B6B984783
:10277000013CF7D1DAF8000003681221DB6A9847C0
:10278000019C06492046FFF77FFC204603B0BDE8C8
:10279000F04FFFF7C9BC00BF2C770000CC7E0000D3
:1027A0002DE9F84342F62C0506464059BDF8208035
:1027B000013B43F0070403684FF6F8770F40DB6AEC
:1027C0009021914698477059036807F0F8011B6BF8
:1027D00098477059036824B2E1B21B6B984770594F
:1027E00003684FEA19211B6B9847705903685FFA19
:1027F00089F11B6B9847705903684FEA18211B6BCE
:102800009847705903685FFA88F11B6B98477059B5
:10281000036801211B6B9847A0B20730C01B48BF5B
:102820000730C0F3CF00BDE8F88300BF2DE9F04FBB
:1028300042F630048946015F89B00131BDF8485045
:102840009DF84C7002D009B0BDE8F08F06461446E2
:10285000002F40F0C480B9F1C70FF4D8C72CF2D8CC
:102860004B449BB242F62C086219C82B92B256F820
:10287000080028BFC823C82A28BFC8225D1E42F608
:1028800033010368013A4FF0010E92B2DB6A039202
:1028900006F801E091219847ADB2039A00922B46C9
:1028A000224649463046FFF77BFF56F8080003688A
:1028B000EF1DC9F3CF05DB6A049510219847039AF1
:1028C00023B2A2424FEAE70719460793C0F2B0804D
:1028D00004EB840404EB84042B199BB2069306F5E5
:1028E00020599B462BB209F12C0905938A4641F2E7
:1028F0008738049B9F4217DD059D5C46331944458C
:10290000D9F8000098BF93F81C11036898BFC94319
:1029100005F1010594BFC9B2FF211B6B2DB2984789
:102920000134AF42A4B2E9DC0AF1010A039B0FFAB9
:102930008AFA0BF1190B9A451FFA8BFBD9DD42F687
:102940002C031321F0580368DB6A984706F5205AD8
:10295000DDF818B0DDF81C900AF12C0A41F2873836
:10296000049B9F4219DD059D5C46331903F5A55371
:1029700004334445DAF8000098BF1978036898BF1B
:10298000C94305F1010594BFC9B2FF211B6B2DB2EC
:1029900098470134AF42A4B2E7DC09F10109039B77
:1029A0000FFA89F90BF1190B99451FFA8BFBD7DD4B
:1029B00042F62C04122130590368DB6A98473046EE
:1029C0001F49FFF761FB305903689221DB6A984782
:1029D0004FF4967009B0BDE8F04F00F079BD039355
:1029E000FEF720FB0228039B17D003280CD00128F8
:1029F0007FF431AFC4F1C702521B19464C462B4637
:102A00001FFA82F90D4626E7C9F1C702D21A194604
:102A1000A1462B4694B20D461DE7C9F1C709C4F182
:102A2000C704C3EB0909641B1FFA89F9A4B212E7B2
:102A300056F8080003681321DB6A9847B8E700BF1F
:102A4000F47E000000207047C3681A684FF0004110
:102A5000FF23D1625363D36A002BFCDA906BC0B2C0
:102A6000704700BFC268064B12684FF00041D16248
:102A70005363D36A002BFCDA906B80B2704700BFBF
:102A8000FFFF0010C3681A684FF00043D362516320
:102A9000D36A002BFCDA936B704700BF8AB1C3681E
:102AA000186810B40A444FF0004411F8013BC462A6
:102AB0004363C36A002BFCDA9142836BF5D15DF866
:102AC000044B704782B1C368186810B441F080515C
:102AD0004FF00044C4624163C36A002BFCDA013A40
:102AE000836BF7D15DF8044B704700BFC3681B6868
:102AF0004FF000400A12D8625A63DA6A002AFCDA00
:102B0000C9B24FF00042986BDA625963DA6A002A60
:102B1000FCDA9B6B704700BF70B5044690F910005B
:102B200000280D46164603DBC0B2002100F092FCDF
:102B300023682046324629465B6C984794F910007A
:102B4000002805DBC0B20121BDE8704000F082BC66
:102B500070BD00BF90F91000002803DBC0B2002157
:102B600000F078BC704700BF90F91000002803DB2C
:102B7000C0B2012100F06EBC704700BF90F9110097
:102B8000002804DB81F00101C0B200F063BC704793
:102B900090F91300002802DBC0B200F05BBC704764
:102BA00038B5054690F9100000280C4603DBC0B28A
:102BB000002100F04FFCEB681A684FF00043D3622D
:102BC0005463D36A002BFCDA95F91000946B00284B
:102BD000E4B203DBC0B2012100F03CFC204638BD6A
:102BE00038B5054690F91000002803DBC0B200217B
:102BF00000F030FCEB681A684FF00041FF23D1620F
:102C00005363D36A002BFCDA95F91000946B00280B
:102C1000E4B203DBC0B2012100F01CFC204638BD49
:102C200038B5044690F9110000280D4603DBC0B208
:102C3000002100F00FFC94F91000002803DBC0B263
:102C4000002100F007FCE3681A684FF00043D362EC
:102C50005563D36A002BFCDA94F91000936B0028BB
:102C600003DBC0B2012100F0F5FB94F9110000284C
:102C700005DBC0B20121BDE8384000F0EBBB38BD38
:102C800038B5044690F9100000280D4603DBC0B2A9
:102C9000002100F0DFFBE3681A684FF00043D362C5
:102CA0005563D36A002BFCDA94F91000936B00286B
:102CB00005DBC0B20121BDE8384000F0CBBB38BD18
:102CC00038B5044690F9110000280D4603DBC0B268
:102CD000002100F0BFFBE3681A684FF00043D362A5
:102CE0005563D36A002BFCDA94F91100936B00282A
:102CF00005DBC0B20121BDE8384000F0ABBB38BDF8
:102D000038B5054690F9100000280C4603DBC0B228
:102D1000002100F09FFBEB681A6844F080544FF0EC
:102D20000043D3625463D36A002BFCDA95F9100098
:102D3000946B0028A4B203DBC0B2012100F08AFB2F
:102D4000204638BD38B5054690F91000002803DB51
:102D5000C0B2002100F07EFBEA680A4B12684FF017
:102D60000041D1625363D36A002BFCDA95F910005D
:102D7000946B0028A4B203DBC0B2012100F06AFB0F
:102D8000204638BDFFFF001010B5044690F9100032
:102D9000002807DBC0B2012100F05CFB0121207C90
:102DA00000F06CFB94F91100002807DBC0B2012190
:102DB00000F050FB0121607C00F060FB94F91200F0
:102DC000002807DBC0B2012100F044FB0121A07CF8
:102DD00000F054FB94F91300002807DBC0B2012176
:102DE00000F038FB0121E07C00F048FB236820461E
:102DF0001B689847E06800F0A5F9E068002100F042
:102E000007FAE068012100F0DBF9236802499B68BA
:102E10002046BDE8104018470024F40090F9123015
:102E2000002B14DB10B50446142000F051FB0021E8
:102E3000A07C00F00FFB142000F04AFBA07C0121D5
:102E400000F008FBC820BDE8104000F041BB70470F
:102E5000C9B20429C06811D069B1052911D001296E
:102E600012D0062913D0022902D00C4900F0D6B99D
:102E70000B4900F0D3B90B4900F0D0B90A4900F072
:102E8000CDB90A4900F0CAB9094900F0C7B901F142
:102E9000605101F5A04100F0C1B900BF08700038D1
:102EA0000760003803200038000002B80430003802
:102EB0000540003870B40022354D364E02E0172C24
:102EC00008D0224635F8023F96FBF3F3994202F10F
:102ED0000104F4D33049C36851F82210DA7A41F082
:102EE0006054002A4DD072B6DA7AD60706D52B4D3B
:102EF000DA682E683240DA612A60DA7A950706D5F8
:102F0000274D1A692E6832401A622A60DA7A56070B
:102F100006D5244D5A692E6832405A622A60DA7A00
:102F2000150705D5204D9A692E6832409A622A60AD
:102F300062B61A68D368A342C36807D01B4D1C4809
:102F4000156041F0F041D46011611060DA7AB2B1DD
:102F5000D40703D5174AD9691160DA7A900703D5E7
:102F6000154A196A1160DA7A510703D5134A596A6A
:102F70001160DA7A120702D5114A9B6A136070BC9D
:102F800070471A68D068A042D8D170BC704700BFA3
:102F9000C6880000008793038C89000080E100E070
:102FA00084E100E088E100E08CE100E001403F00C6
:102FB00000003F8000E100E004E100E008E100E003
:102FC0000CE100E0F0B4084F084E094DC1600274F6
:102FD0009DF910109DF91420856080E8C0004374AD
:102FE0008174C274F0BC7047B48800005888000037
:102FF000BC88000010B4047F4160022CC26003D082
:103000005DF8044B01F068BA83685DF8044B18471B
:10301000F0B4464B464A986B5C6B01791170454998
:1030200022790A701A6B00790870002A46D0596814
:10303000C9688A423ED82168CC8B240402F1FF3053
:1030400065D4C0F30E00C883C88B80B2C882996B68
:103050000968C88B000452D4C2F30E00C883C88B21
:10306000002480B212F1FF32C88218BF01221C6313
:10307000596B2E4809680D6800F12C04A54236D022
:103080000068C46814F0804F0C680D6815BF248870
:1030900024780235013544F000440D604463996B97
:1030A000254B09791970214912B14A6B12791A70AE
:1030B000F0BC7047521A1A630122D9E7D86B19681D
:1030C00005681E4C0A63CC62CC682D681C4E24F047
:1030D00080440327B542CC6083F82D701FD1037F55
:1030E0004260022BC2601ED0F0BC01F0F5B901684D
:1030F00090F82C00CC6840F000404863CFE7CC8BC0
:10310000C2F3080004F47E442043C883A7E7CC8BB5
:10311000C0F3080004F47E442043C88394E72B46A0
:103120001146F0BC18478368F0BC18473007FF1FF2
:103130001F8000401C8000401B80004000000FFFEB
:10314000F52F000090E80C00F0B41C685968256861
:10315000164F174E29432160164D17491760D66048
:1031600015611160417A154A5C180C3194F82C40B5
:1031700053F8215002EBC40149680D60017A5C18D4
:1031800003EB8101247ECD6902EBC40149680D6027
:10319000817A581803EB810390F84000596C02EBD8
:1031A000C002F0BC53681960704700BF01401F00A7
:1031B000011000380110007800001F80E88900002D
:1031C0004268036805CA10B4046822430260DA68E2
:1031D00089B942F08072D9688A4209D019684804D6
:1031E0000CD40A48186042F08040DA601861196017
:1031F0005DF8044B704722F08072ECE742F08041AA
:10320000DA605DF8044B1961704700BF01401F0090
:1032100043680CCB11680B43136070474268036826
:1032200005CA10B4046822430260D868840100F023
:10323000E06205D5080900F4706021F47041014393
:10324000D8681143814209D01A68500409D408484B
:10325000186041F08040D96018611A605DF8044B35
:10326000704741F08042D9605DF8044B1A617047A5
:1032700001401F0008B5104C08E0236859050DD423
:1032800023681A050FD42368DB0411D4236858037C
:10329000F3D500F0DDFA23685905F1D501F06EFC95
:1032A00023681A05EFD501F0FFFC2368DB04EDD598
:1032B00001F090FDEAE700BF3480044008B5FFF755
:1032C000D9FF00BF014B10221A8070470020054033
:1032D000704700BF094908B50B6830B16A46184409
:1032E000A2F50052904202D20860184608BD02F0D2
:1032F0002DFC0C2303604FF0FF3008BD7007FF1F4B
:10330000FEE700BF084A1378802B01D000207047E9
:103310000649074B07480860002119701378802B75
:10332000FCD00120704700BF03E007404480044008
:1033300001E0074000002822094A1378012B01D040
:103340000020704703F1804303F5FC2360211970CE
:103350001378802BFCD1034B034A1A60012070477D
:1033600003E00740448004400000060210B4114B03
:1033700053F8302092F8804234B1012379B182F8B9
:1033800080305DF8044B704703EBC0035B681A683C
:1033900051B922F002021A605DF8044B704782F8BE
:1033A00000315DF8044B704742F003021A605DF88B
:1033B000044B7047E88900001C4A02EBC003012956
:1033C0005B6811D004291BD052F83000002280F82D
:1033D000802229B1022920D0032922D01A60704707
:1033E0004FF480721A60704752F830004FF4A272A6
:1033F00080F880121A601A6822F020021A60704762
:1034000052F830104FF4A272012081F880021A6045
:103410001A6842F020021A60704740F203121A60E4
:1034200070474FF481721A60704700BFE88900004E
:1034300030B4054B054D064C002210211A602A605D
:103440002060196030BC704714D0034004D00340A2
:1034500000D003403F2801D8FFF788BF704700BF66
:103460003F2806D8044B53F8303093F80002C0B21E
:1034700070470020704700BFE88900003F2801D84E
:10348000FFF79ABF704700BF72B60D490D4B0E4A49
:103490001B680868126862B6520102D5322B88BFD9
:1034A0000130C3F52F33094903F21F334FF47A7209
:1034B0009B08A1FB031302FB00F000EB9300704795
:1034C000D438FF1F18E000E004ED00E0176CC116CF
:1034D0002DE9F843054672B6224F234B234A1B6859
:1034E0003C68126862B6520102D5322B88BF0134A3
:1034F000B5B3C3F52F3303F21F331D4EDFF86890C9
:10350000DFF868809B084FF47A72A6FB031302FB76
:1035100004F404EB930472B6D9F800103A68D8F8B2
:1035200000E062B6C1F52F3303F21F339B08A6FB00
:1035300003031EF0806FC4EB93034FF47A7002D044
:10354000322988BF013200FB0233B3F57A7F04D3FE
:10355000013D05D004F57A74DDE701F007FADAE7FA
:10356000BDE8F883D438FF1F18E000E004ED00E068
:10357000176CC116F8B54E4B4E48DFF85CC14E4C87
:103580004E49DFF858E14E4E4E4D4F4F4FF000621E
:103590001A604FF080521A604FF000521A604FF0DC
:1035A00080421A604FF000421A6000220260282315
:1035B0004EF6FF70CCF80000CEF8003023600EF518
:1035C000012E0B6033602B6006F500263B6005F58D
:1035D0000025A36207F500278B6204F5012401F59D
:1035E000012106F6E87605F6E87507F57F671031E4
:1035F0000EF1100E203433602B60CEF800303B60AB
:103600000B602360314CBB618B6109212160A7F500
:10361000002704F58054203F08343A602060BB60E6
:10362000E36047F8041C04F5FD2407F5FE27043782
:1036300004F2FC7422603860A360FB6044F8041C50
:10364000083404F6FC74C7F8FC2F2060A4F5E124CC
:10365000A4F2DC7433602B60C7F8F81F21681C48A3
:1036600041F40071216001681A4C0EF57F4E0EF195
:10367000E80E07F5883706F5803605F5803541F008
:1036800000710160CEF8002047F6FF710822396012
:1036900033602B60226001F0CBF93220FFF718FF76
:1036A00000F002FD4FF4AF70BDE8F840FFF710BF27
:1036B00004E100E004800340148003401C800340C8
:1036C000248003402C80034034800340008003406A
:1036D0000480044000900C40088003400C800340AC
:1036E000431E032B14D872B60A4951F8230068B15F
:1036F00070B4094C058834F81320466841F82360FB
:10370000521B24F8132062B670BC704762B6704733
:10371000002070473039FF1F283DFF1F0138032864
:103720000BD872B6074B53F8203043B100205B68CA
:103730000130002BFBD162B670470020704718465D
:10374000F9E700BF8439FF1FF0B472B61A491B4E67
:10375000012311F8014B194F9A00240742F001058B
:1037600005D556F8324064B156F83520BAB1013368
:10377000052BEED162B6124B00221A70F0BC00F09D
:103780001BBD0F4C0F4D217847F8325007EB431308
:1037900008304A1E5860227062B6F0BC7047084973
:1037A000094B0A7847F8353007EBC5030830013A72
:1037B00058600A7062B6F0E7208C00000000FF1F1E
:1037C000AD39FF1F88004000C8004000431E032B96
:1037D0001DD81B4A400140F0100030B4104472B6AE
:1037E000184CE25C032A1BD8DFE802F0021215171E
:1037F00003220D88E25410F0080F14BFC823882359
:1038000043EA054308310360416062B630BC70474B
:1038100008300222EDE70522EBE708300422E8E752
:10382000094A52F8230038B1084A52F8230041608F
:1038300042F8231062B6E9E742F82310034AF7E79B
:103840000000FF1FBC39FF1F8439FF1F9439FF1F81
:103850002DE9F04FDFF804A3DFF804B387B044E0AC
:10386000A94F4FEA930807EBC809013ED9F8042095
:1038700003F00803F6B2A2F1080003F0FF04002BE6
:1038800040F0FE8057F838301B0C99B222F8081C23
:10389000002B00F0EC809D4B22F8064C42F8044CC3
:1038A00053F82620002A00F02B82994D55F8263037
:1038B0005860984C45F8260034F81630194424F81E
:1038C000161000F059FC002800F01382924A934B26
:1038D00019F0080F00F1080018BF1346C9F80400DA
:1038E00047F8383008238AF800309AF80040E4B2EC
:1038F00060071AD58A4B1B78A3B18A490A7802F06F
:10390000FF0322B1013BDBB20B7003B900BE864955
:103910000A7802F0FF032AB1013BDBB20B70002BE7
:1039200000F0BD8104238AF8003004F0080303F09E
:10393000FF02002B00F0C8809BF80030DBB21E09AC
:103940008ED19C08704F57F8342007EBC401C2F3A6
:103950008302013A49680C2A00F28580DFE802F010
:103960007979838383838383428383830700086811
:103970006E4B6F4D0193684B4A686E4E47F834307A
:1039800081B240F28164694B6A60286000220120A4
:10399000A1421A603A61BA61307000F2E380B1F579
:1039A000D06F80F02782B1F5817F00F0E08100F2D6
:1039B000C381802900F03682822940F0DE81A98807
:1039C0005D4B01F07F01042900F2D8815B4C890036
:1039D0000B44227062701A78930740F122832070A2
:1039E000022023E2514B01931A683AB3544B514ED3
:1039F0005449188834780D784028864645F00208E6
:103A000028BF4FF0400E002C84F001043470CEEB40
:103A100000000CBF8824C82407EBC80680B285F0DC
:103A2000010544EA0E447260188047F83840724439
:103A30000D70002800F0B780019B1A603C4B1A887B
:103A4000B2F5A06F0FD100219A7859703E4B1A70D1
:103A500009E0374A108842F22102904200F0A88023
:103A60002D4A47F83420394A012313703AE72A4A8D
:103A70002A4B19F0080F18BF134647F8383031E7C2
:103A800000F09AFB324A334952F82630002B00F0FE
:103A90003B8158688C5D42F8260003F10802C9F8A2
:103AA0000420032C05D8DFE804F02C02292602228A
:103AB0008A551A8819F0080F0CBF8823C82343EAD7
:103AC000024347F838300DE7E00700F1EB802106AC
:103AD00000F12881A20706D51F4A20491378022049
:103AE000DBB213700870E30602D51C4B10221A706B
:103AF00007B0BDE8F08F04228A55DAE705228A551F
:103B0000D7E703228A55D4E70000FF1F3039FF1F93
:103B1000DC38FF1F283DFF1FC80040008800400020
:103B2000B839FF1F4139FF1FC039FF1FD838FF1FA9
:103B3000A439FF1F4039FF1FC0200740B039FF1FC5
:103B4000EC38FF1FAC39FF1F982007409420074036
:103B50008439FF1FBC39FF1F8820074080200740A1
:103B60009020074042F22104A14200F0948043D803
:103B7000B1F5086F00F0A881B1F5106F40F0FD803D
:103B8000B84AB94CA978117004F1800503E00834F3
:103B9000AC4200F09E81236A1906F8D5606A0838A5
:103BA00000F00AFBF3E7BEF1400F18BF002243E725
:103BB000AE4ACD1D11F8013B02F8013FA942F9D1EF
:103BC000AB4A1268862A00F01181AA49AA4E0A78E7
:103BD000307882F00105002842F002020D700CBF1F
:103BE0008821C82147F8321007EBC20280F001009B
:103BF00000213070516033E742F22124A14240F0AD
:103C0000FE81DFF8BCC29D4B9D49AC78DCF80050CA
:103C10001D6081460C700020029080468446044658
:103C200094490D7845F0020E07EBCE03B9F1000F71
:103C30005C600CBF8824C82444EA080385F00104B2
:103C400047F83E3032700C70DFF81CE28A4BDFF828
:103C50002482002840F09880BCF1400F1BD144F032
:103C6000020407EBC403029FDFF8FCE15F60002A57
:103C700040F09F80020442F0880207444EF834204E
:103C800086F800900D703B46402804D100207D4A04
:103C9000019910800B607C4A01231370E3E600F069
:103CA000F7FB3FE6704B784872491A614FF0020EFD
:103CB00080F800E0754F0A70754919609960754E7B
:103CC000754D764C9A610D213970FF213170DFF806
:103CD000F4E129702270724D724A8EF800109F270D
:103CE000012406F8047C5D600470DA6007B0BDE86A
:103CF000F08F6D4A47F83800137801331370F1E5FF
:103D000043F82600694DD4E58B5D032B67D801A2EB
:103D100052F823F0E5380000E5380000693D000066
:103D2000633D000059495C4B80220D2008701A70D9
:103D3000A2077FF5D8AECFE640F20232914240F0C2
:103D40005681A98801F07F01042916D86A88A2B992
:103D50004E4C89000C448146217841F002012170CB
:103D600059E701238B55BDE500238B55BAE5A9889A
:103D700001F07F01042940F24781444B0F221A7061
:103D8000414A012313706EE640287FF668AF44F085
:103D900002040EEBC401029E4E60AAB1444A83F8AD
:103DA00000903346403888F8005040334EF83420B5
:103DB0006DE70204029B86F8009042F0C8020D7085
:103DC00003444EF834205FE783F80090029B304AAA
:103DD00088F80050403840334EF8342057E719F047
:103DE000080F0CBF022303238B557BE5314A0F21BB
:103DF0001170EAE6304A5468002CBED06888B5F8E5
:103E000004E003E00C325468002CB6D013888342DF
:103E1000F8D153887345F5D1000A03280CBF2078E8
:103E2000108903E0254C022022706270EA888242E9
:103E300080F00C810F490D78402A45F0020E94461F
:103E400007EBCE0028BF4FF0400C04EB0C0344609E
:103E50000293CCEB02004FEA0C484FF0010900221C
:103E6000C824E9E6B839FF1F0000FF1F2F3DFF1FE0
:103E7000303DFF1FAC39FF1F4039FF1F383DFF1F8A
:103E8000D039FF1FEC38FF1F94200740C0200740A7
:103E90008800400088200740802007409820074085
:103EA000F038FF1F4439FF1FAD39FF1FDC38FF1FFB
:103EB000C80040004139FF1F248C0000B039FF1FAB
:103EC000D438FF1F8C200740684A694C1278227052
:103ED000ACE76849684B694A02916949694C6A4D87
:103EE000039405964FF0000988461C461646049533
:103EF000206828B1456800F05FF92846002DF9D107
:103F000000232360049B30681A46002342F82930BE
:103F100028B1456800F050F92846002DF9D100225B
:103F20003260029A98F800301146002241F8042BC2
:103F3000039A0291023B4FF0000122F81910032B63
:103F400007D8DFE803F0340234024FF0010388F8A9
:103F5000003009F10109B9F1040F04F1040406F17C
:103F6000040608F10108C3D1484B059EDFF83091E3
:103F7000DFF8308100211970012518F8013B09F89C
:103F8000043B1A0718D4AC0044F0020244F00304C6
:103F9000002347F8323047F834303D4B994505F15E
:103FA0000105EAD196F8009089F0010233E64FF05E
:103FB000000388F80030CCE700F0DEF8AC0007EB37
:103FC000451300F10802002837D05A60314B47F8FA
:103FD000343000F0D1F844F0010307EBC30200F1E4
:103FE000080100B351602C4A47F83320CCE7B1F503
:103FF000A06F7FF4C2AE00224FF001090BE642F23F
:1040000021329142F7D0B8E66A88002A7FF4B5AE33
:10401000224C89000C448146217821F00201217054
:10402000F9E5022002E7194B44F001021B7847F83A
:104030003200164A01331370A6E7144B134A1B785B
:10404000AC00013347F834001370C2E740288446BF
:1040500028BF4FF0400C04EB0C03CCEB00004FEA00
:104060000C48029300224FF00109D9E5B839FF1F2F
:10407000B039FF1F9439FF1F3039FF1F8439FF1FEC
:10408000BC39FF1F283DFF1FDC38FF1FAD39FF1F64
:10409000D420074088004000C8004000C0200740EE
:1040A000C4200740208C00002DE9F041274C01F08E
:1040B00077F8002204F1880023461A605A6008331A
:1040C00083424FF00001F8D12148224A0368DFF80B
:1040D0009CE0214E214D224FDFF894C0DFF8948000
:1040E00043F480230360136843F040731360032399
:1040F0008EF80030A023337002F5C922C4F30723E1
:1041000000F528302B708030C4F3074310323B7029
:10411000240EFF230470134D8CF80030124888F8E9
:1041200000301370012306F8AC3C4FF400140EF875
:10413000441C7026102107F82C3C2E70046082F875
:10414000F810AEF1440EBDE8F08100BF0000FF1F83
:104150003480044000D80040402107409C200740A4
:10416000B020074035E400E004E100E044210740CE
:10417000802007408820074072B60D480268B2FAD6
:1041800082F30B2B10DC4FF00041D94022EA0102F0
:10419000026062B6074803EBC303DB00C2180021CC
:1041A000C15010465160704762B60020704700BF92
:1041B0007407FF1FD003FF1F0D4B0E4AC31AA2FB4B
:1041C00003231B090B2B0CD80B4A127852B972B679
:1041D0000A484FF00041026821FA03F31A430260D3
:1041E00062B67047064A1278002AF0D0FFF7ACBAE0
:1041F000D003FF1F398EE338AD39FF1F7407FF1F4F
:10420000B839FF1F38B50F4D286878B14388028848
:10421000C118013393420C7A02D24380204638BD44
:10422000FFF7CAFF002320462B6038BD064B1B78E2
:104230002BB10320FFF754FA28600028E6D14FF095
:10424000FF3038BDCC39FF1FB839FF1F10B5094CFE
:10425000206818B143881844007A10BD064B1B78BB
:104260002BB10320FFF73CFA20600028F2D14FF079
:10427000FF3010BDCC39FF1FB839FF1F044B054A72
:104280001B6890881BB11A885B88D31A1844704742
:10429000CC39FF1F283DFF1F0B4B1B789BB110B57E
:1042A0000A4C206848B1FFF787FF002303202360F2
:1042B000FFF716FA30B1FFF77FFF0320FFF710FA80
:1042C0000028F8D110BD7047B839FF1FCC39FF1F47
:1042D0002DE9F04FDFF8F89083B0012289F8002033
:1042E000019169B3DFF8EC80354F019E8346D8F821
:1042F0000000B0B3334D4488C4F14001B14228BF3F
:10430000314604EB010E00221FFA8EFE2A70761A47
:10431000A0F802E000F1080251B1013C22445944E6
:104320001BF8014B02F8014F8B45F9D1B0F802E0C0
:10433000BEF13F0F0BD8244A05211170002ED6D1B3
:104340000198002389F8003003B0BDE8F08F4022C7
:10435000028001460420FFF739FA0022C8F8002045
:10436000E9E73A7822B3194C164D4FF0010A07E0FD
:10437000013C16D02A78A2B900F0F8FA3A78BAB11E
:104380000420FFF7CBF90728F2D889F800A0FFF73F
:10439000F3FEC8F800000028ADD10D4B013C1870A9
:1043A000E8D101234FF0FF302B7003B0BDE8F08F50
:1043B00000234FF0FF3089F8003003B0BDE8F08FE4
:1043C000B839FF1FC839FF1FC039FF1F214801003E
:1043D000C139FF1FC439FF1F00B583B002AB0121F3
:1043E00003F8010D1846FFF773FF03B05DF804FBF7
:1043F00038B50E4D0E4C28680123237028B1408833
:1044000000232370C0F1400038BD0A4B1B7813B95C
:104410000020207038BD0420FFF780F90728F7D866
:10442000FFF7AAFE28600028E9D1F1E7C439FF1F91
:10443000C139FF1FB839FF1FF8B5114B1B788BB17D
:10444000104E114D346801272F7064B10F4A6388F4
:1044500000271770214623800420FFF7B7F9376043
:1044600000232B70F8BDFFF787FE084B28B10146EB
:1044700004201C70FFF7AAF9F2E71F70F0E700BFF5
:10448000B839FF1FC439FF1FC139FF1FC039FF1FD3
:1044900038B50E4B1B7873B90D4C216861B103F030
:1044A000FF054B880B800420FFF790F9256038BD8D
:1044B000084B01221A7038BDFFF75EFE0028F7D0C6
:1044C0000146BDE838400420FFF780B9C139FF1F1D
:1044D000C439FF1FC039FF1F10B4EFF3108272B64A
:1044E000437F33B9017F012908D0032910D001236C
:1044F000437702B962B65DF8044B7047114C2168EE
:10450000A1B1114943610B68836108605861EEE70E
:104510000E4C216881B10E4943610B6883610860CC
:1045200058610C4B4FF080511960E0E7064B416138
:10453000816120601860DAE7054B4161816120608C
:104540001860EEE7E439FF1FE039FF1FD439FF1F81
:10455000D839FF1F04ED00E070B5EFF3108272B69A
:104560000C4C206880B10C4E00254369236073B168
:104570009D6102B962B6457783689847EFF3108270
:1045800072B620680028F0D102B962B670BD3360FF
:10459000EFE700BFD439FF1FD839FF1FFFF7DCBF9B
:1045A000184A30B41468002C27D0036821688B4265
:1045B0000ED2CB1A00218460C1602360E0601060DD
:1045C0000223037530BC704711688B42144608D330
:1045D000A2685B1A0360002AF6D18260C460A06002
:1045E000EEE7D268C2608460E060C568CB1A022240
:1045F000A8602360027530BC70478460C46010609E
:10460000DEE700BFDC39FF1FF8B5224E34682CB35B
:104610002368002B3AD1204F1D4604E03468ECB1EA
:104620002368002B32D1A36803B1DD6020693360B9
:10463000036825751B68BB4221D1037F4560022BAF
:10464000C46020D0FFF748FF6368002BE6D02360EA
:104650002046FFF7A5FF3468002CE1D1EFF310836B
:1046600072B60E4A00211068116003B962B628B113
:104670008468FFF795FF20460028F9D1F8BD22464F
:1046800000219847E0E783689847DDE7013B236016
:10469000E4E700BFDC39FF1FF52F0000EC39FF1FF6
:1046A000024A136801331360FFF7AEBFD438FF1F0F
:1046B00008B5FBF7DBFEFBF7FBFE00F057F9FAE766
:1046C000F8B572B106460F4614460025336817F850
:1046D000011B1B6830469847013C0544F6D128462B
:1046E000F8BD1546FBE700BF00B5064A036812880F
:1046F0005B6883B001A9ADF804200222984703B09B
:104700005DF804FBE88B0000F0B507468BB0002A8B
:1047100033D0012A08BF0A2251B3212400E0F4B2A9
:10472000B1FBF2F502FB1511C8B2092900F1300105
:1047300098BFC8B20AA988BF3730214488BFC0B229
:1047400001F8240C661E2946002DE8D133B1013C46
:10475000E4B20AAB23442D2203F8242C3B6801AABF
:1047600011195B683846C4F1220298470BB0F0BDBE
:1047700030228DF825202124E8E70368C9B21B68A0
:1047800098470BB0F0BD00BF2DE9F04357EC106B1C
:1047900085B005460C4610EE102A3B4610EE100A76
:1047A000394601F09DF9002840F0B28027F0004919
:1047B000304649464FF0FF32594B01F091F990B91C
:1047C000304649464FF0FF32554B01F06BF950B976
:1047D0002B6854495B682846032298478046404628
:1047E00005B0BDE8F0834FF060424F4B304639468C
:1047F00001F06CF9002872D14FF060424B4B30460B
:10480000394601F045F9002869D1002200233046DD
:10481000394601F03DF9002864D18146002C67D06B
:10482000434900204FF000083BA3D3E9002308F1DF
:10483000010800F0BBFE5FFA88F39C42F4D8024600
:104840000B463046394600F0FFFC0F46064601F0A5
:104850005DF9804600F034FE02460B46304639468C
:1048600000F0F0FC4B4606460F460A224146284619
:10487000FFF74AFF0F2C28BF0F2404F101092E2354
:1048800080465FFA89F98DF8003001240022294B17
:104890003046394600F08AFE0F46064601F036F9EA
:1048A00004AB2344C0B200F1300203F8102C00F036
:1048B00017FE02460B463046394600F0C3FC013471
:1048C000E4B24C4506460F46E0D12B6822465B68B1
:1048D000284669469847404605B0BDE8F0832B68F6
:1048E000154977E707F100431F464FF0010995E7A7
:1048F00000220F4B3046394600F0A6FC01F006F9C5
:104900004B4601460A222846FFF7FEFE804666E730
:104910002B680A495EE700BF000000A09999B93FE3
:10492000FFFFEF7FF48B0000FFFFEF41FFFFEFC1C0
:104930000000E03F00002440F08B0000EC8B000002
:10494000FFF7AABCFFF782BCFFF75CBCFFF796BC81
:10495000FFF772BDFFF74CBD08461146FFF7B8BC24
:104960000846FFF739BD00BF704700BF38B52C4C73
:10497000237803B138BD01232370FFF77FFC0028A3
:1049800042D100F0EBF800283BD100F07DF900287F
:1049900034D100F00FFA70BB00F088FA40BB00F091
:1049A00001FB10BB00F07AFBE0B900232370EFF3AA
:1049B0000583002BDED1EFF3108172B6194B186816
:1049C00028B3194C227812BB45691D60012323705E
:1049D0000DB3AA6101B962B600254577836898478F
:1049E0002570C7E700F028FCDFE700F023FCD9E7DB
:1049F00000F01EFCD3E700F019FCCDE700F014FC3A
:104A0000C7E700F00FFCC0E7FFF7AEFFB9E70029EA
:104A1000B0D162B638BD054B1D600029DCD1DAE7A4
:104A2000F039FF1FE439FF1FE839FF1FE039FF1F8E
:104A300030B42948294A2A4B2A4D6024E1210470C8
:104A400011701B78284C082B30D00A2B2748284996
:104A500037D00C2B0CBF35225D2212232A60236035
:104A600002600B60234B24491B78244ABBB101230D
:104A70000B601360224B23491B78234A012B26D954
:104A8000042B0FD9082B1ED9102B94BF8623872304
:104A90000B6013601D4B01221A7030BC70470B6015
:104AA0001360E7E784230B601360F3E700F58E20C3
:104AB0000F490830212213232A60236002600B6013
:104AC000D0E73922F7E785230B601360E2E7802304
:104AD0000B601360DEE700BF004007400140074065
:104AE0008807FF1F08B003400CB0034008B00B401C
:104AF0000CB00B40F239FF1F20B0034020B00B4038
:104B00008907FF1F24B0034024B00B40F139FF1F79
:104B1000F0B44D1E2E46002400E00134B0FBF2F349
:104B200002FB1300092800F130078ABF3730F8B2C2
:104B3000C0B206F8010F1846002BEED10A195370C7
:104B40004CB1107815F8016F28700133E01A8342D8
:104B500002F80169F5DB0846F0BC7047054A064BD0
:104B600010781B78C0B2DBB2984238BF4030C01A10
:104B7000704700BFF839FF1FF939FF1FF0B4384BF9
:104B80001A7912F0300F2CD072B6997D01F0FF0225
:104B900000293DD062B6334F334938780D78334E13
:104BA0001C46C0B2EDB2431C402BE17928BF002364
:104BB000AB4202F1FF32C9B21CBFF154184612F0E9
:104BC000FF02F0D12A4B1B68C2B23A704BB1A84227
:104BD00036BFC5F14005401B40192728C4BF01223C
:104BE0001A701F49CA78D2B2150616D452060DD5CE
:104BF0001B4B1B795B0609D51E4B1F491B68002206
:104C00000A7003B11A70164B3C22DA70F0BC704780
:104C10004022D9795A7462B6E3E70B791C06E5D5D0
:104C2000164B174E1C783378E4B2DBB29C420ED0A0
:104C3000144D01E0A3420AD00133402B28BF0023CA
:104C40000879E85CC0B2C871087D0728F2D9DBB2E8
:104C5000034933700B79180644BF7C23CB70C5E73A
:104C600000A00640F839FF1FF939FF1F3C3AFF1F2B
:104C7000F439FF1F803AFF1F7C3AFF1F843AFF1F61
:104C80007D3AFF1FFC39FF1F054A064B10781B7841
:104C9000C0B2DBB2984238BF4030C01A704700BF84
:104CA000F83AFF1F8D3AFF1FF0B4384B1A7912F013
:104CB000300F2CD072B6997D01F0FF0200293DD053
:104CC00062B6334F334938780D78334E1C46C0B244
:104CD000EDB2431C402BE17928BF0023AB4202F127
:104CE000FF32C9B21CBFF154184612F0FF02F0D1D6
:104CF0002A4B1B68C2B23A704BB1A84236BFC5F10D
:104D00004005401B40192728C4BF01221A701F49C3
:104D1000CA78D2B2150616D452060DD51B4B1B7994
:104D20005B0609D51E4B1F491B6800220A7003B1A0
:104D30001A70164B3C22DA70F0BC70474022D979C9
:104D40005A7462B6E3E70B791C06E5D5164B174E8D
:104D50001C783378E4B2DBB29C420ED0144D01E0F3
:104D6000A3420AD00133282B28BF00230879E85C2E
:104D7000C0B2C871087D0728F2D9DBB2034933708D
:104D80000B79180644BF7C23CB70C5E700B0064002
:104D9000F83AFF1F8D3AFF1FB83AFF1F883AFF1FEE
:104DA000FC3AFF1F8C3AFF1F003BFF1FF93AFF1F21
:104DB000903AFF1F054A064B10781B78C0B2DBB251
:104DC000984238BF4030C01A704700BF083BFF1FF1
:104DD000093BFF1F30B42B4B1A7994061FD52A4884
:104DE000DA790378294901333F2B0978C8BF0023BA
:104DF0008B42D2B203D0264CD9B2E2540170254A7C
:104E0000116861B1244A1278D2B2934236BFC2F11E
:104E100040029B1A9B18272BC4BF01230B70194A11
:104E2000D378DBB2180611D45A060DD5154B1B7971
:104E30005B0609D5194B1A491B6800220A7003B199
:104E40001A70104B2C22DA7030BC704711790906A9
:104E5000EAD5144910480C780178C9B28C420DD0BB
:104E60004A1C272A84BF00210A460F4D054C98BFD3
:104E7000D1B2AA5CD2B2E2710170D5E76C21D170D7
:104E8000D2E700BF00C00640083BFF1F093BFF1FE1
:104E9000343BFF1F043BFF1F753BFF1F783BFF1F89
:104EA000743BFF1F7C3BFF1F0C3BFF1F054A064B5B
:104EB00010781B78C0B2DBB2984238BF4030C01ABD
:104EC000704700BF843BFF1F853BFF1F30B42B4B57
:104ED0001A7994061FD52A48DA79037829490133CB
:104EE0003F2B0978C8BF00238B42D2B203D0264C97
:104EF000D9B2E2540170254A116861B1244A12788E
:104F0000D2B2934236BFC2F140029B1A9B18272BA4
:104F1000C4BF01230B70194AD378DBB2180611D431
:104F20005A060DD5154B1B795B0609D5194B1A4945
:104F30001B6800220A7003B11A70104B2C22DA7021
:104F400030BC704711790906EAD5144910480C782D
:104F50000178C9B28C420DD04A1C272A84BF002197
:104F60000A460F4D054C98BFD1B2AA5CD2B2E2718D
:104F70000170D5E76C21D170D2E700BF00D00640A8
:104F8000843BFF1F853BFF1FB03BFF1F803BFF1F84
:104F9000F13BFF1FF43BFF1FF03BFF1FF83BFF1FE0
:104FA000883BFF1F054A064B10781B78C0B2DBB266
:104FB000984238BF4030C01A704700BF003CFF1F06
:104FC000013CFF1F30B42B4B1A7994061FD52A4899
:104FD000DA790378294901333F2B0978C8BF0023C8
:104FE0008B42D2B203D0264CD9B2E2540170254A8A
:104FF000116861B1244A1278D2B2934236BFC2F12D
:1050000040029B1A9B18272BC4BF01230B70194A1F
:10501000D378DBB2180611D45A060DD5154B1B797F
:105020005B0609D5194B1A491B6800220A7003B1A7
:105030001A70104B2C22DA7030BC704711790906B7
:10504000EAD5144910480C780178C9B28C420DD0C9
:105050004A1C272A84BF00210A460F4D054C98BFE1
:10506000D1B2AA5CD2B2E2710170D5E76C21D170E5
:10507000D2E700BF00A00E40003CFF1F013CFF1F15
:105080002C3CFF1FFC3BFF1F6D3CFF1F703CFF1FB4
:105090006C3CFF1F743CFF1F043CFF1F054A064B7E
:1050A00010781B78C0B2DBB2984238BF4030C01ACB
:1050B000704700BF7C3CFF1F7D3CFF1F30B42C4B72
:1050C0005A6894021FD52B48DA6803782A490133BD
:1050D0003F2B0978C8BF00238B4204D0274CD2B2A3
:1050E000D9B2E2540170264A116861B1254A12789A
:1050F000D2B2934236BFC2F140029B1A9B18272BB3
:10510000C4BF01230B701A4A9368180202D5526873
:10511000110211D45A020DD5154B5B685B0209D5FB
:10512000194B1A491B6800220A7003B11A70184BF8
:1051300000221A6030BC7047164A124910780A786B
:10514000D2B290420DD00132272A84BF00200246FD
:10515000114D074C98BFD0B2AA5CD2B2E260087081
:10516000D8E70E480A4A0024012104601160D1E703
:1051700000400C407C3CFF1F7D3CFF1FA83CFF1FF4
:10518000783CFF1FE93CFF1FEC3CFF1FE83CFF1F82
:1051900058018843F03CFF1F803CFF1F5C0188439F
:1051A00010B584B072B6FEF7ADF8184A184B19491D
:1051B0001160702280211A701A46197013781B062C
:1051C000FCD5154B1C68FEF7B7F862B6134B9C4232
:1051D0009CBF04EB840464002046114C01A90A2200
:1051E000FFF796FC01A92046002311F8012B01339B
:1051F0003AB10A2B20F8022FF7D11623237004B0FE
:1052000010BD5B00DBB2237004B010BD040002408F
:1052100000000240000007410C0002407F96980009
:105220001808FF1F704700BF704700BF704700BFDE
:10523000704700BF704700BF704700BF81F000415A
:1052400002E000BF83F0004330B54FEA41044FEA6B
:10525000430594EA050F08BF90EA020F1FBF54EA06
:10526000000C55EA020C7FEA645C7FEA655C00F0A2
:10527000E2804FEA5454D4EB5555B8BF6D420CDD73
:105280002C4480EA020281EA030382EA000083EAF6
:10529000010180EA020281EA0303362D88BF30BD96
:1052A00011F0004F4FEA01314FF4801C4CEA1131EC
:1052B00002D0404261EB410113F0004F4FEA03334B
:1052C0004CEA133302D0524263EB430394EA050FD6
:1052D00000F0A780A4F10104D5F1200E0DDB02FA45
:1052E0000EFC22FA05F2801841F1000103FA0EF2D9
:1052F000801843FA05F359410EE0A5F120050EF19F
:10530000200E012A03FA0EFC28BF4CF0020C43FACF
:1053100005F3C01851EBE37101F0004507D54FF0DC
:10532000000EDCF1000C7EEB00006EEB0101B1F52C
:10533000801F1BD3B1F5001F0CD349085FEA300072
:105340004FEA3C0C04F101044FEA445212F5800F7D
:1053500080F09A80BCF1004F08BF5FEA500C50F11A
:10536000000041EB045141EA050130BD5FEA4C0CFD
:10537000404141EB010111F4801FA4F10104E9D186
:1053800091F0000F04BF01460020B1FA81F308BF7D
:105390002033A3F10B03B3F120020CDA0C3208DD49
:1053A00002F1140CC2F10C0201FA0CF021FA02F124
:1053B0000CE002F11402D8BFC2F1200C01FA02F194
:1053C00020FA0CFCDCBF41EA0C019040E41AA2BFB9
:1053D00001EB0451294330BD6FEA04041F3C1CDA81
:1053E0000C340EDC04F11404C4F1200220FA04F0A1
:1053F00001FA02F340EA030021FA04F345EA03014B
:1054000030BDC4F10C04C4F1200220FA02F001FA0C
:1054100004F340EA0300294630BD21FA04F029468E
:1054200030BD94F0000F83F4801306BF81F4801127
:105430000134013D4EE77FEA645C18BF7FEA655C9A
:1054400029D094EA050F08BF90EA020F05D054EA6C
:10545000000C04BF1946104630BD91EA030F1EBF71
:105460000021002030BD5FEA545C05D14000494175
:1054700028BF41F0004130BD14F580043CBF01F568
:10548000801130BD01F0004545F0FE4141F470014E
:105490004FF0000030BD7FEA645C1ABF1946104629
:1054A0007FEA655C1CBF0B46024650EA013406BF2A
:1054B00052EA033591EA030F41F4002130BD00BFE9
:1054C00090F0000F04BF0021704730B54FF48064A6
:1054D00004F132044FF000054FF0000150E700BF27
:1054E00090F0000F04BF0021704730B54FF4806486
:1054F00004F1320410F0004548BF40424FF0000173
:105500003EE700BF42004FEAE2014FEA31014FEAB5
:1055100002701FBF12F07F4393F07F4F81F0605104
:10552000704792F0000F14BF93F07F4F704730B573
:105530004FF4607401F0004521F0004120E700BF06
:1055400050EA010208BF704730B54FF000050AE08D
:1055500050EA010208BF704730B511F0004502D58E
:10556000404261EB41014FF4806404F132045FEA90
:10557000915C3FF4DCAE4FF003025FEADC0C18BF35
:1055800003325FEADC0C18BF033202EBDC02C2F12B
:10559000200300FA03FC20FA02F001FA03FE40EABD
:1055A0000E0021FA02F11444C1E600BF70B54FF0BD
:1055B000FF0C4CF4E06C1CEA11541DBF1CEA13559F
:1055C00094EA0C0F95EA0C0F00F0DEF82C4481EA07
:1055D000030621EA4C5123EA4C5350EA013518BF27
:1055E00052EA033541F4801143F4801338D0A0FB14
:1055F00002CE4FF00005E1FB02E506F00042E0FBC1
:1056000003E54FF00006E1FB03569CF0000F18BFC6
:105610004EF0010EA4F1FF04B6F5007F64F540746E
:1056200004D25FEA4E0E6D4146EB060642EAC62101
:1056300041EA55514FEAC52040EA5E504FEACE2E6E
:10564000B4F1FD0C88BFBCF5E06F1ED8BEF1004F71
:1056500008BF5FEA500E50F1000041EB045170BDED
:1056600006F0004646EA010140EA020081EA030131
:10567000B4EB5C04C2BFD4EB0C0541EA045170BD2D
:1056800041F480114FF0000E013C00F3AB8014F1A7
:10569000360FDEBF002001F0004170BDC4F10004F0
:1056A000203C35DA0C341BDC04F11404C4F1200571
:1056B00000FA05F320FA04F001FA05F240EA0200CC
:1056C00001F0004221F0004110EBD37021FA04F602
:1056D00042EB06015EEA430E08BF20EAD37070BDBC
:1056E000C4F10C04C4F1200500FA04F320FA05F01B
:1056F00001FA04F240EA020001F0004110EBD3701D
:1057000041F100015EEA430E08BF20EAD37070BD8C
:10571000C4F1200500FA05F24EEA020E20FA04F365
:1057200001FA05F243EA020321FA04F001F0004114
:1057300021FA04F220EA020000EBD3705EEA430E85
:1057400008BF20EAD37070BD94F0000F0FD101F0B4
:105750000046400041EB010111F4801F08BF013CED
:10576000F7D041EA060195F0000F18BF704703F02B
:105770000046520043EB030313F4801F08BF013DB2
:10578000F7D043EA0603704794EA0C0F0CEA13556E
:1057900018BF95EA0C0F0CD050EA410618BF52EA28
:1057A0004306D1D181EA030101F000414FF000002E
:1057B00070BD50EA410606BF1046194652EA43063C
:1057C00019D094EA0C0F02D150EA013613D195EAB0
:1057D0000C0F05D152EA03361CBF104619460AD1F8
:1057E00081EA030101F0004141F0FE4141F4700102
:1057F0004FF0000070BD41F0FE4141F4780170BDF2
:1058000070B54FF0FF0C4CF4E06C1CEA11541DBF56
:105810001CEA135594EA0C0F95EA0C0F00F0A7F858
:10582000A4EB050481EA030E52EA03354FEA013185
:1058300000F088804FEA03334FF0805545EA131398
:1058400043EA12634FEA022245EA111545EA106560
:105850004FEA00260EF000419D4208BF964244F1F7
:10586000FD0404F5407402D25B084FEA3202B61A16
:1058700065EB03055B084FEA32024FF480104FF4EA
:10588000002CB6EB020E75EB030E22BFB61A75465E
:1058900040EA0C005B084FEA3202B6EB020E75EBF1
:1058A000030E22BFB61A754640EA5C005B084FEA59
:1058B0003202B6EB020E75EB030E22BFB61A754626
:1058C00040EA9C005B084FEA3202B6EB020E75EB31
:1058D000030E22BFB61A754640EADC0055EA060EF2
:1058E00018D04FEA051545EA16754FEA06164FEA35
:1058F000C30343EA52734FEAC2025FEA1C1CC0D1E1
:1059000011F4801F0BD141EA00014FF000004FF06D
:10591000004CB6E711F4801F04BF01430020B4F12E
:10592000FD0C88BFBCF5E06F3FF6AFAEB5EB030CE6
:1059300004BFB6EB020C5FEA500C50F1000041EBE3
:10594000045170BD0EF0004E4EEA113114EB5C04B0
:10595000C2BFD4EB0C0541EA045170BD41F4801183
:105960004FF0000E013C90E645EA060E8DE60CEA8B
:10597000135594EA0C0F08BF95EA0C0F3FF43BAFA8
:1059800094EA0C0F0AD150EA01347FF434AF95EA5F
:105990000C0F7FF425AF104619462CE795EA0C0F43
:1059A00006D152EA03353FF4FDAE1046194622E710
:1059B00050EA410618BF52EA43067FF4C5AE50EAEA
:1059C00041047FF40DAF52EA43057FF4EBAE12E7DA
:1059D0004FF0FF3C06E000BF4FF0010C02E000BFBB
:1059E0004FF0010C4DF804CD4FEA410C7FEA6C5C9E
:1059F0004FEA430C18BF7FEA6C5C1BD001B050EA41
:105A0000410C0CBF52EA430C91EA030F02BF90EA2B
:105A1000020F0020704710F1000F91EA030F58BFEA
:105A2000994208BF90422CBFD8176FEAE37040F04C
:105A3000010070474FEA410C7FEA6C5C02D150EAEA
:105A4000013C07D14FEA430C7FEA6C5CD6D152EAA5
:105A5000033CD3D05DF8040B704700BF844610466A
:105A600062468C461946634600E000BF01B5FFF769
:105A7000B7FF002848BF10F1000F01BD4DF808ED39
:105A8000FFF7F4FF0CBF012000205DF808FB00BF0A
:105A90004DF808EDFFF7EAFF34BF012000205DF864
:105AA00008FB00BF4DF808EDFFF7E0FF94BF0120B1
:105AB00000205DF808FB00BF4DF808EDFFF7CEFFB2
:105AC00094BF012000205DF808FB00BF4DF808EDF1
:105AD000FFF7C4FF34BF012000205DF808FB00BFC2
